{
  "_format": "hh-sol-artifact-1",
  "contractName": "Lottery",
  "sourceName": "contracts/Lottery.sol",
  "abi": [
    {
      "inputs": [],
      "stateMutability": "nonpayable",
      "type": "constructor"
    },
    {
      "inputs": [
        {
          "internalType": "address",
          "name": "have",
          "type": "address"
        },
        {
          "internalType": "address",
          "name": "want",
          "type": "address"
        }
      ],
      "name": "OnlyCoordinatorCanFulfill",
      "type": "error"
    },
    {
      "inputs": [],
      "name": "adminAddress",
      "outputs": [
        {
          "internalType": "address payable",
          "name": "",
          "type": "address"
        }
      ],
      "stateMutability": "view",
      "type": "function"
    },
    {
      "inputs": [],
      "name": "changeStatus",
      "outputs": [],
      "stateMutability": "nonpayable",
      "type": "function"
    },
    {
      "inputs": [
        {
          "internalType": "uint256",
          "name": "number",
          "type": "uint256"
        }
      ],
      "name": "changeTax",
      "outputs": [],
      "stateMutability": "nonpayable",
      "type": "function"
    },
    {
      "inputs": [],
      "name": "clearContract",
      "outputs": [],
      "stateMutability": "nonpayable",
      "type": "function"
    },
    {
      "inputs": [],
      "name": "counter",
      "outputs": [
        {
          "internalType": "uint256",
          "name": "",
          "type": "uint256"
        }
      ],
      "stateMutability": "view",
      "type": "function"
    },
    {
      "inputs": [],
      "name": "drawNumber",
      "outputs": [
        {
          "internalType": "uint256",
          "name": "",
          "type": "uint256"
        }
      ],
      "stateMutability": "view",
      "type": "function"
    },
    {
      "inputs": [],
      "name": "drawOn",
      "outputs": [
        {
          "internalType": "bool",
          "name": "",
          "type": "bool"
        }
      ],
      "stateMutability": "view",
      "type": "function"
    },
    {
      "inputs": [
        {
          "internalType": "uint256",
          "name": "",
          "type": "uint256"
        }
      ],
      "name": "emptyBets",
      "outputs": [
        {
          "internalType": "address payable",
          "name": "playerAddress",
          "type": "address"
        },
        {
          "internalType": "string",
          "name": "betNumbers",
          "type": "string"
        },
        {
          "internalType": "uint256",
          "name": "betNumber1",
          "type": "uint256"
        },
        {
          "internalType": "uint256",
          "name": "betNumber2",
          "type": "uint256"
        },
        {
          "internalType": "uint256",
          "name": "betNumber3",
          "type": "uint256"
        },
        {
          "internalType": "uint256",
          "name": "betNumber4",
          "type": "uint256"
        },
        {
          "internalType": "uint256",
          "name": "betNumber5",
          "type": "uint256"
        },
        {
          "internalType": "uint256",
          "name": "betNumber6",
          "type": "uint256"
        }
      ],
      "stateMutability": "view",
      "type": "function"
    },
    {
      "inputs": [
        {
          "internalType": "uint256[]",
          "name": "_numbers",
          "type": "uint256[]"
        }
      ],
      "name": "enterLottery",
      "outputs": [],
      "stateMutability": "payable",
      "type": "function"
    },
    {
      "inputs": [],
      "name": "getLastWinners",
      "outputs": [
        {
          "internalType": "address payable[]",
          "name": "",
          "type": "address[]"
        }
      ],
      "stateMutability": "view",
      "type": "function"
    },
    {
      "inputs": [],
      "name": "getloterryBets",
      "outputs": [
        {
          "components": [
            {
              "internalType": "address payable",
              "name": "playerAddress",
              "type": "address"
            },
            {
              "internalType": "string",
              "name": "betNumbers",
              "type": "string"
            },
            {
              "internalType": "uint256",
              "name": "betNumber1",
              "type": "uint256"
            },
            {
              "internalType": "uint256",
              "name": "betNumber2",
              "type": "uint256"
            },
            {
              "internalType": "uint256",
              "name": "betNumber3",
              "type": "uint256"
            },
            {
              "internalType": "uint256",
              "name": "betNumber4",
              "type": "uint256"
            },
            {
              "internalType": "uint256",
              "name": "betNumber5",
              "type": "uint256"
            },
            {
              "internalType": "uint256",
              "name": "betNumber6",
              "type": "uint256"
            }
          ],
          "internalType": "struct Lottery.Bet[]",
          "name": "",
          "type": "tuple[]"
        }
      ],
      "stateMutability": "view",
      "type": "function"
    },
    {
      "inputs": [],
      "name": "hasNumbers",
      "outputs": [
        {
          "internalType": "bool",
          "name": "",
          "type": "bool"
        }
      ],
      "stateMutability": "view",
      "type": "function"
    },
    {
      "inputs": [],
      "name": "inRange",
      "outputs": [
        {
          "internalType": "uint256",
          "name": "",
          "type": "uint256"
        }
      ],
      "stateMutability": "view",
      "type": "function"
    },
    {
      "inputs": [],
      "name": "interval",
      "outputs": [
        {
          "internalType": "uint256",
          "name": "",
          "type": "uint256"
        }
      ],
      "stateMutability": "view",
      "type": "function"
    },
    {
      "inputs": [],
      "name": "lastNumbers",
      "outputs": [
        {
          "internalType": "string",
          "name": "",
          "type": "string"
        }
      ],
      "stateMutability": "view",
      "type": "function"
    },
    {
      "inputs": [],
      "name": "lastTimeStamp",
      "outputs": [
        {
          "internalType": "uint256",
          "name": "",
          "type": "uint256"
        }
      ],
      "stateMutability": "view",
      "type": "function"
    },
    {
      "inputs": [
        {
          "internalType": "uint256",
          "name": "",
          "type": "uint256"
        }
      ],
      "name": "lastWinner",
      "outputs": [
        {
          "internalType": "address payable",
          "name": "",
          "type": "address"
        }
      ],
      "stateMutability": "view",
      "type": "function"
    },
    {
      "inputs": [
        {
          "internalType": "uint256",
          "name": "",
          "type": "uint256"
        }
      ],
      "name": "lotteryBets",
      "outputs": [
        {
          "internalType": "address payable",
          "name": "playerAddress",
          "type": "address"
        },
        {
          "internalType": "string",
          "name": "betNumbers",
          "type": "string"
        },
        {
          "internalType": "uint256",
          "name": "betNumber1",
          "type": "uint256"
        },
        {
          "internalType": "uint256",
          "name": "betNumber2",
          "type": "uint256"
        },
        {
          "internalType": "uint256",
          "name": "betNumber3",
          "type": "uint256"
        },
        {
          "internalType": "uint256",
          "name": "betNumber4",
          "type": "uint256"
        },
        {
          "internalType": "uint256",
          "name": "betNumber5",
          "type": "uint256"
        },
        {
          "internalType": "uint256",
          "name": "betNumber6",
          "type": "uint256"
        }
      ],
      "stateMutability": "view",
      "type": "function"
    },
    {
      "inputs": [],
      "name": "lotteryBetsLen",
      "outputs": [
        {
          "internalType": "uint256",
          "name": "",
          "type": "uint256"
        }
      ],
      "stateMutability": "view",
      "type": "function"
    },
    {
      "inputs": [],
      "name": "performUpkeep",
      "outputs": [],
      "stateMutability": "nonpayable",
      "type": "function"
    },
    {
      "inputs": [
        {
          "internalType": "uint256",
          "name": "requestId",
          "type": "uint256"
        },
        {
          "internalType": "uint256[]",
          "name": "randomWords",
          "type": "uint256[]"
        }
      ],
      "name": "rawFulfillRandomWords",
      "outputs": [],
      "stateMutability": "nonpayable",
      "type": "function"
    },
    {
      "inputs": [
        {
          "internalType": "uint256",
          "name": "",
          "type": "uint256"
        }
      ],
      "name": "s_empty",
      "outputs": [
        {
          "internalType": "uint256",
          "name": "",
          "type": "uint256"
        }
      ],
      "stateMutability": "view",
      "type": "function"
    },
    {
      "inputs": [],
      "name": "s_empty_one",
      "outputs": [
        {
          "internalType": "uint256",
          "name": "",
          "type": "uint256"
        }
      ],
      "stateMutability": "view",
      "type": "function"
    },
    {
      "inputs": [
        {
          "internalType": "uint256",
          "name": "",
          "type": "uint256"
        }
      ],
      "name": "s_randomWords",
      "outputs": [
        {
          "internalType": "uint256",
          "name": "",
          "type": "uint256"
        }
      ],
      "stateMutability": "view",
      "type": "function"
    },
    {
      "inputs": [],
      "name": "s_requestId",
      "outputs": [
        {
          "internalType": "uint256",
          "name": "",
          "type": "uint256"
        }
      ],
      "stateMutability": "view",
      "type": "function"
    },
    {
      "inputs": [],
      "name": "tax",
      "outputs": [
        {
          "internalType": "uint256",
          "name": "",
          "type": "uint256"
        }
      ],
      "stateMutability": "view",
      "type": "function"
    },
    {
      "inputs": [],
      "name": "totalInContract",
      "outputs": [
        {
          "internalType": "uint256",
          "name": "",
          "type": "uint256"
        }
      ],
      "stateMutability": "view",
      "type": "function"
    }
  ],
  "bytecode": "0x60a0604052732ca8e0c643bde4c2e08ab1fa0da3401adad7734d601060086101000a81548173ffffffffffffffffffffffffffffffffffffffff021916908373ffffffffffffffffffffffffffffffffffffffff1602179055507f79d3d8832d904592c0bf9818b621522c988bb8b0c05cdc3b15aea1b6e8db0c1560001b601155620493e0601260006101000a81548163ffffffff021916908363ffffffff1602179055506003601260046101000a81548161ffff021916908361ffff1602179055506006601260066101000a81548163ffffffff021916908363ffffffff1602179055503480156100f057600080fd5b50601060089054906101000a900473ffffffffffffffffffffffffffffffffffffffff168073ffffffffffffffffffffffffffffffffffffffff1660808173ffffffffffffffffffffffffffffffffffffffff16815250505033600160006101000a81548173ffffffffffffffffffffffffffffffffffffffff021916908373ffffffffffffffffffffffffffffffffffffffff1602179055504260188190555061012c601981905550601060089054906101000a900473ffffffffffffffffffffffffffffffffffffffff166000806101000a81548173ffffffffffffffffffffffffffffffffffffffff021916908373ffffffffffffffffffffffffffffffffffffffff16021790555033601760006101000a81548173ffffffffffffffffffffffffffffffffffffffff021916908373ffffffffffffffffffffffffffffffffffffffff160217905550613ec7601060006101000a81548167ffffffffffffffff021916908367ffffffffffffffff1602179055506000601a819055506002601c819055506005601d819055506000601b60006101000a81548160ff0219169083151502179055506000601e60006101000a81548160ff0219169083151502179055506080516148566102d86000396000818161085501526108a901526148566000f3fe60806040526004361061019c5760003560e01c8063831a0384116100ec578063bf9985c81161008a578063e7e9f05611610064578063e7e9f0561461056c578063e89e106a146105b0578063f6eaffc8146105db578063fc6f9468146106185761019c565b8063bf9985c8146104d9578063cb7a31a714610516578063d80ffb20146105415761019c565b806395690936116100c6578063956909361461041b57806399c8d55614610446578063b28aaaa414610471578063bc2837fe1461049c5761019c565b8063831a03841461039a578063947a36fb146103c557806394a4d074146103f05761019c565b80634b307f801161015957806361bc221a1161013357806361bc221a146102f85780636e4d243a1461032357806372a38d2d1461033a5780637fed27d51461037e5761019c565b80634b307f801461028b5780635159dcf3146102a257806358b95769146102cd5761019c565b8063085634ec146101a15780631a5d4cf6146101b85780631fe543e3146101e35780633e45c8af1461020c5780633f3b3b27146102355780634a73112214610260575b600080fd5b3480156101ad57600080fd5b506101b6610643565b005b3480156101c457600080fd5b506101cd6106cf565b6040516101da9190613a7b565b60405180910390f35b3480156101ef57600080fd5b5061020a60048036038101906102059190613c25565b610853565b005b34801561021857600080fd5b50610233600480360381019061022e9190613c81565b610913565b005b34801561024157600080fd5b5061024a610977565b6040516102579190613cbd565b60405180910390f35b34801561026c57600080fd5b5061027561097d565b6040516102829190613cf3565b60405180910390f35b34801561029757600080fd5b506102a0610990565b005b3480156102ae57600080fd5b506102b7610abb565b6040516102c49190613cbd565b60405180910390f35b3480156102d957600080fd5b506102e2610ac1565b6040516102ef9190613cbd565b60405180910390f35b34801561030457600080fd5b5061030d610ac7565b60405161031a9190613cbd565b60405180910390f35b34801561032f57600080fd5b50610338610acd565b005b34801561034657600080fd5b50610361600480360381019061035c9190613c81565b610bba565b604051610375989796959493929190613d67565b60405180910390f35b61039860048036038101906103939190613dec565b610cba565b005b3480156103a657600080fd5b506103af61109c565b6040516103bc9190613cbd565b60405180910390f35b3480156103d157600080fd5b506103da6110a2565b6040516103e79190613cbd565b60405180910390f35b3480156103fc57600080fd5b506104056110a8565b6040516104129190613e35565b60405180910390f35b34801561042757600080fd5b50610430611136565b60405161043d9190613f06565b60405180910390f35b34801561045257600080fd5b5061045b6111c4565b6040516104689190613cbd565b60405180910390f35b34801561047d57600080fd5b506104866111ca565b6040516104939190613cbd565b60405180910390f35b3480156104a857600080fd5b506104c360048036038101906104be9190613c81565b6111d0565b6040516104d09190613cbd565b60405180910390f35b3480156104e557600080fd5b5061050060048036038101906104fb9190613c81565b6111f4565b60405161050d9190613f28565b60405180910390f35b34801561052257600080fd5b5061052b611233565b6040516105389190613cf3565b60405180910390f35b34801561054d57600080fd5b50610556611246565b6040516105639190613cbd565b60405180910390f35b34801561057857600080fd5b50610593600480360381019061058e9190613c81565b61124c565b6040516105a7989796959493929190613d67565b60405180910390f35b3480156105bc57600080fd5b506105c561134c565b6040516105d29190613cbd565b60405180910390f35b3480156105e757600080fd5b5061060260048036038101906105fd9190613c81565b611352565b60405161060f9190613cbd565b60405180910390f35b34801561062457600080fd5b5061062d611376565b60405161063a9190613f28565b60405180910390f35b600160009054906101000a900473ffffffffffffffffffffffffffffffffffffffff1673ffffffffffffffffffffffffffffffffffffffff163373ffffffffffffffffffffffffffffffffffffffff161461069d57600080fd5b6000601e60009054906101000a900460ff1690508015601e60006101000a81548160ff02191690831515021790555050565b60606002805480602002602001604051908101604052809291908181526020016000905b8282101561084a5783829060005260206000209060080201604051806101000160405290816000820160009054906101000a900473ffffffffffffffffffffffffffffffffffffffff1673ffffffffffffffffffffffffffffffffffffffff1673ffffffffffffffffffffffffffffffffffffffff16815260200160018201805461077d90613f72565b80601f01602080910402602001604051908101604052809291908181526020018280546107a990613f72565b80156107f65780601f106107cb576101008083540402835291602001916107f6565b820191906000526020600020905b8154815290600101906020018083116107d957829003601f168201915b505050505081526020016002820154815260200160038201548152602001600482015481526020016005820154815260200160068201548152602001600782015481525050815260200190600101906106f3565b50505050905090565b7f000000000000000000000000000000000000000000000000000000000000000073ffffffffffffffffffffffffffffffffffffffff163373ffffffffffffffffffffffffffffffffffffffff161461090557337f00000000000000000000000000000000000000000000000000000000000000006040517f1cf993f40000000000000000000000000000000000000000000000000000000081526004016108fc929190613fc4565b60405180910390fd5b61090f828261139c565b5050565b600160009054906101000a900473ffffffffffffffffffffffffffffffffffffffff1673ffffffffffffffffffffffffffffffffffffffff163373ffffffffffffffffffffffffffffffffffffffff161461096d57600080fd5b80601d8190555050565b60185481565b601e60009054906101000a900460ff1681565b600160009054906101000a900473ffffffffffffffffffffffffffffffffffffffff1673ffffffffffffffffffffffffffffffffffffffff163373ffffffffffffffffffffffffffffffffffffffff16146109ea57600080fd5b6000600160009054906101000a900473ffffffffffffffffffffffffffffffffffffffff1673ffffffffffffffffffffffffffffffffffffffff1647604051610a329061401e565b60006040518083038185875af1925050503d8060008114610a6f576040519150601f19603f3d011682016040523d82523d6000602084013e610a74565b606091505b5050905080610ab8576040517f08c379a0000000000000000000000000000000000000000000000000000000008152600401610aaf9061407f565b60405180910390fd5b50565b60075481565b60065481565b601a5481565b600160009054906101000a900473ffffffffffffffffffffffffffffffffffffffff1673ffffffffffffffffffffffffffffffffffffffff163373ffffffffffffffffffffffffffffffffffffffff1614610b2757600080fd5b6001601a54610b3691906140ce565b601a8190555060195460185442610b4d9190614102565b1180610b655750601b60009054906101000a900460ff165b15610bb857601b60009054906101000a900460ff1615610ba7576000601b60006101000a81548160ff021916908315150217905550610ba26115ca565b610bb7565b42601881905550610bb6613074565b5b5b565b60038181548110610bca57600080fd5b90600052602060002090600802016000915090508060000160009054906101000a900473ffffffffffffffffffffffffffffffffffffffff1690806001018054610c1390613f72565b80601f0160208091040260200160405190810160405280929190818152602001828054610c3f90613f72565b8015610c8c5780601f10610c6157610100808354040283529160200191610c8c565b820191906000526020600020905b815481529060010190602001808311610c6f57829003601f168201915b5050505050908060020154908060030154908060040154908060050154908060060154908060070154905088565b600060068251610cca9190614165565b905066038d7ea4c6800081610cdf9190614196565b3411610cea57600080fd5b60005b81811015611090576000600682610d049190614196565b90506000610d2b858381518110610d1e57610d1d6141d8565b5b602002602001015161316c565b90506000610d5e86600185610d4091906140ce565b81518110610d5157610d506141d8565b5b602002602001015161316c565b90506000610d9187600286610d7391906140ce565b81518110610d8457610d836141d8565b5b602002602001015161316c565b90506000610dc488600387610da691906140ce565b81518110610db757610db66141d8565b5b602002602001015161316c565b90506000610df789600488610dd991906140ce565b81518110610dea57610de96141d8565b5b602002602001015161316c565b90506000610e2a8a600589610e0c91906140ce565b81518110610e1d57610e1c6141d8565b5b602002602001015161316c565b9050610e3461345e565b33816000019073ffffffffffffffffffffffffffffffffffffffff16908173ffffffffffffffffffffffffffffffffffffffff1681525050610e7a8787878787876132f4565b81602001819052508a8881518110610e9557610e946141d8565b5b60200260200101518160400181815250508a600189610eb491906140ce565b81518110610ec557610ec46141d8565b5b60200260200101518160600181815250508a600289610ee491906140ce565b81518110610ef557610ef46141d8565b5b60200260200101518160800181815250508a600389610f1491906140ce565b81518110610f2557610f246141d8565b5b60200260200101518160a00181815250508a600489610f4491906140ce565b81518110610f5557610f546141d8565b5b60200260200101518160c00181815250508a600589610f7491906140ce565b81518110610f8557610f846141d8565b5b60200260200101518160e0018181525050600281908060018154018082558091505060019003906000526020600020906008020160009091909190915060008201518160000160006101000a81548173ffffffffffffffffffffffffffffffffffffffff021916908373ffffffffffffffffffffffffffffffffffffffff160217905550602082015181600101908161101e91906143b3565b5060408201518160020155606082015181600301556080820151816004015560a0820151816005015560c0820151816006015560e0820151816007015550506008600081548092919061107090614485565b91905055505050505050505050808061108890614485565b915050610ced565b50476006819055505050565b60135481565b60195481565b600480546110b590613f72565b80601f01602080910402602001604051908101604052809291908181526020018280546110e190613f72565b801561112e5780601f106111035761010080835404028352916020019161112e565b820191906000526020600020905b81548152906001019060200180831161111157829003601f168201915b505050505081565b606060058054806020026020016040519081016040528092919081815260200182805480156111ba57602002820191906000526020600020905b8160009054906101000a900473ffffffffffffffffffffffffffffffffffffffff1673ffffffffffffffffffffffffffffffffffffffff1681526020019060010190808311611170575b5050505050905090565b601d5481565b60085481565b601481815481106111e057600080fd5b906000526020600020016000915090505481565b6005818154811061120457600080fd5b906000526020600020016000915054906101000a900473ffffffffffffffffffffffffffffffffffffffff1681565b601b60009054906101000a900460ff1681565b601c5481565b6002818154811061125c57600080fd5b90600052602060002090600802016000915090508060000160009054906101000a900473ffffffffffffffffffffffffffffffffffffffff16908060010180546112a590613f72565b80601f01602080910402602001604051908101604052809291908181526020018280546112d190613f72565b801561131e5780601f106112f35761010080835404028352916020019161131e565b820191906000526020600020905b81548152906001019060200180831161130157829003601f168201915b5050505050908060020154908060030154908060040154908060050154908060060154908060070154905088565b60165481565b6015818154811061136257600080fd5b906000526020600020016000915090505481565b600160009054906101000a900473ffffffffffffffffffffffffffffffffffffffff1681565b60006001603c836000815181106113b6576113b56141d8565b5b60200260200101516113c891906144cd565b6113d291906140ce565b905060006001603c846001815181106113ee576113ed6141d8565b5b602002602001015161140091906144cd565b61140a91906140ce565b905060006001603c85600281518110611426576114256141d8565b5b602002602001015161143891906144cd565b61144291906140ce565b905060006001603c8660038151811061145e5761145d6141d8565b5b602002602001015161147091906144cd565b61147a91906140ce565b905060006001603c87600481518110611496576114956141d8565b5b60200260200101516114a891906144cd565b6114b291906140ce565b905060006001603c886005815181106114ce576114cd6141d8565b5b60200260200101516114e091906144cd565b6114ea91906140ce565b9050848614806114f957508386145b8061150357508286145b8061150d57508186145b8061151757508086145b8061152157508385145b8061152b57508285145b8061153557508185145b8061153f57508085145b8061154957508284145b8061155357508184145b8061155d57508084145b8061156757508183145b8061157157508083145b8061157b57508082145b1561158d57611588613074565b6115c0565b86601590805190602001906115a39291906134b9565b506001601b60006101000a81548160ff0219169083151502179055505b5050505050505050565b6115d261345e565b60006116146001603c60156000815481106115f0576115ef6141d8565b5b906000526020600020015461160591906144cd565b61160f91906140ce565b61316c565b905060006116586001603c6015600181548110611634576116336141d8565b5b906000526020600020015461164991906144cd565b61165391906140ce565b61316c565b9050600061169c6001603c6015600281548110611678576116776141d8565b5b906000526020600020015461168d91906144cd565b61169791906140ce565b61316c565b905060006116e06001603c60156003815481106116bc576116bb6141d8565b5b90600052602060002001546116d191906144cd565b6116db91906140ce565b61316c565b905060006117246001603c6015600481548110611700576116ff6141d8565b5b906000526020600020015461171591906144cd565b61171f91906140ce565b61316c565b905060006117686001603c6015600581548110611744576117436141d8565b5b906000526020600020015461175991906144cd565b61176391906140ce565b61316c565b90506117788686868686866132f4565b87602001819052506001603c6015600081548110611799576117986141d8565b5b90600052602060002001546117ae91906144cd565b6117b891906140ce565b8760400181815250506001603c60156001815481106117da576117d96141d8565b5b90600052602060002001546117ef91906144cd565b6117f991906140ce565b8760600181815250506001603c601560028154811061181b5761181a6141d8565b5b906000526020600020015461183091906144cd565b61183a91906140ce565b8760800181815250506001603c601560038154811061185c5761185b6141d8565b5b906000526020600020015461187191906144cd565b61187b91906140ce565b8760a00181815250506001603c601560048154811061189d5761189c6141d8565b5b90600052602060002001546118b291906144cd565b6118bc91906140ce565b8760c00181815250506001603c60156005815481106118de576118dd6141d8565b5b90600052602060002001546118f391906144cd565b6118fd91906140ce565b8760e00181815250506000600a90506000600b90506000600c90506000600d90506000600e90506000600f9050600047905060005b60085481101561264e5760008f6040015160028381548110611957576119566141d8565b5b9060005260206000209060080201600201540361197d57808061197990614485565b9150505b8f6060015160028381548110611996576119956141d8565b5b906000526020600020906008020160020154036119bc5780806119b890614485565b9150505b8f60800151600283815481106119d5576119d46141d8565b5b906000526020600020906008020160020154036119fb5780806119f790614485565b9150505b8f60a0015160028381548110611a1457611a136141d8565b5b90600052602060002090600802016002015403611a3a578080611a3690614485565b9150505b8f60c0015160028381548110611a5357611a526141d8565b5b90600052602060002090600802016002015403611a79578080611a7590614485565b9150505b8f60e0015160028381548110611a9257611a916141d8565b5b90600052602060002090600802016002015403611ab8578080611ab490614485565b9150505b8f6040015160028381548110611ad157611ad06141d8565b5b90600052602060002090600802016003015403611af7578080611af390614485565b9150505b8f6060015160028381548110611b1057611b0f6141d8565b5b90600052602060002090600802016003015403611b36578080611b3290614485565b9150505b8f6080015160028381548110611b4f57611b4e6141d8565b5b90600052602060002090600802016003015403611b75578080611b7190614485565b9150505b8f60a0015160028381548110611b8e57611b8d6141d8565b5b90600052602060002090600802016003015403611bb4578080611bb090614485565b9150505b8f60c0015160028381548110611bcd57611bcc6141d8565b5b90600052602060002090600802016003015403611bf3578080611bef90614485565b9150505b8f60e0015160028381548110611c0c57611c0b6141d8565b5b90600052602060002090600802016003015403611c32578080611c2e90614485565b9150505b8f6040015160028381548110611c4b57611c4a6141d8565b5b90600052602060002090600802016004015403611c71578080611c6d90614485565b9150505b8f6060015160028381548110611c8a57611c896141d8565b5b90600052602060002090600802016004015403611cb0578080611cac90614485565b9150505b8f6080015160028381548110611cc957611cc86141d8565b5b90600052602060002090600802016004015403611cef578080611ceb90614485565b9150505b8f60a0015160028381548110611d0857611d076141d8565b5b90600052602060002090600802016004015403611d2e578080611d2a90614485565b9150505b8f60c0015160028381548110611d4757611d466141d8565b5b90600052602060002090600802016004015403611d6d578080611d6990614485565b9150505b8f60e0015160028381548110611d8657611d856141d8565b5b90600052602060002090600802016004015403611dac578080611da890614485565b9150505b8f6040015160028381548110611dc557611dc46141d8565b5b90600052602060002090600802016005015403611deb578080611de790614485565b9150505b8f6060015160028381548110611e0457611e036141d8565b5b90600052602060002090600802016005015403611e2a578080611e2690614485565b9150505b8f6080015160028381548110611e4357611e426141d8565b5b90600052602060002090600802016005015403611e69578080611e6590614485565b9150505b8f60a0015160028381548110611e8257611e816141d8565b5b90600052602060002090600802016005015403611ea8578080611ea490614485565b9150505b8f60c0015160028381548110611ec157611ec06141d8565b5b90600052602060002090600802016005015403611ee7578080611ee390614485565b9150505b8f60e0015160028381548110611f0057611eff6141d8565b5b90600052602060002090600802016005015403611f26578080611f2290614485565b9150505b8f6040015160028381548110611f3f57611f3e6141d8565b5b90600052602060002090600802016006015403611f65578080611f6190614485565b9150505b8f6060015160028381548110611f7e57611f7d6141d8565b5b90600052602060002090600802016006015403611fa4578080611fa090614485565b9150505b8f6080015160028381548110611fbd57611fbc6141d8565b5b90600052602060002090600802016006015403611fe3578080611fdf90614485565b9150505b8f60a0015160028381548110611ffc57611ffb6141d8565b5b9060005260206000209060080201600601540361202257808061201e90614485565b9150505b8f60c001516002838154811061203b5761203a6141d8565b5b9060005260206000209060080201600601540361206157808061205d90614485565b9150505b8f60e001516002838154811061207a576120796141d8565b5b906000526020600020906008020160060154036120a057808061209c90614485565b9150505b8f60400151600283815481106120b9576120b86141d8565b5b906000526020600020906008020160070154036120df5780806120db90614485565b9150505b8f60600151600283815481106120f8576120f76141d8565b5b9060005260206000209060080201600701540361211e57808061211a90614485565b9150505b8f6080015160028381548110612137576121366141d8565b5b9060005260206000209060080201600701540361215d57808061215990614485565b9150505b8f60a0015160028381548110612176576121756141d8565b5b9060005260206000209060080201600701540361219c57808061219890614485565b9150505b8f60c00151600283815481106121b5576121b46141d8565b5b906000526020600020906008020160070154036121db5780806121d790614485565b9150505b8f60e00151600283815481106121f4576121f36141d8565b5b9060005260206000209060080201600701540361221a57808061221690614485565b9150505b600181036122ca578860028381548110612237576122366141d8565b5b906000526020600020906008020160000160009054906101000a900473ffffffffffffffffffffffffffffffffffffffff169080600181540180825580915050600190039060005260206000200160009091909190916101000a81548173ffffffffffffffffffffffffffffffffffffffff021916908373ffffffffffffffffffffffffffffffffffffffff1602179055505b6002810361237a5787600283815481106122e7576122e66141d8565b5b906000526020600020906008020160000160009054906101000a900473ffffffffffffffffffffffffffffffffffffffff169080600181540180825580915050600190039060005260206000200160009091909190916101000a81548173ffffffffffffffffffffffffffffffffffffffff021916908373ffffffffffffffffffffffffffffffffffffffff1602179055505b6003810361242a578660028381548110612397576123966141d8565b5b906000526020600020906008020160000160009054906101000a900473ffffffffffffffffffffffffffffffffffffffff169080600181540180825580915050600190039060005260206000200160009091909190916101000a81548173ffffffffffffffffffffffffffffffffffffffff021916908373ffffffffffffffffffffffffffffffffffffffff1602179055505b600481036124da578560028381548110612447576124466141d8565b5b906000526020600020906008020160000160009054906101000a900473ffffffffffffffffffffffffffffffffffffffff169080600181540180825580915050600190039060005260206000200160009091909190916101000a81548173ffffffffffffffffffffffffffffffffffffffff021916908373ffffffffffffffffffffffffffffffffffffffff1602179055505b6005810361258a5784600283815481106124f7576124f66141d8565b5b906000526020600020906008020160000160009054906101000a900473ffffffffffffffffffffffffffffffffffffffff169080600181540180825580915050600190039060005260206000200160009091909190916101000a81548173ffffffffffffffffffffffffffffffffffffffff021916908373ffffffffffffffffffffffffffffffffffffffff1602179055505b6006810361263a5783600283815481106125a7576125a66141d8565b5b906000526020600020906008020160000160009054906101000a900473ffffffffffffffffffffffffffffffffffffffff169080600181540180825580915050600190039060005260206000200160009091909190916101000a81548173ffffffffffffffffffffffffffffffffffffffff021916908373ffffffffffffffffffffffffffffffffffffffff1602179055505b50808061264690614485565b915050611932565b50600160009054906101000a900473ffffffffffffffffffffffffffffffffffffffff1673ffffffffffffffffffffffffffffffffffffffff166108fc601d54836126999190614165565b9081150290604051600060405180830381858888f193505050501580156126c4573d6000803e3d6000fd5b506000828054905011156128465760005b82805490508110156127ad578281815481106126f4576126f36141d8565b5b9060005260206000200160009054906101000a900473ffffffffffffffffffffffffffffffffffffffff1673ffffffffffffffffffffffffffffffffffffffff166108fc601d54858054905061274a9190614196565b6001601d546127599190614102565b856127649190614196565b61276e9190614165565b9081150290604051600060405180830381858888f19350505050158015612799573d6000803e3d6000fd5b5080806127a590614485565b9150506126d5565b506128418e602001518380548060200260200160405190810160405280929190818152602001828054801561283757602002820191906000526020600020905b8160009054906101000a900473ffffffffffffffffffffffffffffffffffffffff1673ffffffffffffffffffffffffffffffffffffffff16815260200190600101908083116127ed575b5050505050613371565b613064565b6000838054905011156129c75760005b838054905081101561292e57838181548110612875576128746141d8565b5b9060005260206000200160009054906101000a900473ffffffffffffffffffffffffffffffffffffffff1673ffffffffffffffffffffffffffffffffffffffff166108fc601d5486805490506128cb9190614196565b6001601d546128da9190614102565b856128e59190614196565b6128ef9190614165565b9081150290604051600060405180830381858888f1935050505015801561291a573d6000803e3d6000fd5b50808061292690614485565b915050612856565b506129c28e60200151848054806020026020016040519081016040528092919081815260200182805480156129b857602002820191906000526020600020905b8160009054906101000a900473ffffffffffffffffffffffffffffffffffffffff1673ffffffffffffffffffffffffffffffffffffffff168152602001906001019080831161296e575b5050505050613371565b613063565b600084805490501115612b485760005b8480549050811015612aaf578481815481106129f6576129f56141d8565b5b9060005260206000200160009054906101000a900473ffffffffffffffffffffffffffffffffffffffff1673ffffffffffffffffffffffffffffffffffffffff166108fc601d548780549050612a4c9190614196565b6001601d54612a5b9190614102565b85612a669190614196565b612a709190614165565b9081150290604051600060405180830381858888f19350505050158015612a9b573d6000803e3d6000fd5b508080612aa790614485565b9150506129d7565b50612b438e6020015185805480602002602001604051908101604052809291908181526020018280548015612b3957602002820191906000526020600020905b8160009054906101000a900473ffffffffffffffffffffffffffffffffffffffff1673ffffffffffffffffffffffffffffffffffffffff1681526020019060010190808311612aef575b5050505050613371565b613062565b600085805490501115612cc95760005b8580549050811015612c3057858181548110612b7757612b766141d8565b5b9060005260206000200160009054906101000a900473ffffffffffffffffffffffffffffffffffffffff1673ffffffffffffffffffffffffffffffffffffffff166108fc601d548880549050612bcd9190614196565b6001601d54612bdc9190614102565b85612be79190614196565b612bf19190614165565b9081150290604051600060405180830381858888f19350505050158015612c1c573d6000803e3d6000fd5b508080612c2890614485565b915050612b58565b50612cc48e6020015186805480602002602001604051908101604052809291908181526020018280548015612cba57602002820191906000526020600020905b8160009054906101000a900473ffffffffffffffffffffffffffffffffffffffff1673ffffffffffffffffffffffffffffffffffffffff1681526020019060010190808311612c70575b5050505050613371565b613061565b600086805490501115612e4a5760005b8680549050811015612db157868181548110612cf857612cf76141d8565b5b9060005260206000200160009054906101000a900473ffffffffffffffffffffffffffffffffffffffff1673ffffffffffffffffffffffffffffffffffffffff166108fc601d548980549050612d4e9190614196565b6001601d54612d5d9190614102565b85612d689190614196565b612d729190614165565b9081150290604051600060405180830381858888f19350505050158015612d9d573d6000803e3d6000fd5b508080612da990614485565b915050612cd9565b50612e458e6020015187805480602002602001604051908101604052809291908181526020018280548015612e3b57602002820191906000526020600020905b8160009054906101000a900473ffffffffffffffffffffffffffffffffffffffff1673ffffffffffffffffffffffffffffffffffffffff1681526020019060010190808311612df1575b5050505050613371565b613060565b600087805490501115612fcb5760005b8780549050811015612f3257878181548110612e7957612e786141d8565b5b9060005260206000200160009054906101000a900473ffffffffffffffffffffffffffffffffffffffff1673ffffffffffffffffffffffffffffffffffffffff166108fc601d548a80549050612ecf9190614196565b6001601d54612ede9190614102565b85612ee99190614196565b612ef39190614165565b9081150290604051600060405180830381858888f19350505050158015612f1e573d6000803e3d6000fd5b508080612f2a90614485565b915050612e5a565b50612fc68e6020015188805480602002602001604051908101604052809291908181526020018280548015612fbc57602002820191906000526020600020905b8160009054906101000a900473ffffffffffffffffffffffffffffffffffffffff1673ffffffffffffffffffffffffffffffffffffffff1681526020019060010190808311612f72575b5050505050613371565b61305f565b61305e8e602001518880548060200260200160405190810160405280929190818152602001828054801561305457602002820191906000526020600020905b8160009054906101000a900473ffffffffffffffffffffffffffffffffffffffff1673ffffffffffffffffffffffffffffffffffffffff168152602001906001019080831161300a575b5050505050613371565b5b5b5b5b5b5b5050505050505050505050505050565b60008054906101000a900473ffffffffffffffffffffffffffffffffffffffff1673ffffffffffffffffffffffffffffffffffffffff16635d3b1d30601154601060009054906101000a900467ffffffffffffffff16601260049054906101000a900461ffff16601260009054906101000a900463ffffffff16601260069054906101000a900463ffffffff166040518663ffffffff1660e01b8152600401613121959493929190614576565b6020604051808303816000875af1158015613140573d6000803e3d6000fd5b505050506040513d601f19601f8201168201806040525081019061316491906145de565b601681905550565b6060600082036131b3576040518060400160405280600181526020017f300000000000000000000000000000000000000000000000000000000000000081525090506132ef565b600082905060005b600082146131e55780806131ce90614485565b915050600a826131de9190614165565b91506131bb565b60008167ffffffffffffffff81111561320157613200613ae2565b5b6040519080825280601f01601f1916602001820160405280156132335781602001600182028036833780820191505090505b50905060008290505b600086146132e7576001816132519190614102565b90506000600a80886132639190614165565b61326d9190614196565b876132789190614102565b60306132849190614618565b905060008160f81b9050808484815181106132a2576132a16141d8565b5b60200101907effffffffffffffffffffffffffffffffffffffffffffffffffffffffffffff1916908160001a905350600a886132de9190614165565b9750505061323c565b819450505050505b919050565b606060006040518060400160405280600181526020017f2c0000000000000000000000000000000000000000000000000000000000000081525090508781888389858a878b898c6040516020016133559b9a99989796959493929190614689565b6040516020818303038152906040529150509695505050505050565b8060059080519060200190613387929190613506565b50816004908161339791906143b3565b5047600681905550600360029080546133b1929190613590565b5060006008819055506000601c5490506001816133ce91906140ce565b601c819055506009600a9080546133e69291906136a0565b506009600b9080546133f99291906136a0565b506009600c90805461340c9291906136a0565b506009600d90805461341f9291906136a0565b506009600e9080546134329291906136a0565b506009600f9080546134459291906136a0565b50601460159080546134589291906136f2565b50505050565b604051806101000160405280600073ffffffffffffffffffffffffffffffffffffffff168152602001606081526020016000815260200160008152602001600081526020016000815260200160008152602001600081525090565b8280548282559060005260206000209081019282156134f5579160200282015b828111156134f45782518255916020019190600101906134d9565b5b5090506135029190613744565b5090565b82805482825590600052602060002090810192821561357f579160200282015b8281111561357e5782518260006101000a81548173ffffffffffffffffffffffffffffffffffffffff021916908373ffffffffffffffffffffffffffffffffffffffff16021790555091602001919060010190613526565b5b50905061358c9190613744565b5090565b82805482825590600052602060002090600802810192821561368f5760005260206000209160080282015b8281111561368e5782826000820160009054906101000a900473ffffffffffffffffffffffffffffffffffffffff168160000160006101000a81548173ffffffffffffffffffffffffffffffffffffffff021916908373ffffffffffffffffffffffffffffffffffffffff160217905550600182018160010190816136409190614738565b506002820154816002015560038201548160030155600482015481600401556005820154816005015560068201548160060155600782015481600701555050916008019190600801906135bb565b5b50905061369c9190613761565b5090565b8280548282559060005260206000209081019282156136e15760005260206000209182015b828111156136e05782548255916001019190600101906136c5565b5b5090506136ee9190613744565b5090565b8280548282559060005260206000209081019282156137335760005260206000209182015b82811115613732578254825591600101919060010190613717565b5b5090506137409190613744565b5090565b5b8082111561375d576000816000905550600101613745565b5090565b5b808211156137db57600080820160006101000a81549073ffffffffffffffffffffffffffffffffffffffff02191690556001820160006137a291906137df565b60028201600090556003820160009055600482016000905560058201600090556006820160009055600782016000905550600801613762565b5090565b5080546137eb90613f72565b6000825580601f106137fd575061381c565b601f01602090049060005260206000209081019061381b9190613744565b5b50565b600081519050919050565b600082825260208201905092915050565b6000819050602082019050919050565b600073ffffffffffffffffffffffffffffffffffffffff82169050919050565b60006138768261384b565b9050919050565b6138868161386b565b82525050565b600081519050919050565b600082825260208201905092915050565b60005b838110156138c65780820151818401526020810190506138ab565b60008484015250505050565b6000601f19601f8301169050919050565b60006138ee8261388c565b6138f88185613897565b93506139088185602086016138a8565b613911816138d2565b840191505092915050565b6000819050919050565b61392f8161391c565b82525050565b60006101008301600083015161394e600086018261387d565b506020830151848203602086015261396682826138e3565b915050604083015161397b6040860182613926565b50606083015161398e6060860182613926565b5060808301516139a16080860182613926565b5060a08301516139b460a0860182613926565b5060c08301516139c760c0860182613926565b5060e08301516139da60e0860182613926565b508091505092915050565b60006139f18383613935565b905092915050565b6000602082019050919050565b6000613a118261381f565b613a1b818561382a565b935083602082028501613a2d8561383b565b8060005b85811015613a695784840389528151613a4a85826139e5565b9450613a55836139f9565b925060208a01995050600181019050613a31565b50829750879550505050505092915050565b60006020820190508181036000830152613a958184613a06565b905092915050565b6000604051905090565b600080fd5b600080fd5b613aba8161391c565b8114613ac557600080fd5b50565b600081359050613ad781613ab1565b92915050565b600080fd5b7f4e487b7100000000000000000000000000000000000000000000000000000000600052604160045260246000fd5b613b1a826138d2565b810181811067ffffffffffffffff82111715613b3957613b38613ae2565b5b80604052505050565b6000613b4c613a9d565b9050613b588282613b11565b919050565b600067ffffffffffffffff821115613b7857613b77613ae2565b5b602082029050602081019050919050565b600080fd5b6000613ba1613b9c84613b5d565b613b42565b90508083825260208201905060208402830185811115613bc457613bc3613b89565b5b835b81811015613bed5780613bd98882613ac8565b845260208401935050602081019050613bc6565b5050509392505050565b600082601f830112613c0c57613c0b613add565b5b8135613c1c848260208601613b8e565b91505092915050565b60008060408385031215613c3c57613c3b613aa7565b5b6000613c4a85828601613ac8565b925050602083013567ffffffffffffffff811115613c6b57613c6a613aac565b5b613c7785828601613bf7565b9150509250929050565b600060208284031215613c9757613c96613aa7565b5b6000613ca584828501613ac8565b91505092915050565b613cb78161391c565b82525050565b6000602082019050613cd26000830184613cae565b92915050565b60008115159050919050565b613ced81613cd8565b82525050565b6000602082019050613d086000830184613ce4565b92915050565b613d178161386b565b82525050565b600082825260208201905092915050565b6000613d398261388c565b613d438185613d1d565b9350613d538185602086016138a8565b613d5c816138d2565b840191505092915050565b600061010082019050613d7d600083018b613d0e565b8181036020830152613d8f818a613d2e565b9050613d9e6040830189613cae565b613dab6060830188613cae565b613db86080830187613cae565b613dc560a0830186613cae565b613dd260c0830185613cae565b613ddf60e0830184613cae565b9998505050505050505050565b600060208284031215613e0257613e01613aa7565b5b600082013567ffffffffffffffff811115613e2057613e1f613aac565b5b613e2c84828501613bf7565b91505092915050565b60006020820190508181036000830152613e4f8184613d2e565b905092915050565b600081519050919050565b600082825260208201905092915050565b6000819050602082019050919050565b6000613e8f838361387d565b60208301905092915050565b6000602082019050919050565b6000613eb382613e57565b613ebd8185613e62565b9350613ec883613e73565b8060005b83811015613ef9578151613ee08882613e83565b9750613eeb83613e9b565b925050600181019050613ecc565b5085935050505092915050565b60006020820190508181036000830152613f208184613ea8565b905092915050565b6000602082019050613f3d6000830184613d0e565b92915050565b7f4e487b7100000000000000000000000000000000000000000000000000000000600052602260045260246000fd5b60006002820490506001821680613f8a57607f821691505b602082108103613f9d57613f9c613f43565b5b50919050565b6000613fae8261384b565b9050919050565b613fbe81613fa3565b82525050565b6000604082019050613fd96000830185613fb5565b613fe66020830184613fb5565b9392505050565b600081905092915050565b50565b6000614008600083613fed565b915061401382613ff8565b600082019050919050565b600061402982613ffb565b9150819050919050565b7f4661696c656420746f2073656e64204574686572000000000000000000000000600082015250565b6000614069601483613d1d565b915061407482614033565b602082019050919050565b600060208201905081810360008301526140988161405c565b9050919050565b7f4e487b7100000000000000000000000000000000000000000000000000000000600052601160045260246000fd5b60006140d98261391c565b91506140e48361391c565b92508282019050808211156140fc576140fb61409f565b5b92915050565b600061410d8261391c565b91506141188361391c565b92508282039050818111156141305761412f61409f565b5b92915050565b7f4e487b7100000000000000000000000000000000000000000000000000000000600052601260045260246000fd5b60006141708261391c565b915061417b8361391c565b92508261418b5761418a614136565b5b828204905092915050565b60006141a18261391c565b91506141ac8361391c565b92508282026141ba8161391c565b915082820484148315176141d1576141d061409f565b5b5092915050565b7f4e487b7100000000000000000000000000000000000000000000000000000000600052603260045260246000fd5b60008190508160005260206000209050919050565b60006020601f8301049050919050565b600082821b905092915050565b6000600883026142697fffffffffffffffffffffffffffffffffffffffffffffffffffffffffffffffff8261422c565b614273868361422c565b95508019841693508086168417925050509392505050565b6000819050919050565b60006142b06142ab6142a68461391c565b61428b565b61391c565b9050919050565b6000819050919050565b6142ca83614295565b6142de6142d6826142b7565b848454614239565b825550505050565b600090565b6142f36142e6565b6142fe8184846142c1565b505050565b5b81811015614322576143176000826142eb565b600181019050614304565b5050565b601f8211156143675761433881614207565b6143418461421c565b81016020851015614350578190505b61436461435c8561421c565b830182614303565b50505b505050565b600082821c905092915050565b600061438a6000198460080261436c565b1980831691505092915050565b60006143a38383614379565b9150826002028217905092915050565b6143bc8261388c565b67ffffffffffffffff8111156143d5576143d4613ae2565b5b6143df8254613f72565b6143ea828285614326565b600060209050601f83116001811461441d576000841561440b578287015190505b6144158582614397565b86555061447d565b601f19841661442b86614207565b60005b828110156144535784890151825560018201915060208501945060208101905061442e565b86831015614470578489015161446c601f891682614379565b8355505b6001600288020188555050505b505050505050565b60006144908261391c565b91507fffffffffffffffffffffffffffffffffffffffffffffffffffffffffffffffff82036144c2576144c161409f565b5b600182019050919050565b60006144d88261391c565b91506144e38361391c565b9250826144f3576144f2614136565b5b828206905092915050565b6000819050919050565b614511816144fe565b82525050565b600067ffffffffffffffff82169050919050565b61453481614517565b82525050565b600061ffff82169050919050565b6145518161453a565b82525050565b600063ffffffff82169050919050565b61457081614557565b82525050565b600060a08201905061458b6000830188614508565b614598602083018761452b565b6145a56040830186614548565b6145b26060830185614567565b6145bf6080830184614567565b9695505050505050565b6000815190506145d881613ab1565b92915050565b6000602082840312156145f4576145f3613aa7565b5b6000614602848285016145c9565b91505092915050565b600060ff82169050919050565b60006146238261460b565b915061462e8361460b565b9250828201905060ff8111156146475761464661409f565b5b92915050565b600081905092915050565b60006146638261388c565b61466d818561464d565b935061467d8185602086016138a8565b80840191505092915050565b6000614695828e614658565b91506146a1828d614658565b91506146ad828c614658565b91506146b9828b614658565b91506146c5828a614658565b91506146d18289614658565b91506146dd8288614658565b91506146e98287614658565b91506146f58286614658565b91506147018285614658565b915061470d8284614658565b91508190509c9b505050505050505050505050565b60008154905061473181613f72565b9050919050565b81810361474657505061481e565b61474f82614722565b67ffffffffffffffff81111561476857614767613ae2565b5b6147728254613f72565b61477d828285614326565b6000601f8311600181146147ac576000841561479a578287015490505b6147a48582614397565b865550614817565b601f1984166147ba87614207565b96506147c586614207565b60005b828110156147ed578489015482556001820191506001850194506020810190506147c8565b8683101561480a5784890154614806601f891682614379565b8355505b6001600288020188555050505b5050505050505b56fea264697066735822122034176ba44d6b0ddb31c18b6832d09c13a0989be07c38935dfab0b02b8e7da1ca64736f6c63430008110033",
  "linkReferences": {},
  "deployedLinkReferences": {}
}