{"contracts/Lottery.sol":{"Lottery":{"abi":[{"inputs":[],"stateMutability":"nonpayable","type":"constructor"},{"inputs":[{"internalType":"address","name":"have","type":"address"},{"internalType":"address","name":"want","type":"address"}],"name":"OnlyCoordinatorCanFulfill","type":"error"},{"inputs":[],"name":"adminAddress","outputs":[{"internalType":"address payable","name":"","type":"address"}],"stateMutability":"view","type":"function"},{"inputs":[],"name":"changeStatus","outputs":[],"stateMutability":"nonpayable","type":"function"},{"inputs":[{"internalType":"uint256","name":"number","type":"uint256"}],"name":"changeTax","outputs":[],"stateMutability":"nonpayable","type":"function"},{"inputs":[],"name":"clearContract","outputs":[],"stateMutability":"nonpayable","type":"function"},{"inputs":[],"name":"counter","outputs":[{"internalType":"uint256","name":"","type":"uint256"}],"stateMutability":"view","type":"function"},{"inputs":[],"name":"drawNumber","outputs":[{"internalType":"uint256","name":"","type":"uint256"}],"stateMutability":"view","type":"function"},{"inputs":[],"name":"drawOn","outputs":[{"internalType":"bool","name":"","type":"bool"}],"stateMutability":"view","type":"function"},{"inputs":[{"internalType":"uint256","name":"","type":"uint256"}],"name":"emptyBets","outputs":[{"internalType":"address payable","name":"playerAddress","type":"address"},{"internalType":"string","name":"betNumbers","type":"string"},{"internalType":"uint256","name":"betNumber1","type":"uint256"},{"internalType":"uint256","name":"betNumber2","type":"uint256"},{"internalType":"uint256","name":"betNumber3","type":"uint256"},{"internalType":"uint256","name":"betNumber4","type":"uint256"},{"internalType":"uint256","name":"betNumber5","type":"uint256"},{"internalType":"uint256","name":"betNumber6","type":"uint256"}],"stateMutability":"view","type":"function"},{"inputs":[{"internalType":"uint256[]","name":"_numbers","type":"uint256[]"}],"name":"enterLottery","outputs":[],"stateMutability":"payable","type":"function"},{"inputs":[],"name":"getLastWinners","outputs":[{"internalType":"address payable[]","name":"","type":"address[]"}],"stateMutability":"view","type":"function"},{"inputs":[],"name":"getloterryBets","outputs":[{"components":[{"internalType":"address payable","name":"playerAddress","type":"address"},{"internalType":"string","name":"betNumbers","type":"string"},{"internalType":"uint256","name":"betNumber1","type":"uint256"},{"internalType":"uint256","name":"betNumber2","type":"uint256"},{"internalType":"uint256","name":"betNumber3","type":"uint256"},{"internalType":"uint256","name":"betNumber4","type":"uint256"},{"internalType":"uint256","name":"betNumber5","type":"uint256"},{"internalType":"uint256","name":"betNumber6","type":"uint256"}],"internalType":"struct Lottery.Bet[]","name":"","type":"tuple[]"}],"stateMutability":"view","type":"function"},{"inputs":[],"name":"hasNumbers","outputs":[{"internalType":"bool","name":"","type":"bool"}],"stateMutability":"view","type":"function"},{"inputs":[],"name":"inRange","outputs":[{"internalType":"uint256","name":"","type":"uint256"}],"stateMutability":"view","type":"function"},{"inputs":[],"name":"interval","outputs":[{"internalType":"uint256","name":"","type":"uint256"}],"stateMutability":"view","type":"function"},{"inputs":[],"name":"lastNumbers","outputs":[{"internalType":"string","name":"","type":"string"}],"stateMutability":"view","type":"function"},{"inputs":[],"name":"lastTimeStamp","outputs":[{"internalType":"uint256","name":"","type":"uint256"}],"stateMutability":"view","type":"function"},{"inputs":[{"internalType":"uint256","name":"","type":"uint256"}],"name":"lastWinner","outputs":[{"internalType":"address payable","name":"","type":"address"}],"stateMutability":"view","type":"function"},{"inputs":[{"internalType":"uint256","name":"","type":"uint256"}],"name":"lotteryBets","outputs":[{"internalType":"address payable","name":"playerAddress","type":"address"},{"internalType":"string","name":"betNumbers","type":"string"},{"internalType":"uint256","name":"betNumber1","type":"uint256"},{"internalType":"uint256","name":"betNumber2","type":"uint256"},{"internalType":"uint256","name":"betNumber3","type":"uint256"},{"internalType":"uint256","name":"betNumber4","type":"uint256"},{"internalType":"uint256","name":"betNumber5","type":"uint256"},{"internalType":"uint256","name":"betNumber6","type":"uint256"}],"stateMutability":"view","type":"function"},{"inputs":[],"name":"lotteryBetsLen","outputs":[{"internalType":"uint256","name":"","type":"uint256"}],"stateMutability":"view","type":"function"},{"inputs":[],"name":"performUpkeep","outputs":[],"stateMutability":"nonpayable","type":"function"},{"inputs":[{"internalType":"uint256","name":"requestId","type":"uint256"},{"internalType":"uint256[]","name":"randomWords","type":"uint256[]"}],"name":"rawFulfillRandomWords","outputs":[],"stateMutability":"nonpayable","type":"function"},{"inputs":[{"internalType":"uint256","name":"","type":"uint256"}],"name":"s_empty","outputs":[{"internalType":"uint256","name":"","type":"uint256"}],"stateMutability":"view","type":"function"},{"inputs":[],"name":"s_empty_one","outputs":[{"internalType":"uint256","name":"","type":"uint256"}],"stateMutability":"view","type":"function"},{"inputs":[{"internalType":"uint256","name":"","type":"uint256"}],"name":"s_randomWords","outputs":[{"internalType":"uint256","name":"","type":"uint256"}],"stateMutability":"view","type":"function"},{"inputs":[],"name":"s_requestId","outputs":[{"internalType":"uint256","name":"","type":"uint256"}],"stateMutability":"view","type":"function"},{"inputs":[],"name":"tax","outputs":[{"internalType":"uint256","name":"","type":"uint256"}],"stateMutability":"view","type":"function"},{"inputs":[],"name":"totalInContract","outputs":[{"internalType":"uint256","name":"","type":"uint256"}],"stateMutability":"view","type":"function"}],"evm":{"bytecode":{"linkReferences":{},"object":"60a0604052732ca8e0c643bde4c2e08ab1fa0da3401adad7734d601060086101000a81548173ffffffffffffffffffffffffffffffffffffffff021916908373ffffffffffffffffffffffffffffffffffffffff1602179055507f79d3d8832d904592c0bf9818b621522c988bb8b0c05cdc3b15aea1b6e8db0c1560001b601155620493e0601260006101000a81548163ffffffff021916908363ffffffff1602179055506003601260046101000a81548161ffff021916908361ffff1602179055506006601260066101000a81548163ffffffff021916908363ffffffff1602179055503480156100f057600080fd5b50601060089054906101000a900473ffffffffffffffffffffffffffffffffffffffff168073ffffffffffffffffffffffffffffffffffffffff1660808173ffffffffffffffffffffffffffffffffffffffff16815250505033600160006101000a81548173ffffffffffffffffffffffffffffffffffffffff021916908373ffffffffffffffffffffffffffffffffffffffff1602179055504260188190555061012c601981905550601060089054906101000a900473ffffffffffffffffffffffffffffffffffffffff166000806101000a81548173ffffffffffffffffffffffffffffffffffffffff021916908373ffffffffffffffffffffffffffffffffffffffff16021790555033601760006101000a81548173ffffffffffffffffffffffffffffffffffffffff021916908373ffffffffffffffffffffffffffffffffffffffff160217905550613ec7601060006101000a81548167ffffffffffffffff021916908367ffffffffffffffff1602179055506000601a819055506002601c819055506005601d819055506000601b60006101000a81548160ff0219169083151502179055506000601e60006101000a81548160ff0219169083151502179055506080516148566102d86000396000818161085501526108a901526148566000f3fe60806040526004361061019c5760003560e01c8063831a0384116100ec578063bf9985c81161008a578063e7e9f05611610064578063e7e9f0561461056c578063e89e106a146105b0578063f6eaffc8146105db578063fc6f9468146106185761019c565b8063bf9985c8146104d9578063cb7a31a714610516578063d80ffb20146105415761019c565b806395690936116100c6578063956909361461041b57806399c8d55614610446578063b28aaaa414610471578063bc2837fe1461049c5761019c565b8063831a03841461039a578063947a36fb146103c557806394a4d074146103f05761019c565b80634b307f801161015957806361bc221a1161013357806361bc221a146102f85780636e4d243a1461032357806372a38d2d1461033a5780637fed27d51461037e5761019c565b80634b307f801461028b5780635159dcf3146102a257806358b95769146102cd5761019c565b8063085634ec146101a15780631a5d4cf6146101b85780631fe543e3146101e35780633e45c8af1461020c5780633f3b3b27146102355780634a73112214610260575b600080fd5b3480156101ad57600080fd5b506101b6610643565b005b3480156101c457600080fd5b506101cd6106cf565b6040516101da9190613a7b565b60405180910390f35b3480156101ef57600080fd5b5061020a60048036038101906102059190613c25565b610853565b005b34801561021857600080fd5b50610233600480360381019061022e9190613c81565b610913565b005b34801561024157600080fd5b5061024a610977565b6040516102579190613cbd565b60405180910390f35b34801561026c57600080fd5b5061027561097d565b6040516102829190613cf3565b60405180910390f35b34801561029757600080fd5b506102a0610990565b005b3480156102ae57600080fd5b506102b7610abb565b6040516102c49190613cbd565b60405180910390f35b3480156102d957600080fd5b506102e2610ac1565b6040516102ef9190613cbd565b60405180910390f35b34801561030457600080fd5b5061030d610ac7565b60405161031a9190613cbd565b60405180910390f35b34801561032f57600080fd5b50610338610acd565b005b34801561034657600080fd5b50610361600480360381019061035c9190613c81565b610bba565b604051610375989796959493929190613d67565b60405180910390f35b61039860048036038101906103939190613dec565b610cba565b005b3480156103a657600080fd5b506103af61109c565b6040516103bc9190613cbd565b60405180910390f35b3480156103d157600080fd5b506103da6110a2565b6040516103e79190613cbd565b60405180910390f35b3480156103fc57600080fd5b506104056110a8565b6040516104129190613e35565b60405180910390f35b34801561042757600080fd5b50610430611136565b60405161043d9190613f06565b60405180910390f35b34801561045257600080fd5b5061045b6111c4565b6040516104689190613cbd565b60405180910390f35b34801561047d57600080fd5b506104866111ca565b6040516104939190613cbd565b60405180910390f35b3480156104a857600080fd5b506104c360048036038101906104be9190613c81565b6111d0565b6040516104d09190613cbd565b60405180910390f35b3480156104e557600080fd5b5061050060048036038101906104fb9190613c81565b6111f4565b60405161050d9190613f28565b60405180910390f35b34801561052257600080fd5b5061052b611233565b6040516105389190613cf3565b60405180910390f35b34801561054d57600080fd5b50610556611246565b6040516105639190613cbd565b60405180910390f35b34801561057857600080fd5b50610593600480360381019061058e9190613c81565b61124c565b6040516105a7989796959493929190613d67565b60405180910390f35b3480156105bc57600080fd5b506105c561134c565b6040516105d29190613cbd565b60405180910390f35b3480156105e757600080fd5b5061060260048036038101906105fd9190613c81565b611352565b60405161060f9190613cbd565b60405180910390f35b34801561062457600080fd5b5061062d611376565b60405161063a9190613f28565b60405180910390f35b600160009054906101000a900473ffffffffffffffffffffffffffffffffffffffff1673ffffffffffffffffffffffffffffffffffffffff163373ffffffffffffffffffffffffffffffffffffffff161461069d57600080fd5b6000601e60009054906101000a900460ff1690508015601e60006101000a81548160ff02191690831515021790555050565b60606002805480602002602001604051908101604052809291908181526020016000905b8282101561084a5783829060005260206000209060080201604051806101000160405290816000820160009054906101000a900473ffffffffffffffffffffffffffffffffffffffff1673ffffffffffffffffffffffffffffffffffffffff1673ffffffffffffffffffffffffffffffffffffffff16815260200160018201805461077d90613f72565b80601f01602080910402602001604051908101604052809291908181526020018280546107a990613f72565b80156107f65780601f106107cb576101008083540402835291602001916107f6565b820191906000526020600020905b8154815290600101906020018083116107d957829003601f168201915b505050505081526020016002820154815260200160038201548152602001600482015481526020016005820154815260200160068201548152602001600782015481525050815260200190600101906106f3565b50505050905090565b7f000000000000000000000000000000000000000000000000000000000000000073ffffffffffffffffffffffffffffffffffffffff163373ffffffffffffffffffffffffffffffffffffffff161461090557337f00000000000000000000000000000000000000000000000000000000000000006040517f1cf993f40000000000000000000000000000000000000000000000000000000081526004016108fc929190613fc4565b60405180910390fd5b61090f828261139c565b5050565b600160009054906101000a900473ffffffffffffffffffffffffffffffffffffffff1673ffffffffffffffffffffffffffffffffffffffff163373ffffffffffffffffffffffffffffffffffffffff161461096d57600080fd5b80601d8190555050565b60185481565b601e60009054906101000a900460ff1681565b600160009054906101000a900473ffffffffffffffffffffffffffffffffffffffff1673ffffffffffffffffffffffffffffffffffffffff163373ffffffffffffffffffffffffffffffffffffffff16146109ea57600080fd5b6000600160009054906101000a900473ffffffffffffffffffffffffffffffffffffffff1673ffffffffffffffffffffffffffffffffffffffff1647604051610a329061401e565b60006040518083038185875af1925050503d8060008114610a6f576040519150601f19603f3d011682016040523d82523d6000602084013e610a74565b606091505b5050905080610ab8576040517f08c379a0000000000000000000000000000000000000000000000000000000008152600401610aaf9061407f565b60405180910390fd5b50565b60075481565b60065481565b601a5481565b600160009054906101000a900473ffffffffffffffffffffffffffffffffffffffff1673ffffffffffffffffffffffffffffffffffffffff163373ffffffffffffffffffffffffffffffffffffffff1614610b2757600080fd5b6001601a54610b3691906140ce565b601a8190555060195460185442610b4d9190614102565b1180610b655750601b60009054906101000a900460ff165b15610bb857601b60009054906101000a900460ff1615610ba7576000601b60006101000a81548160ff021916908315150217905550610ba26115ca565b610bb7565b42601881905550610bb6613074565b5b5b565b60038181548110610bca57600080fd5b90600052602060002090600802016000915090508060000160009054906101000a900473ffffffffffffffffffffffffffffffffffffffff1690806001018054610c1390613f72565b80601f0160208091040260200160405190810160405280929190818152602001828054610c3f90613f72565b8015610c8c5780601f10610c6157610100808354040283529160200191610c8c565b820191906000526020600020905b815481529060010190602001808311610c6f57829003601f168201915b5050505050908060020154908060030154908060040154908060050154908060060154908060070154905088565b600060068251610cca9190614165565b905066038d7ea4c6800081610cdf9190614196565b3411610cea57600080fd5b60005b81811015611090576000600682610d049190614196565b90506000610d2b858381518110610d1e57610d1d6141d8565b5b602002602001015161316c565b90506000610d5e86600185610d4091906140ce565b81518110610d5157610d506141d8565b5b602002602001015161316c565b90506000610d9187600286610d7391906140ce565b81518110610d8457610d836141d8565b5b602002602001015161316c565b90506000610dc488600387610da691906140ce565b81518110610db757610db66141d8565b5b602002602001015161316c565b90506000610df789600488610dd991906140ce565b81518110610dea57610de96141d8565b5b602002602001015161316c565b90506000610e2a8a600589610e0c91906140ce565b81518110610e1d57610e1c6141d8565b5b602002602001015161316c565b9050610e3461345e565b33816000019073ffffffffffffffffffffffffffffffffffffffff16908173ffffffffffffffffffffffffffffffffffffffff1681525050610e7a8787878787876132f4565b81602001819052508a8881518110610e9557610e946141d8565b5b60200260200101518160400181815250508a600189610eb491906140ce565b81518110610ec557610ec46141d8565b5b60200260200101518160600181815250508a600289610ee491906140ce565b81518110610ef557610ef46141d8565b5b60200260200101518160800181815250508a600389610f1491906140ce565b81518110610f2557610f246141d8565b5b60200260200101518160a00181815250508a600489610f4491906140ce565b81518110610f5557610f546141d8565b5b60200260200101518160c00181815250508a600589610f7491906140ce565b81518110610f8557610f846141d8565b5b60200260200101518160e0018181525050600281908060018154018082558091505060019003906000526020600020906008020160009091909190915060008201518160000160006101000a81548173ffffffffffffffffffffffffffffffffffffffff021916908373ffffffffffffffffffffffffffffffffffffffff160217905550602082015181600101908161101e91906143b3565b5060408201518160020155606082015181600301556080820151816004015560a0820151816005015560c0820151816006015560e0820151816007015550506008600081548092919061107090614485565b91905055505050505050505050808061108890614485565b915050610ced565b50476006819055505050565b60135481565b60195481565b600480546110b590613f72565b80601f01602080910402602001604051908101604052809291908181526020018280546110e190613f72565b801561112e5780601f106111035761010080835404028352916020019161112e565b820191906000526020600020905b81548152906001019060200180831161111157829003601f168201915b505050505081565b606060058054806020026020016040519081016040528092919081815260200182805480156111ba57602002820191906000526020600020905b8160009054906101000a900473ffffffffffffffffffffffffffffffffffffffff1673ffffffffffffffffffffffffffffffffffffffff1681526020019060010190808311611170575b5050505050905090565b601d5481565b60085481565b601481815481106111e057600080fd5b906000526020600020016000915090505481565b6005818154811061120457600080fd5b906000526020600020016000915054906101000a900473ffffffffffffffffffffffffffffffffffffffff1681565b601b60009054906101000a900460ff1681565b601c5481565b6002818154811061125c57600080fd5b90600052602060002090600802016000915090508060000160009054906101000a900473ffffffffffffffffffffffffffffffffffffffff16908060010180546112a590613f72565b80601f01602080910402602001604051908101604052809291908181526020018280546112d190613f72565b801561131e5780601f106112f35761010080835404028352916020019161131e565b820191906000526020600020905b81548152906001019060200180831161130157829003601f168201915b5050505050908060020154908060030154908060040154908060050154908060060154908060070154905088565b60165481565b6015818154811061136257600080fd5b906000526020600020016000915090505481565b600160009054906101000a900473ffffffffffffffffffffffffffffffffffffffff1681565b60006001603c836000815181106113b6576113b56141d8565b5b60200260200101516113c891906144cd565b6113d291906140ce565b905060006001603c846001815181106113ee576113ed6141d8565b5b602002602001015161140091906144cd565b61140a91906140ce565b905060006001603c85600281518110611426576114256141d8565b5b602002602001015161143891906144cd565b61144291906140ce565b905060006001603c8660038151811061145e5761145d6141d8565b5b602002602001015161147091906144cd565b61147a91906140ce565b905060006001603c87600481518110611496576114956141d8565b5b60200260200101516114a891906144cd565b6114b291906140ce565b905060006001603c886005815181106114ce576114cd6141d8565b5b60200260200101516114e091906144cd565b6114ea91906140ce565b9050848614806114f957508386145b8061150357508286145b8061150d57508186145b8061151757508086145b8061152157508385145b8061152b57508285145b8061153557508185145b8061153f57508085145b8061154957508284145b8061155357508184145b8061155d57508084145b8061156757508183145b8061157157508083145b8061157b57508082145b1561158d57611588613074565b6115c0565b86601590805190602001906115a39291906134b9565b506001601b60006101000a81548160ff0219169083151502179055505b5050505050505050565b6115d261345e565b60006116146001603c60156000815481106115f0576115ef6141d8565b5b906000526020600020015461160591906144cd565b61160f91906140ce565b61316c565b905060006116586001603c6015600181548110611634576116336141d8565b5b906000526020600020015461164991906144cd565b61165391906140ce565b61316c565b9050600061169c6001603c6015600281548110611678576116776141d8565b5b906000526020600020015461168d91906144cd565b61169791906140ce565b61316c565b905060006116e06001603c60156003815481106116bc576116bb6141d8565b5b90600052602060002001546116d191906144cd565b6116db91906140ce565b61316c565b905060006117246001603c6015600481548110611700576116ff6141d8565b5b906000526020600020015461171591906144cd565b61171f91906140ce565b61316c565b905060006117686001603c6015600581548110611744576117436141d8565b5b906000526020600020015461175991906144cd565b61176391906140ce565b61316c565b90506117788686868686866132f4565b87602001819052506001603c6015600081548110611799576117986141d8565b5b90600052602060002001546117ae91906144cd565b6117b891906140ce565b8760400181815250506001603c60156001815481106117da576117d96141d8565b5b90600052602060002001546117ef91906144cd565b6117f991906140ce565b8760600181815250506001603c601560028154811061181b5761181a6141d8565b5b906000526020600020015461183091906144cd565b61183a91906140ce565b8760800181815250506001603c601560038154811061185c5761185b6141d8565b5b906000526020600020015461187191906144cd565b61187b91906140ce565b8760a00181815250506001603c601560048154811061189d5761189c6141d8565b5b90600052602060002001546118b291906144cd565b6118bc91906140ce565b8760c00181815250506001603c60156005815481106118de576118dd6141d8565b5b90600052602060002001546118f391906144cd565b6118fd91906140ce565b8760e00181815250506000600a90506000600b90506000600c90506000600d90506000600e90506000600f9050600047905060005b60085481101561264e5760008f6040015160028381548110611957576119566141d8565b5b9060005260206000209060080201600201540361197d57808061197990614485565b9150505b8f6060015160028381548110611996576119956141d8565b5b906000526020600020906008020160020154036119bc5780806119b890614485565b9150505b8f60800151600283815481106119d5576119d46141d8565b5b906000526020600020906008020160020154036119fb5780806119f790614485565b9150505b8f60a0015160028381548110611a1457611a136141d8565b5b90600052602060002090600802016002015403611a3a578080611a3690614485565b9150505b8f60c0015160028381548110611a5357611a526141d8565b5b90600052602060002090600802016002015403611a79578080611a7590614485565b9150505b8f60e0015160028381548110611a9257611a916141d8565b5b90600052602060002090600802016002015403611ab8578080611ab490614485565b9150505b8f6040015160028381548110611ad157611ad06141d8565b5b90600052602060002090600802016003015403611af7578080611af390614485565b9150505b8f6060015160028381548110611b1057611b0f6141d8565b5b90600052602060002090600802016003015403611b36578080611b3290614485565b9150505b8f6080015160028381548110611b4f57611b4e6141d8565b5b90600052602060002090600802016003015403611b75578080611b7190614485565b9150505b8f60a0015160028381548110611b8e57611b8d6141d8565b5b90600052602060002090600802016003015403611bb4578080611bb090614485565b9150505b8f60c0015160028381548110611bcd57611bcc6141d8565b5b90600052602060002090600802016003015403611bf3578080611bef90614485565b9150505b8f60e0015160028381548110611c0c57611c0b6141d8565b5b90600052602060002090600802016003015403611c32578080611c2e90614485565b9150505b8f6040015160028381548110611c4b57611c4a6141d8565b5b90600052602060002090600802016004015403611c71578080611c6d90614485565b9150505b8f6060015160028381548110611c8a57611c896141d8565b5b90600052602060002090600802016004015403611cb0578080611cac90614485565b9150505b8f6080015160028381548110611cc957611cc86141d8565b5b90600052602060002090600802016004015403611cef578080611ceb90614485565b9150505b8f60a0015160028381548110611d0857611d076141d8565b5b90600052602060002090600802016004015403611d2e578080611d2a90614485565b9150505b8f60c0015160028381548110611d4757611d466141d8565b5b90600052602060002090600802016004015403611d6d578080611d6990614485565b9150505b8f60e0015160028381548110611d8657611d856141d8565b5b90600052602060002090600802016004015403611dac578080611da890614485565b9150505b8f6040015160028381548110611dc557611dc46141d8565b5b90600052602060002090600802016005015403611deb578080611de790614485565b9150505b8f6060015160028381548110611e0457611e036141d8565b5b90600052602060002090600802016005015403611e2a578080611e2690614485565b9150505b8f6080015160028381548110611e4357611e426141d8565b5b90600052602060002090600802016005015403611e69578080611e6590614485565b9150505b8f60a0015160028381548110611e8257611e816141d8565b5b90600052602060002090600802016005015403611ea8578080611ea490614485565b9150505b8f60c0015160028381548110611ec157611ec06141d8565b5b90600052602060002090600802016005015403611ee7578080611ee390614485565b9150505b8f60e0015160028381548110611f0057611eff6141d8565b5b90600052602060002090600802016005015403611f26578080611f2290614485565b9150505b8f6040015160028381548110611f3f57611f3e6141d8565b5b90600052602060002090600802016006015403611f65578080611f6190614485565b9150505b8f6060015160028381548110611f7e57611f7d6141d8565b5b90600052602060002090600802016006015403611fa4578080611fa090614485565b9150505b8f6080015160028381548110611fbd57611fbc6141d8565b5b90600052602060002090600802016006015403611fe3578080611fdf90614485565b9150505b8f60a0015160028381548110611ffc57611ffb6141d8565b5b9060005260206000209060080201600601540361202257808061201e90614485565b9150505b8f60c001516002838154811061203b5761203a6141d8565b5b9060005260206000209060080201600601540361206157808061205d90614485565b9150505b8f60e001516002838154811061207a576120796141d8565b5b906000526020600020906008020160060154036120a057808061209c90614485565b9150505b8f60400151600283815481106120b9576120b86141d8565b5b906000526020600020906008020160070154036120df5780806120db90614485565b9150505b8f60600151600283815481106120f8576120f76141d8565b5b9060005260206000209060080201600701540361211e57808061211a90614485565b9150505b8f6080015160028381548110612137576121366141d8565b5b9060005260206000209060080201600701540361215d57808061215990614485565b9150505b8f60a0015160028381548110612176576121756141d8565b5b9060005260206000209060080201600701540361219c57808061219890614485565b9150505b8f60c00151600283815481106121b5576121b46141d8565b5b906000526020600020906008020160070154036121db5780806121d790614485565b9150505b8f60e00151600283815481106121f4576121f36141d8565b5b9060005260206000209060080201600701540361221a57808061221690614485565b9150505b600181036122ca578860028381548110612237576122366141d8565b5b906000526020600020906008020160000160009054906101000a900473ffffffffffffffffffffffffffffffffffffffff169080600181540180825580915050600190039060005260206000200160009091909190916101000a81548173ffffffffffffffffffffffffffffffffffffffff021916908373ffffffffffffffffffffffffffffffffffffffff1602179055505b6002810361237a5787600283815481106122e7576122e66141d8565b5b906000526020600020906008020160000160009054906101000a900473ffffffffffffffffffffffffffffffffffffffff169080600181540180825580915050600190039060005260206000200160009091909190916101000a81548173ffffffffffffffffffffffffffffffffffffffff021916908373ffffffffffffffffffffffffffffffffffffffff1602179055505b6003810361242a578660028381548110612397576123966141d8565b5b906000526020600020906008020160000160009054906101000a900473ffffffffffffffffffffffffffffffffffffffff169080600181540180825580915050600190039060005260206000200160009091909190916101000a81548173ffffffffffffffffffffffffffffffffffffffff021916908373ffffffffffffffffffffffffffffffffffffffff1602179055505b600481036124da578560028381548110612447576124466141d8565b5b906000526020600020906008020160000160009054906101000a900473ffffffffffffffffffffffffffffffffffffffff169080600181540180825580915050600190039060005260206000200160009091909190916101000a81548173ffffffffffffffffffffffffffffffffffffffff021916908373ffffffffffffffffffffffffffffffffffffffff1602179055505b6005810361258a5784600283815481106124f7576124f66141d8565b5b906000526020600020906008020160000160009054906101000a900473ffffffffffffffffffffffffffffffffffffffff169080600181540180825580915050600190039060005260206000200160009091909190916101000a81548173ffffffffffffffffffffffffffffffffffffffff021916908373ffffffffffffffffffffffffffffffffffffffff1602179055505b6006810361263a5783600283815481106125a7576125a66141d8565b5b906000526020600020906008020160000160009054906101000a900473ffffffffffffffffffffffffffffffffffffffff169080600181540180825580915050600190039060005260206000200160009091909190916101000a81548173ffffffffffffffffffffffffffffffffffffffff021916908373ffffffffffffffffffffffffffffffffffffffff1602179055505b50808061264690614485565b915050611932565b50600160009054906101000a900473ffffffffffffffffffffffffffffffffffffffff1673ffffffffffffffffffffffffffffffffffffffff166108fc601d54836126999190614165565b9081150290604051600060405180830381858888f193505050501580156126c4573d6000803e3d6000fd5b506000828054905011156128465760005b82805490508110156127ad578281815481106126f4576126f36141d8565b5b9060005260206000200160009054906101000a900473ffffffffffffffffffffffffffffffffffffffff1673ffffffffffffffffffffffffffffffffffffffff166108fc601d54858054905061274a9190614196565b6001601d546127599190614102565b856127649190614196565b61276e9190614165565b9081150290604051600060405180830381858888f19350505050158015612799573d6000803e3d6000fd5b5080806127a590614485565b9150506126d5565b506128418e602001518380548060200260200160405190810160405280929190818152602001828054801561283757602002820191906000526020600020905b8160009054906101000a900473ffffffffffffffffffffffffffffffffffffffff1673ffffffffffffffffffffffffffffffffffffffff16815260200190600101908083116127ed575b5050505050613371565b613064565b6000838054905011156129c75760005b838054905081101561292e57838181548110612875576128746141d8565b5b9060005260206000200160009054906101000a900473ffffffffffffffffffffffffffffffffffffffff1673ffffffffffffffffffffffffffffffffffffffff166108fc601d5486805490506128cb9190614196565b6001601d546128da9190614102565b856128e59190614196565b6128ef9190614165565b9081150290604051600060405180830381858888f1935050505015801561291a573d6000803e3d6000fd5b50808061292690614485565b915050612856565b506129c28e60200151848054806020026020016040519081016040528092919081815260200182805480156129b857602002820191906000526020600020905b8160009054906101000a900473ffffffffffffffffffffffffffffffffffffffff1673ffffffffffffffffffffffffffffffffffffffff168152602001906001019080831161296e575b5050505050613371565b613063565b600084805490501115612b485760005b8480549050811015612aaf578481815481106129f6576129f56141d8565b5b9060005260206000200160009054906101000a900473ffffffffffffffffffffffffffffffffffffffff1673ffffffffffffffffffffffffffffffffffffffff166108fc601d548780549050612a4c9190614196565b6001601d54612a5b9190614102565b85612a669190614196565b612a709190614165565b9081150290604051600060405180830381858888f19350505050158015612a9b573d6000803e3d6000fd5b508080612aa790614485565b9150506129d7565b50612b438e6020015185805480602002602001604051908101604052809291908181526020018280548015612b3957602002820191906000526020600020905b8160009054906101000a900473ffffffffffffffffffffffffffffffffffffffff1673ffffffffffffffffffffffffffffffffffffffff1681526020019060010190808311612aef575b5050505050613371565b613062565b600085805490501115612cc95760005b8580549050811015612c3057858181548110612b7757612b766141d8565b5b9060005260206000200160009054906101000a900473ffffffffffffffffffffffffffffffffffffffff1673ffffffffffffffffffffffffffffffffffffffff166108fc601d548880549050612bcd9190614196565b6001601d54612bdc9190614102565b85612be79190614196565b612bf19190614165565b9081150290604051600060405180830381858888f19350505050158015612c1c573d6000803e3d6000fd5b508080612c2890614485565b915050612b58565b50612cc48e6020015186805480602002602001604051908101604052809291908181526020018280548015612cba57602002820191906000526020600020905b8160009054906101000a900473ffffffffffffffffffffffffffffffffffffffff1673ffffffffffffffffffffffffffffffffffffffff1681526020019060010190808311612c70575b5050505050613371565b613061565b600086805490501115612e4a5760005b8680549050811015612db157868181548110612cf857612cf76141d8565b5b9060005260206000200160009054906101000a900473ffffffffffffffffffffffffffffffffffffffff1673ffffffffffffffffffffffffffffffffffffffff166108fc601d548980549050612d4e9190614196565b6001601d54612d5d9190614102565b85612d689190614196565b612d729190614165565b9081150290604051600060405180830381858888f19350505050158015612d9d573d6000803e3d6000fd5b508080612da990614485565b915050612cd9565b50612e458e6020015187805480602002602001604051908101604052809291908181526020018280548015612e3b57602002820191906000526020600020905b8160009054906101000a900473ffffffffffffffffffffffffffffffffffffffff1673ffffffffffffffffffffffffffffffffffffffff1681526020019060010190808311612df1575b5050505050613371565b613060565b600087805490501115612fcb5760005b8780549050811015612f3257878181548110612e7957612e786141d8565b5b9060005260206000200160009054906101000a900473ffffffffffffffffffffffffffffffffffffffff1673ffffffffffffffffffffffffffffffffffffffff166108fc601d548a80549050612ecf9190614196565b6001601d54612ede9190614102565b85612ee99190614196565b612ef39190614165565b9081150290604051600060405180830381858888f19350505050158015612f1e573d6000803e3d6000fd5b508080612f2a90614485565b915050612e5a565b50612fc68e6020015188805480602002602001604051908101604052809291908181526020018280548015612fbc57602002820191906000526020600020905b8160009054906101000a900473ffffffffffffffffffffffffffffffffffffffff1673ffffffffffffffffffffffffffffffffffffffff1681526020019060010190808311612f72575b5050505050613371565b61305f565b61305e8e602001518880548060200260200160405190810160405280929190818152602001828054801561305457602002820191906000526020600020905b8160009054906101000a900473ffffffffffffffffffffffffffffffffffffffff1673ffffffffffffffffffffffffffffffffffffffff168152602001906001019080831161300a575b5050505050613371565b5b5b5b5b5b5b5050505050505050505050505050565b60008054906101000a900473ffffffffffffffffffffffffffffffffffffffff1673ffffffffffffffffffffffffffffffffffffffff16635d3b1d30601154601060009054906101000a900467ffffffffffffffff16601260049054906101000a900461ffff16601260009054906101000a900463ffffffff16601260069054906101000a900463ffffffff166040518663ffffffff1660e01b8152600401613121959493929190614576565b6020604051808303816000875af1158015613140573d6000803e3d6000fd5b505050506040513d601f19601f8201168201806040525081019061316491906145de565b601681905550565b6060600082036131b3576040518060400160405280600181526020017f300000000000000000000000000000000000000000000000000000000000000081525090506132ef565b600082905060005b600082146131e55780806131ce90614485565b915050600a826131de9190614165565b91506131bb565b60008167ffffffffffffffff81111561320157613200613ae2565b5b6040519080825280601f01601f1916602001820160405280156132335781602001600182028036833780820191505090505b50905060008290505b600086146132e7576001816132519190614102565b90506000600a80886132639190614165565b61326d9190614196565b876132789190614102565b60306132849190614618565b905060008160f81b9050808484815181106132a2576132a16141d8565b5b60200101907effffffffffffffffffffffffffffffffffffffffffffffffffffffffffffff1916908160001a905350600a886132de9190614165565b9750505061323c565b819450505050505b919050565b606060006040518060400160405280600181526020017f2c0000000000000000000000000000000000000000000000000000000000000081525090508781888389858a878b898c6040516020016133559b9a99989796959493929190614689565b6040516020818303038152906040529150509695505050505050565b8060059080519060200190613387929190613506565b50816004908161339791906143b3565b5047600681905550600360029080546133b1929190613590565b5060006008819055506000601c5490506001816133ce91906140ce565b601c819055506009600a9080546133e69291906136a0565b506009600b9080546133f99291906136a0565b506009600c90805461340c9291906136a0565b506009600d90805461341f9291906136a0565b506009600e9080546134329291906136a0565b506009600f9080546134459291906136a0565b50601460159080546134589291906136f2565b50505050565b604051806101000160405280600073ffffffffffffffffffffffffffffffffffffffff168152602001606081526020016000815260200160008152602001600081526020016000815260200160008152602001600081525090565b8280548282559060005260206000209081019282156134f5579160200282015b828111156134f45782518255916020019190600101906134d9565b5b5090506135029190613744565b5090565b82805482825590600052602060002090810192821561357f579160200282015b8281111561357e5782518260006101000a81548173ffffffffffffffffffffffffffffffffffffffff021916908373ffffffffffffffffffffffffffffffffffffffff16021790555091602001919060010190613526565b5b50905061358c9190613744565b5090565b82805482825590600052602060002090600802810192821561368f5760005260206000209160080282015b8281111561368e5782826000820160009054906101000a900473ffffffffffffffffffffffffffffffffffffffff168160000160006101000a81548173ffffffffffffffffffffffffffffffffffffffff021916908373ffffffffffffffffffffffffffffffffffffffff160217905550600182018160010190816136409190614738565b506002820154816002015560038201548160030155600482015481600401556005820154816005015560068201548160060155600782015481600701555050916008019190600801906135bb565b5b50905061369c9190613761565b5090565b8280548282559060005260206000209081019282156136e15760005260206000209182015b828111156136e05782548255916001019190600101906136c5565b5b5090506136ee9190613744565b5090565b8280548282559060005260206000209081019282156137335760005260206000209182015b82811115613732578254825591600101919060010190613717565b5b5090506137409190613744565b5090565b5b8082111561375d576000816000905550600101613745565b5090565b5b808211156137db57600080820160006101000a81549073ffffffffffffffffffffffffffffffffffffffff02191690556001820160006137a291906137df565b60028201600090556003820160009055600482016000905560058201600090556006820160009055600782016000905550600801613762565b5090565b5080546137eb90613f72565b6000825580601f106137fd575061381c565b601f01602090049060005260206000209081019061381b9190613744565b5b50565b600081519050919050565b600082825260208201905092915050565b6000819050602082019050919050565b600073ffffffffffffffffffffffffffffffffffffffff82169050919050565b60006138768261384b565b9050919050565b6138868161386b565b82525050565b600081519050919050565b600082825260208201905092915050565b60005b838110156138c65780820151818401526020810190506138ab565b60008484015250505050565b6000601f19601f8301169050919050565b60006138ee8261388c565b6138f88185613897565b93506139088185602086016138a8565b613911816138d2565b840191505092915050565b6000819050919050565b61392f8161391c565b82525050565b60006101008301600083015161394e600086018261387d565b506020830151848203602086015261396682826138e3565b915050604083015161397b6040860182613926565b50606083015161398e6060860182613926565b5060808301516139a16080860182613926565b5060a08301516139b460a0860182613926565b5060c08301516139c760c0860182613926565b5060e08301516139da60e0860182613926565b508091505092915050565b60006139f18383613935565b905092915050565b6000602082019050919050565b6000613a118261381f565b613a1b818561382a565b935083602082028501613a2d8561383b565b8060005b85811015613a695784840389528151613a4a85826139e5565b9450613a55836139f9565b925060208a01995050600181019050613a31565b50829750879550505050505092915050565b60006020820190508181036000830152613a958184613a06565b905092915050565b6000604051905090565b600080fd5b600080fd5b613aba8161391c565b8114613ac557600080fd5b50565b600081359050613ad781613ab1565b92915050565b600080fd5b7f4e487b7100000000000000000000000000000000000000000000000000000000600052604160045260246000fd5b613b1a826138d2565b810181811067ffffffffffffffff82111715613b3957613b38613ae2565b5b80604052505050565b6000613b4c613a9d565b9050613b588282613b11565b919050565b600067ffffffffffffffff821115613b7857613b77613ae2565b5b602082029050602081019050919050565b600080fd5b6000613ba1613b9c84613b5d565b613b42565b90508083825260208201905060208402830185811115613bc457613bc3613b89565b5b835b81811015613bed5780613bd98882613ac8565b845260208401935050602081019050613bc6565b5050509392505050565b600082601f830112613c0c57613c0b613add565b5b8135613c1c848260208601613b8e565b91505092915050565b60008060408385031215613c3c57613c3b613aa7565b5b6000613c4a85828601613ac8565b925050602083013567ffffffffffffffff811115613c6b57613c6a613aac565b5b613c7785828601613bf7565b9150509250929050565b600060208284031215613c9757613c96613aa7565b5b6000613ca584828501613ac8565b91505092915050565b613cb78161391c565b82525050565b6000602082019050613cd26000830184613cae565b92915050565b60008115159050919050565b613ced81613cd8565b82525050565b6000602082019050613d086000830184613ce4565b92915050565b613d178161386b565b82525050565b600082825260208201905092915050565b6000613d398261388c565b613d438185613d1d565b9350613d538185602086016138a8565b613d5c816138d2565b840191505092915050565b600061010082019050613d7d600083018b613d0e565b8181036020830152613d8f818a613d2e565b9050613d9e6040830189613cae565b613dab6060830188613cae565b613db86080830187613cae565b613dc560a0830186613cae565b613dd260c0830185613cae565b613ddf60e0830184613cae565b9998505050505050505050565b600060208284031215613e0257613e01613aa7565b5b600082013567ffffffffffffffff811115613e2057613e1f613aac565b5b613e2c84828501613bf7565b91505092915050565b60006020820190508181036000830152613e4f8184613d2e565b905092915050565b600081519050919050565b600082825260208201905092915050565b6000819050602082019050919050565b6000613e8f838361387d565b60208301905092915050565b6000602082019050919050565b6000613eb382613e57565b613ebd8185613e62565b9350613ec883613e73565b8060005b83811015613ef9578151613ee08882613e83565b9750613eeb83613e9b565b925050600181019050613ecc565b5085935050505092915050565b60006020820190508181036000830152613f208184613ea8565b905092915050565b6000602082019050613f3d6000830184613d0e565b92915050565b7f4e487b7100000000000000000000000000000000000000000000000000000000600052602260045260246000fd5b60006002820490506001821680613f8a57607f821691505b602082108103613f9d57613f9c613f43565b5b50919050565b6000613fae8261384b565b9050919050565b613fbe81613fa3565b82525050565b6000604082019050613fd96000830185613fb5565b613fe66020830184613fb5565b9392505050565b600081905092915050565b50565b6000614008600083613fed565b915061401382613ff8565b600082019050919050565b600061402982613ffb565b9150819050919050565b7f4661696c656420746f2073656e64204574686572000000000000000000000000600082015250565b6000614069601483613d1d565b915061407482614033565b602082019050919050565b600060208201905081810360008301526140988161405c565b9050919050565b7f4e487b7100000000000000000000000000000000000000000000000000000000600052601160045260246000fd5b60006140d98261391c565b91506140e48361391c565b92508282019050808211156140fc576140fb61409f565b5b92915050565b600061410d8261391c565b91506141188361391c565b92508282039050818111156141305761412f61409f565b5b92915050565b7f4e487b7100000000000000000000000000000000000000000000000000000000600052601260045260246000fd5b60006141708261391c565b915061417b8361391c565b92508261418b5761418a614136565b5b828204905092915050565b60006141a18261391c565b91506141ac8361391c565b92508282026141ba8161391c565b915082820484148315176141d1576141d061409f565b5b5092915050565b7f4e487b7100000000000000000000000000000000000000000000000000000000600052603260045260246000fd5b60008190508160005260206000209050919050565b60006020601f8301049050919050565b600082821b905092915050565b6000600883026142697fffffffffffffffffffffffffffffffffffffffffffffffffffffffffffffffff8261422c565b614273868361422c565b95508019841693508086168417925050509392505050565b6000819050919050565b60006142b06142ab6142a68461391c565b61428b565b61391c565b9050919050565b6000819050919050565b6142ca83614295565b6142de6142d6826142b7565b848454614239565b825550505050565b600090565b6142f36142e6565b6142fe8184846142c1565b505050565b5b81811015614322576143176000826142eb565b600181019050614304565b5050565b601f8211156143675761433881614207565b6143418461421c565b81016020851015614350578190505b61436461435c8561421c565b830182614303565b50505b505050565b600082821c905092915050565b600061438a6000198460080261436c565b1980831691505092915050565b60006143a38383614379565b9150826002028217905092915050565b6143bc8261388c565b67ffffffffffffffff8111156143d5576143d4613ae2565b5b6143df8254613f72565b6143ea828285614326565b600060209050601f83116001811461441d576000841561440b578287015190505b6144158582614397565b86555061447d565b601f19841661442b86614207565b60005b828110156144535784890151825560018201915060208501945060208101905061442e565b86831015614470578489015161446c601f891682614379565b8355505b6001600288020188555050505b505050505050565b60006144908261391c565b91507fffffffffffffffffffffffffffffffffffffffffffffffffffffffffffffffff82036144c2576144c161409f565b5b600182019050919050565b60006144d88261391c565b91506144e38361391c565b9250826144f3576144f2614136565b5b828206905092915050565b6000819050919050565b614511816144fe565b82525050565b600067ffffffffffffffff82169050919050565b61453481614517565b82525050565b600061ffff82169050919050565b6145518161453a565b82525050565b600063ffffffff82169050919050565b61457081614557565b82525050565b600060a08201905061458b6000830188614508565b614598602083018761452b565b6145a56040830186614548565b6145b26060830185614567565b6145bf6080830184614567565b9695505050505050565b6000815190506145d881613ab1565b92915050565b6000602082840312156145f4576145f3613aa7565b5b6000614602848285016145c9565b91505092915050565b600060ff82169050919050565b60006146238261460b565b915061462e8361460b565b9250828201905060ff8111156146475761464661409f565b5b92915050565b600081905092915050565b60006146638261388c565b61466d818561464d565b935061467d8185602086016138a8565b80840191505092915050565b6000614695828e614658565b91506146a1828d614658565b91506146ad828c614658565b91506146b9828b614658565b91506146c5828a614658565b91506146d18289614658565b91506146dd8288614658565b91506146e98287614658565b91506146f58286614658565b91506147018285614658565b915061470d8284614658565b91508190509c9b505050505050505050505050565b60008154905061473181613f72565b9050919050565b81810361474657505061481e565b61474f82614722565b67ffffffffffffffff81111561476857614767613ae2565b5b6147728254613f72565b61477d828285614326565b6000601f8311600181146147ac576000841561479a578287015490505b6147a48582614397565b865550614817565b601f1984166147ba87614207565b96506147c586614207565b60005b828110156147ed578489015482556001820191506001850194506020810190506147c8565b8683101561480a5784890154614806601f891682614379565b8355505b6001600288020188555050505b5050505050505b56fea264697066735822122034176ba44d6b0ddb31c18b6832d09c13a0989be07c38935dfab0b02b8e7da1ca64736f6c63430008110033","opcodes":"PUSH1 0xA0 PUSH1 0x40 MSTORE PUSH20 0x2CA8E0C643BDE4C2E08AB1FA0DA3401ADAD7734D PUSH1 0x10 PUSH1 0x8 PUSH2 0x100 EXP DUP2 SLOAD DUP2 PUSH20 0xFFFFFFFFFFFFFFFFFFFFFFFFFFFFFFFFFFFFFFFF MUL NOT AND SWAP1 DUP4 PUSH20 0xFFFFFFFFFFFFFFFFFFFFFFFFFFFFFFFFFFFFFFFF AND MUL OR SWAP1 SSTORE POP PUSH32 0x79D3D8832D904592C0BF9818B621522C988BB8B0C05CDC3B15AEA1B6E8DB0C15 PUSH1 0x0 SHL PUSH1 0x11 SSTORE PUSH3 0x493E0 PUSH1 0x12 PUSH1 0x0 PUSH2 0x100 EXP DUP2 SLOAD DUP2 PUSH4 0xFFFFFFFF MUL NOT AND SWAP1 DUP4 PUSH4 0xFFFFFFFF AND MUL OR SWAP1 SSTORE POP PUSH1 0x3 PUSH1 0x12 PUSH1 0x4 PUSH2 0x100 EXP DUP2 SLOAD DUP2 PUSH2 0xFFFF MUL NOT AND SWAP1 DUP4 PUSH2 0xFFFF AND MUL OR SWAP1 SSTORE POP PUSH1 0x6 PUSH1 0x12 PUSH1 0x6 PUSH2 0x100 EXP DUP2 SLOAD DUP2 PUSH4 0xFFFFFFFF MUL NOT AND SWAP1 DUP4 PUSH4 0xFFFFFFFF AND MUL OR SWAP1 SSTORE POP CALLVALUE DUP1 ISZERO PUSH2 0xF0 JUMPI PUSH1 0x0 DUP1 REVERT JUMPDEST POP PUSH1 0x10 PUSH1 0x8 SWAP1 SLOAD SWAP1 PUSH2 0x100 EXP SWAP1 DIV PUSH20 0xFFFFFFFFFFFFFFFFFFFFFFFFFFFFFFFFFFFFFFFF AND DUP1 PUSH20 0xFFFFFFFFFFFFFFFFFFFFFFFFFFFFFFFFFFFFFFFF AND PUSH1 0x80 DUP2 PUSH20 0xFFFFFFFFFFFFFFFFFFFFFFFFFFFFFFFFFFFFFFFF AND DUP2 MSTORE POP POP POP CALLER PUSH1 0x1 PUSH1 0x0 PUSH2 0x100 EXP DUP2 SLOAD DUP2 PUSH20 0xFFFFFFFFFFFFFFFFFFFFFFFFFFFFFFFFFFFFFFFF MUL NOT AND SWAP1 DUP4 PUSH20 0xFFFFFFFFFFFFFFFFFFFFFFFFFFFFFFFFFFFFFFFF AND MUL OR SWAP1 SSTORE POP TIMESTAMP PUSH1 0x18 DUP2 SWAP1 SSTORE POP PUSH2 0x12C PUSH1 0x19 DUP2 SWAP1 SSTORE POP PUSH1 0x10 PUSH1 0x8 SWAP1 SLOAD SWAP1 PUSH2 0x100 EXP SWAP1 DIV PUSH20 0xFFFFFFFFFFFFFFFFFFFFFFFFFFFFFFFFFFFFFFFF AND PUSH1 0x0 DUP1 PUSH2 0x100 EXP DUP2 SLOAD DUP2 PUSH20 0xFFFFFFFFFFFFFFFFFFFFFFFFFFFFFFFFFFFFFFFF MUL NOT AND SWAP1 DUP4 PUSH20 0xFFFFFFFFFFFFFFFFFFFFFFFFFFFFFFFFFFFFFFFF AND MUL OR SWAP1 SSTORE POP CALLER PUSH1 0x17 PUSH1 0x0 PUSH2 0x100 EXP DUP2 SLOAD DUP2 PUSH20 0xFFFFFFFFFFFFFFFFFFFFFFFFFFFFFFFFFFFFFFFF MUL NOT AND SWAP1 DUP4 PUSH20 0xFFFFFFFFFFFFFFFFFFFFFFFFFFFFFFFFFFFFFFFF AND MUL OR SWAP1 SSTORE POP PUSH2 0x3EC7 PUSH1 0x10 PUSH1 0x0 PUSH2 0x100 EXP DUP2 SLOAD DUP2 PUSH8 0xFFFFFFFFFFFFFFFF MUL NOT AND SWAP1 DUP4 PUSH8 0xFFFFFFFFFFFFFFFF AND MUL OR SWAP1 SSTORE POP PUSH1 0x0 PUSH1 0x1A DUP2 SWAP1 SSTORE POP PUSH1 0x2 PUSH1 0x1C DUP2 SWAP1 SSTORE POP PUSH1 0x5 PUSH1 0x1D DUP2 SWAP1 SSTORE POP PUSH1 0x0 PUSH1 0x1B PUSH1 0x0 PUSH2 0x100 EXP DUP2 SLOAD DUP2 PUSH1 0xFF MUL NOT AND SWAP1 DUP4 ISZERO ISZERO MUL OR SWAP1 SSTORE POP PUSH1 0x0 PUSH1 0x1E PUSH1 0x0 PUSH2 0x100 EXP DUP2 SLOAD DUP2 PUSH1 0xFF MUL NOT AND SWAP1 DUP4 ISZERO ISZERO MUL OR SWAP1 SSTORE POP PUSH1 0x80 MLOAD PUSH2 0x4856 PUSH2 0x2D8 PUSH1 0x0 CODECOPY PUSH1 0x0 DUP2 DUP2 PUSH2 0x855 ADD MSTORE PUSH2 0x8A9 ADD MSTORE PUSH2 0x4856 PUSH1 0x0 RETURN INVALID PUSH1 0x80 PUSH1 0x40 MSTORE PUSH1 0x4 CALLDATASIZE LT PUSH2 0x19C JUMPI PUSH1 0x0 CALLDATALOAD PUSH1 0xE0 SHR DUP1 PUSH4 0x831A0384 GT PUSH2 0xEC JUMPI DUP1 PUSH4 0xBF9985C8 GT PUSH2 0x8A JUMPI DUP1 PUSH4 0xE7E9F056 GT PUSH2 0x64 JUMPI DUP1 PUSH4 0xE7E9F056 EQ PUSH2 0x56C JUMPI DUP1 PUSH4 0xE89E106A EQ PUSH2 0x5B0 JUMPI DUP1 PUSH4 0xF6EAFFC8 EQ PUSH2 0x5DB JUMPI DUP1 PUSH4 0xFC6F9468 EQ PUSH2 0x618 JUMPI PUSH2 0x19C JUMP JUMPDEST DUP1 PUSH4 0xBF9985C8 EQ PUSH2 0x4D9 JUMPI DUP1 PUSH4 0xCB7A31A7 EQ PUSH2 0x516 JUMPI DUP1 PUSH4 0xD80FFB20 EQ PUSH2 0x541 JUMPI PUSH2 0x19C JUMP JUMPDEST DUP1 PUSH4 0x95690936 GT PUSH2 0xC6 JUMPI DUP1 PUSH4 0x95690936 EQ PUSH2 0x41B JUMPI DUP1 PUSH4 0x99C8D556 EQ PUSH2 0x446 JUMPI DUP1 PUSH4 0xB28AAAA4 EQ PUSH2 0x471 JUMPI DUP1 PUSH4 0xBC2837FE EQ PUSH2 0x49C JUMPI PUSH2 0x19C JUMP JUMPDEST DUP1 PUSH4 0x831A0384 EQ PUSH2 0x39A JUMPI DUP1 PUSH4 0x947A36FB EQ PUSH2 0x3C5 JUMPI DUP1 PUSH4 0x94A4D074 EQ PUSH2 0x3F0 JUMPI PUSH2 0x19C JUMP JUMPDEST DUP1 PUSH4 0x4B307F80 GT PUSH2 0x159 JUMPI DUP1 PUSH4 0x61BC221A GT PUSH2 0x133 JUMPI DUP1 PUSH4 0x61BC221A EQ PUSH2 0x2F8 JUMPI DUP1 PUSH4 0x6E4D243A EQ PUSH2 0x323 JUMPI DUP1 PUSH4 0x72A38D2D EQ PUSH2 0x33A JUMPI DUP1 PUSH4 0x7FED27D5 EQ PUSH2 0x37E JUMPI PUSH2 0x19C JUMP JUMPDEST DUP1 PUSH4 0x4B307F80 EQ PUSH2 0x28B JUMPI DUP1 PUSH4 0x5159DCF3 EQ PUSH2 0x2A2 JUMPI DUP1 PUSH4 0x58B95769 EQ PUSH2 0x2CD JUMPI PUSH2 0x19C JUMP JUMPDEST DUP1 PUSH4 0x85634EC EQ PUSH2 0x1A1 JUMPI DUP1 PUSH4 0x1A5D4CF6 EQ PUSH2 0x1B8 JUMPI DUP1 PUSH4 0x1FE543E3 EQ PUSH2 0x1E3 JUMPI DUP1 PUSH4 0x3E45C8AF EQ PUSH2 0x20C JUMPI DUP1 PUSH4 0x3F3B3B27 EQ PUSH2 0x235 JUMPI DUP1 PUSH4 0x4A731122 EQ PUSH2 0x260 JUMPI JUMPDEST PUSH1 0x0 DUP1 REVERT JUMPDEST CALLVALUE DUP1 ISZERO PUSH2 0x1AD JUMPI PUSH1 0x0 DUP1 REVERT JUMPDEST POP PUSH2 0x1B6 PUSH2 0x643 JUMP JUMPDEST STOP JUMPDEST CALLVALUE DUP1 ISZERO PUSH2 0x1C4 JUMPI PUSH1 0x0 DUP1 REVERT JUMPDEST POP PUSH2 0x1CD PUSH2 0x6CF JUMP JUMPDEST PUSH1 0x40 MLOAD PUSH2 0x1DA SWAP2 SWAP1 PUSH2 0x3A7B JUMP JUMPDEST PUSH1 0x40 MLOAD DUP1 SWAP2 SUB SWAP1 RETURN JUMPDEST CALLVALUE DUP1 ISZERO PUSH2 0x1EF JUMPI PUSH1 0x0 DUP1 REVERT JUMPDEST POP PUSH2 0x20A PUSH1 0x4 DUP1 CALLDATASIZE SUB DUP2 ADD SWAP1 PUSH2 0x205 SWAP2 SWAP1 PUSH2 0x3C25 JUMP JUMPDEST PUSH2 0x853 JUMP JUMPDEST STOP JUMPDEST CALLVALUE DUP1 ISZERO PUSH2 0x218 JUMPI PUSH1 0x0 DUP1 REVERT JUMPDEST POP PUSH2 0x233 PUSH1 0x4 DUP1 CALLDATASIZE SUB DUP2 ADD SWAP1 PUSH2 0x22E SWAP2 SWAP1 PUSH2 0x3C81 JUMP JUMPDEST PUSH2 0x913 JUMP JUMPDEST STOP JUMPDEST CALLVALUE DUP1 ISZERO PUSH2 0x241 JUMPI PUSH1 0x0 DUP1 REVERT JUMPDEST POP PUSH2 0x24A PUSH2 0x977 JUMP JUMPDEST PUSH1 0x40 MLOAD PUSH2 0x257 SWAP2 SWAP1 PUSH2 0x3CBD JUMP JUMPDEST PUSH1 0x40 MLOAD DUP1 SWAP2 SUB SWAP1 RETURN JUMPDEST CALLVALUE DUP1 ISZERO PUSH2 0x26C JUMPI PUSH1 0x0 DUP1 REVERT JUMPDEST POP PUSH2 0x275 PUSH2 0x97D JUMP JUMPDEST PUSH1 0x40 MLOAD PUSH2 0x282 SWAP2 SWAP1 PUSH2 0x3CF3 JUMP JUMPDEST PUSH1 0x40 MLOAD DUP1 SWAP2 SUB SWAP1 RETURN JUMPDEST CALLVALUE DUP1 ISZERO PUSH2 0x297 JUMPI PUSH1 0x0 DUP1 REVERT JUMPDEST POP PUSH2 0x2A0 PUSH2 0x990 JUMP JUMPDEST STOP JUMPDEST CALLVALUE DUP1 ISZERO PUSH2 0x2AE JUMPI PUSH1 0x0 DUP1 REVERT JUMPDEST POP PUSH2 0x2B7 PUSH2 0xABB JUMP JUMPDEST PUSH1 0x40 MLOAD PUSH2 0x2C4 SWAP2 SWAP1 PUSH2 0x3CBD JUMP JUMPDEST PUSH1 0x40 MLOAD DUP1 SWAP2 SUB SWAP1 RETURN JUMPDEST CALLVALUE DUP1 ISZERO PUSH2 0x2D9 JUMPI PUSH1 0x0 DUP1 REVERT JUMPDEST POP PUSH2 0x2E2 PUSH2 0xAC1 JUMP JUMPDEST PUSH1 0x40 MLOAD PUSH2 0x2EF SWAP2 SWAP1 PUSH2 0x3CBD JUMP JUMPDEST PUSH1 0x40 MLOAD DUP1 SWAP2 SUB SWAP1 RETURN JUMPDEST CALLVALUE DUP1 ISZERO PUSH2 0x304 JUMPI PUSH1 0x0 DUP1 REVERT JUMPDEST POP PUSH2 0x30D PUSH2 0xAC7 JUMP JUMPDEST PUSH1 0x40 MLOAD PUSH2 0x31A SWAP2 SWAP1 PUSH2 0x3CBD JUMP JUMPDEST PUSH1 0x40 MLOAD DUP1 SWAP2 SUB SWAP1 RETURN JUMPDEST CALLVALUE DUP1 ISZERO PUSH2 0x32F JUMPI PUSH1 0x0 DUP1 REVERT JUMPDEST POP PUSH2 0x338 PUSH2 0xACD JUMP JUMPDEST STOP JUMPDEST CALLVALUE DUP1 ISZERO PUSH2 0x346 JUMPI PUSH1 0x0 DUP1 REVERT JUMPDEST POP PUSH2 0x361 PUSH1 0x4 DUP1 CALLDATASIZE SUB DUP2 ADD SWAP1 PUSH2 0x35C SWAP2 SWAP1 PUSH2 0x3C81 JUMP JUMPDEST PUSH2 0xBBA JUMP JUMPDEST PUSH1 0x40 MLOAD PUSH2 0x375 SWAP9 SWAP8 SWAP7 SWAP6 SWAP5 SWAP4 SWAP3 SWAP2 SWAP1 PUSH2 0x3D67 JUMP JUMPDEST PUSH1 0x40 MLOAD DUP1 SWAP2 SUB SWAP1 RETURN JUMPDEST PUSH2 0x398 PUSH1 0x4 DUP1 CALLDATASIZE SUB DUP2 ADD SWAP1 PUSH2 0x393 SWAP2 SWAP1 PUSH2 0x3DEC JUMP JUMPDEST PUSH2 0xCBA JUMP JUMPDEST STOP JUMPDEST CALLVALUE DUP1 ISZERO PUSH2 0x3A6 JUMPI PUSH1 0x0 DUP1 REVERT JUMPDEST POP PUSH2 0x3AF PUSH2 0x109C JUMP JUMPDEST PUSH1 0x40 MLOAD PUSH2 0x3BC SWAP2 SWAP1 PUSH2 0x3CBD JUMP JUMPDEST PUSH1 0x40 MLOAD DUP1 SWAP2 SUB SWAP1 RETURN JUMPDEST CALLVALUE DUP1 ISZERO PUSH2 0x3D1 JUMPI PUSH1 0x0 DUP1 REVERT JUMPDEST POP PUSH2 0x3DA PUSH2 0x10A2 JUMP JUMPDEST PUSH1 0x40 MLOAD PUSH2 0x3E7 SWAP2 SWAP1 PUSH2 0x3CBD JUMP JUMPDEST PUSH1 0x40 MLOAD DUP1 SWAP2 SUB SWAP1 RETURN JUMPDEST CALLVALUE DUP1 ISZERO PUSH2 0x3FC JUMPI PUSH1 0x0 DUP1 REVERT JUMPDEST POP PUSH2 0x405 PUSH2 0x10A8 JUMP JUMPDEST PUSH1 0x40 MLOAD PUSH2 0x412 SWAP2 SWAP1 PUSH2 0x3E35 JUMP JUMPDEST PUSH1 0x40 MLOAD DUP1 SWAP2 SUB SWAP1 RETURN JUMPDEST CALLVALUE DUP1 ISZERO PUSH2 0x427 JUMPI PUSH1 0x0 DUP1 REVERT JUMPDEST POP PUSH2 0x430 PUSH2 0x1136 JUMP JUMPDEST PUSH1 0x40 MLOAD PUSH2 0x43D SWAP2 SWAP1 PUSH2 0x3F06 JUMP JUMPDEST PUSH1 0x40 MLOAD DUP1 SWAP2 SUB SWAP1 RETURN JUMPDEST CALLVALUE DUP1 ISZERO PUSH2 0x452 JUMPI PUSH1 0x0 DUP1 REVERT JUMPDEST POP PUSH2 0x45B PUSH2 0x11C4 JUMP JUMPDEST PUSH1 0x40 MLOAD PUSH2 0x468 SWAP2 SWAP1 PUSH2 0x3CBD JUMP JUMPDEST PUSH1 0x40 MLOAD DUP1 SWAP2 SUB SWAP1 RETURN JUMPDEST CALLVALUE DUP1 ISZERO PUSH2 0x47D JUMPI PUSH1 0x0 DUP1 REVERT JUMPDEST POP PUSH2 0x486 PUSH2 0x11CA JUMP JUMPDEST PUSH1 0x40 MLOAD PUSH2 0x493 SWAP2 SWAP1 PUSH2 0x3CBD JUMP JUMPDEST PUSH1 0x40 MLOAD DUP1 SWAP2 SUB SWAP1 RETURN JUMPDEST CALLVALUE DUP1 ISZERO PUSH2 0x4A8 JUMPI PUSH1 0x0 DUP1 REVERT JUMPDEST POP PUSH2 0x4C3 PUSH1 0x4 DUP1 CALLDATASIZE SUB DUP2 ADD SWAP1 PUSH2 0x4BE SWAP2 SWAP1 PUSH2 0x3C81 JUMP JUMPDEST PUSH2 0x11D0 JUMP JUMPDEST PUSH1 0x40 MLOAD PUSH2 0x4D0 SWAP2 SWAP1 PUSH2 0x3CBD JUMP JUMPDEST PUSH1 0x40 MLOAD DUP1 SWAP2 SUB SWAP1 RETURN JUMPDEST CALLVALUE DUP1 ISZERO PUSH2 0x4E5 JUMPI PUSH1 0x0 DUP1 REVERT JUMPDEST POP PUSH2 0x500 PUSH1 0x4 DUP1 CALLDATASIZE SUB DUP2 ADD SWAP1 PUSH2 0x4FB SWAP2 SWAP1 PUSH2 0x3C81 JUMP JUMPDEST PUSH2 0x11F4 JUMP JUMPDEST PUSH1 0x40 MLOAD PUSH2 0x50D SWAP2 SWAP1 PUSH2 0x3F28 JUMP JUMPDEST PUSH1 0x40 MLOAD DUP1 SWAP2 SUB SWAP1 RETURN JUMPDEST CALLVALUE DUP1 ISZERO PUSH2 0x522 JUMPI PUSH1 0x0 DUP1 REVERT JUMPDEST POP PUSH2 0x52B PUSH2 0x1233 JUMP JUMPDEST PUSH1 0x40 MLOAD PUSH2 0x538 SWAP2 SWAP1 PUSH2 0x3CF3 JUMP JUMPDEST PUSH1 0x40 MLOAD DUP1 SWAP2 SUB SWAP1 RETURN JUMPDEST CALLVALUE DUP1 ISZERO PUSH2 0x54D JUMPI PUSH1 0x0 DUP1 REVERT JUMPDEST POP PUSH2 0x556 PUSH2 0x1246 JUMP JUMPDEST PUSH1 0x40 MLOAD PUSH2 0x563 SWAP2 SWAP1 PUSH2 0x3CBD JUMP JUMPDEST PUSH1 0x40 MLOAD DUP1 SWAP2 SUB SWAP1 RETURN JUMPDEST CALLVALUE DUP1 ISZERO PUSH2 0x578 JUMPI PUSH1 0x0 DUP1 REVERT JUMPDEST POP PUSH2 0x593 PUSH1 0x4 DUP1 CALLDATASIZE SUB DUP2 ADD SWAP1 PUSH2 0x58E SWAP2 SWAP1 PUSH2 0x3C81 JUMP JUMPDEST PUSH2 0x124C JUMP JUMPDEST PUSH1 0x40 MLOAD PUSH2 0x5A7 SWAP9 SWAP8 SWAP7 SWAP6 SWAP5 SWAP4 SWAP3 SWAP2 SWAP1 PUSH2 0x3D67 JUMP JUMPDEST PUSH1 0x40 MLOAD DUP1 SWAP2 SUB SWAP1 RETURN JUMPDEST CALLVALUE DUP1 ISZERO PUSH2 0x5BC JUMPI PUSH1 0x0 DUP1 REVERT JUMPDEST POP PUSH2 0x5C5 PUSH2 0x134C JUMP JUMPDEST PUSH1 0x40 MLOAD PUSH2 0x5D2 SWAP2 SWAP1 PUSH2 0x3CBD JUMP JUMPDEST PUSH1 0x40 MLOAD DUP1 SWAP2 SUB SWAP1 RETURN JUMPDEST CALLVALUE DUP1 ISZERO PUSH2 0x5E7 JUMPI PUSH1 0x0 DUP1 REVERT JUMPDEST POP PUSH2 0x602 PUSH1 0x4 DUP1 CALLDATASIZE SUB DUP2 ADD SWAP1 PUSH2 0x5FD SWAP2 SWAP1 PUSH2 0x3C81 JUMP JUMPDEST PUSH2 0x1352 JUMP JUMPDEST PUSH1 0x40 MLOAD PUSH2 0x60F SWAP2 SWAP1 PUSH2 0x3CBD JUMP JUMPDEST PUSH1 0x40 MLOAD DUP1 SWAP2 SUB SWAP1 RETURN JUMPDEST CALLVALUE DUP1 ISZERO PUSH2 0x624 JUMPI PUSH1 0x0 DUP1 REVERT JUMPDEST POP PUSH2 0x62D PUSH2 0x1376 JUMP JUMPDEST PUSH1 0x40 MLOAD PUSH2 0x63A SWAP2 SWAP1 PUSH2 0x3F28 JUMP JUMPDEST PUSH1 0x40 MLOAD DUP1 SWAP2 SUB SWAP1 RETURN JUMPDEST PUSH1 0x1 PUSH1 0x0 SWAP1 SLOAD SWAP1 PUSH2 0x100 EXP SWAP1 DIV PUSH20 0xFFFFFFFFFFFFFFFFFFFFFFFFFFFFFFFFFFFFFFFF AND PUSH20 0xFFFFFFFFFFFFFFFFFFFFFFFFFFFFFFFFFFFFFFFF AND CALLER PUSH20 0xFFFFFFFFFFFFFFFFFFFFFFFFFFFFFFFFFFFFFFFF AND EQ PUSH2 0x69D JUMPI PUSH1 0x0 DUP1 REVERT JUMPDEST PUSH1 0x0 PUSH1 0x1E PUSH1 0x0 SWAP1 SLOAD SWAP1 PUSH2 0x100 EXP SWAP1 DIV PUSH1 0xFF AND SWAP1 POP DUP1 ISZERO PUSH1 0x1E PUSH1 0x0 PUSH2 0x100 EXP DUP2 SLOAD DUP2 PUSH1 0xFF MUL NOT AND SWAP1 DUP4 ISZERO ISZERO MUL OR SWAP1 SSTORE POP POP JUMP JUMPDEST PUSH1 0x60 PUSH1 0x2 DUP1 SLOAD DUP1 PUSH1 0x20 MUL PUSH1 0x20 ADD PUSH1 0x40 MLOAD SWAP1 DUP2 ADD PUSH1 0x40 MSTORE DUP1 SWAP3 SWAP2 SWAP1 DUP2 DUP2 MSTORE PUSH1 0x20 ADD PUSH1 0x0 SWAP1 JUMPDEST DUP3 DUP3 LT ISZERO PUSH2 0x84A JUMPI DUP4 DUP3 SWAP1 PUSH1 0x0 MSTORE PUSH1 0x20 PUSH1 0x0 KECCAK256 SWAP1 PUSH1 0x8 MUL ADD PUSH1 0x40 MLOAD DUP1 PUSH2 0x100 ADD PUSH1 0x40 MSTORE SWAP1 DUP2 PUSH1 0x0 DUP3 ADD PUSH1 0x0 SWAP1 SLOAD SWAP1 PUSH2 0x100 EXP SWAP1 DIV PUSH20 0xFFFFFFFFFFFFFFFFFFFFFFFFFFFFFFFFFFFFFFFF AND PUSH20 0xFFFFFFFFFFFFFFFFFFFFFFFFFFFFFFFFFFFFFFFF AND PUSH20 0xFFFFFFFFFFFFFFFFFFFFFFFFFFFFFFFFFFFFFFFF AND DUP2 MSTORE PUSH1 0x20 ADD PUSH1 0x1 DUP3 ADD DUP1 SLOAD PUSH2 0x77D SWAP1 PUSH2 0x3F72 JUMP JUMPDEST DUP1 PUSH1 0x1F ADD PUSH1 0x20 DUP1 SWAP2 DIV MUL PUSH1 0x20 ADD PUSH1 0x40 MLOAD SWAP1 DUP2 ADD PUSH1 0x40 MSTORE DUP1 SWAP3 SWAP2 SWAP1 DUP2 DUP2 MSTORE PUSH1 0x20 ADD DUP3 DUP1 SLOAD PUSH2 0x7A9 SWAP1 PUSH2 0x3F72 JUMP JUMPDEST DUP1 ISZERO PUSH2 0x7F6 JUMPI DUP1 PUSH1 0x1F LT PUSH2 0x7CB JUMPI PUSH2 0x100 DUP1 DUP4 SLOAD DIV MUL DUP4 MSTORE SWAP2 PUSH1 0x20 ADD SWAP2 PUSH2 0x7F6 JUMP JUMPDEST DUP3 ADD SWAP2 SWAP1 PUSH1 0x0 MSTORE PUSH1 0x20 PUSH1 0x0 KECCAK256 SWAP1 JUMPDEST DUP2 SLOAD DUP2 MSTORE SWAP1 PUSH1 0x1 ADD SWAP1 PUSH1 0x20 ADD DUP1 DUP4 GT PUSH2 0x7D9 JUMPI DUP3 SWAP1 SUB PUSH1 0x1F AND DUP3 ADD SWAP2 JUMPDEST POP POP POP POP POP DUP2 MSTORE PUSH1 0x20 ADD PUSH1 0x2 DUP3 ADD SLOAD DUP2 MSTORE PUSH1 0x20 ADD PUSH1 0x3 DUP3 ADD SLOAD DUP2 MSTORE PUSH1 0x20 ADD PUSH1 0x4 DUP3 ADD SLOAD DUP2 MSTORE PUSH1 0x20 ADD PUSH1 0x5 DUP3 ADD SLOAD DUP2 MSTORE PUSH1 0x20 ADD PUSH1 0x6 DUP3 ADD SLOAD DUP2 MSTORE PUSH1 0x20 ADD PUSH1 0x7 DUP3 ADD SLOAD DUP2 MSTORE POP POP DUP2 MSTORE PUSH1 0x20 ADD SWAP1 PUSH1 0x1 ADD SWAP1 PUSH2 0x6F3 JUMP JUMPDEST POP POP POP POP SWAP1 POP SWAP1 JUMP JUMPDEST PUSH32 0x0 PUSH20 0xFFFFFFFFFFFFFFFFFFFFFFFFFFFFFFFFFFFFFFFF AND CALLER PUSH20 0xFFFFFFFFFFFFFFFFFFFFFFFFFFFFFFFFFFFFFFFF AND EQ PUSH2 0x905 JUMPI CALLER PUSH32 0x0 PUSH1 0x40 MLOAD PUSH32 0x1CF993F400000000000000000000000000000000000000000000000000000000 DUP2 MSTORE PUSH1 0x4 ADD PUSH2 0x8FC SWAP3 SWAP2 SWAP1 PUSH2 0x3FC4 JUMP JUMPDEST PUSH1 0x40 MLOAD DUP1 SWAP2 SUB SWAP1 REVERT JUMPDEST PUSH2 0x90F DUP3 DUP3 PUSH2 0x139C JUMP JUMPDEST POP POP JUMP JUMPDEST PUSH1 0x1 PUSH1 0x0 SWAP1 SLOAD SWAP1 PUSH2 0x100 EXP SWAP1 DIV PUSH20 0xFFFFFFFFFFFFFFFFFFFFFFFFFFFFFFFFFFFFFFFF AND PUSH20 0xFFFFFFFFFFFFFFFFFFFFFFFFFFFFFFFFFFFFFFFF AND CALLER PUSH20 0xFFFFFFFFFFFFFFFFFFFFFFFFFFFFFFFFFFFFFFFF AND EQ PUSH2 0x96D JUMPI PUSH1 0x0 DUP1 REVERT JUMPDEST DUP1 PUSH1 0x1D DUP2 SWAP1 SSTORE POP POP JUMP JUMPDEST PUSH1 0x18 SLOAD DUP2 JUMP JUMPDEST PUSH1 0x1E PUSH1 0x0 SWAP1 SLOAD SWAP1 PUSH2 0x100 EXP SWAP1 DIV PUSH1 0xFF AND DUP2 JUMP JUMPDEST PUSH1 0x1 PUSH1 0x0 SWAP1 SLOAD SWAP1 PUSH2 0x100 EXP SWAP1 DIV PUSH20 0xFFFFFFFFFFFFFFFFFFFFFFFFFFFFFFFFFFFFFFFF AND PUSH20 0xFFFFFFFFFFFFFFFFFFFFFFFFFFFFFFFFFFFFFFFF AND CALLER PUSH20 0xFFFFFFFFFFFFFFFFFFFFFFFFFFFFFFFFFFFFFFFF AND EQ PUSH2 0x9EA JUMPI PUSH1 0x0 DUP1 REVERT JUMPDEST PUSH1 0x0 PUSH1 0x1 PUSH1 0x0 SWAP1 SLOAD SWAP1 PUSH2 0x100 EXP SWAP1 DIV PUSH20 0xFFFFFFFFFFFFFFFFFFFFFFFFFFFFFFFFFFFFFFFF AND PUSH20 0xFFFFFFFFFFFFFFFFFFFFFFFFFFFFFFFFFFFFFFFF AND SELFBALANCE PUSH1 0x40 MLOAD PUSH2 0xA32 SWAP1 PUSH2 0x401E JUMP JUMPDEST PUSH1 0x0 PUSH1 0x40 MLOAD DUP1 DUP4 SUB DUP2 DUP6 DUP8 GAS CALL SWAP3 POP POP POP RETURNDATASIZE DUP1 PUSH1 0x0 DUP2 EQ PUSH2 0xA6F JUMPI PUSH1 0x40 MLOAD SWAP2 POP PUSH1 0x1F NOT PUSH1 0x3F RETURNDATASIZE ADD AND DUP3 ADD PUSH1 0x40 MSTORE RETURNDATASIZE DUP3 MSTORE RETURNDATASIZE PUSH1 0x0 PUSH1 0x20 DUP5 ADD RETURNDATACOPY PUSH2 0xA74 JUMP JUMPDEST PUSH1 0x60 SWAP2 POP JUMPDEST POP POP SWAP1 POP DUP1 PUSH2 0xAB8 JUMPI PUSH1 0x40 MLOAD PUSH32 0x8C379A000000000000000000000000000000000000000000000000000000000 DUP2 MSTORE PUSH1 0x4 ADD PUSH2 0xAAF SWAP1 PUSH2 0x407F JUMP JUMPDEST PUSH1 0x40 MLOAD DUP1 SWAP2 SUB SWAP1 REVERT JUMPDEST POP JUMP JUMPDEST PUSH1 0x7 SLOAD DUP2 JUMP JUMPDEST PUSH1 0x6 SLOAD DUP2 JUMP JUMPDEST PUSH1 0x1A SLOAD DUP2 JUMP JUMPDEST PUSH1 0x1 PUSH1 0x0 SWAP1 SLOAD SWAP1 PUSH2 0x100 EXP SWAP1 DIV PUSH20 0xFFFFFFFFFFFFFFFFFFFFFFFFFFFFFFFFFFFFFFFF AND PUSH20 0xFFFFFFFFFFFFFFFFFFFFFFFFFFFFFFFFFFFFFFFF AND CALLER PUSH20 0xFFFFFFFFFFFFFFFFFFFFFFFFFFFFFFFFFFFFFFFF AND EQ PUSH2 0xB27 JUMPI PUSH1 0x0 DUP1 REVERT JUMPDEST PUSH1 0x1 PUSH1 0x1A SLOAD PUSH2 0xB36 SWAP2 SWAP1 PUSH2 0x40CE JUMP JUMPDEST PUSH1 0x1A DUP2 SWAP1 SSTORE POP PUSH1 0x19 SLOAD PUSH1 0x18 SLOAD TIMESTAMP PUSH2 0xB4D SWAP2 SWAP1 PUSH2 0x4102 JUMP JUMPDEST GT DUP1 PUSH2 0xB65 JUMPI POP PUSH1 0x1B PUSH1 0x0 SWAP1 SLOAD SWAP1 PUSH2 0x100 EXP SWAP1 DIV PUSH1 0xFF AND JUMPDEST ISZERO PUSH2 0xBB8 JUMPI PUSH1 0x1B PUSH1 0x0 SWAP1 SLOAD SWAP1 PUSH2 0x100 EXP SWAP1 DIV PUSH1 0xFF AND ISZERO PUSH2 0xBA7 JUMPI PUSH1 0x0 PUSH1 0x1B PUSH1 0x0 PUSH2 0x100 EXP DUP2 SLOAD DUP2 PUSH1 0xFF MUL NOT AND SWAP1 DUP4 ISZERO ISZERO MUL OR SWAP1 SSTORE POP PUSH2 0xBA2 PUSH2 0x15CA JUMP JUMPDEST PUSH2 0xBB7 JUMP JUMPDEST TIMESTAMP PUSH1 0x18 DUP2 SWAP1 SSTORE POP PUSH2 0xBB6 PUSH2 0x3074 JUMP JUMPDEST JUMPDEST JUMPDEST JUMP JUMPDEST PUSH1 0x3 DUP2 DUP2 SLOAD DUP2 LT PUSH2 0xBCA JUMPI PUSH1 0x0 DUP1 REVERT JUMPDEST SWAP1 PUSH1 0x0 MSTORE PUSH1 0x20 PUSH1 0x0 KECCAK256 SWAP1 PUSH1 0x8 MUL ADD PUSH1 0x0 SWAP2 POP SWAP1 POP DUP1 PUSH1 0x0 ADD PUSH1 0x0 SWAP1 SLOAD SWAP1 PUSH2 0x100 EXP SWAP1 DIV PUSH20 0xFFFFFFFFFFFFFFFFFFFFFFFFFFFFFFFFFFFFFFFF AND SWAP1 DUP1 PUSH1 0x1 ADD DUP1 SLOAD PUSH2 0xC13 SWAP1 PUSH2 0x3F72 JUMP JUMPDEST DUP1 PUSH1 0x1F ADD PUSH1 0x20 DUP1 SWAP2 DIV MUL PUSH1 0x20 ADD PUSH1 0x40 MLOAD SWAP1 DUP2 ADD PUSH1 0x40 MSTORE DUP1 SWAP3 SWAP2 SWAP1 DUP2 DUP2 MSTORE PUSH1 0x20 ADD DUP3 DUP1 SLOAD PUSH2 0xC3F SWAP1 PUSH2 0x3F72 JUMP JUMPDEST DUP1 ISZERO PUSH2 0xC8C JUMPI DUP1 PUSH1 0x1F LT PUSH2 0xC61 JUMPI PUSH2 0x100 DUP1 DUP4 SLOAD DIV MUL DUP4 MSTORE SWAP2 PUSH1 0x20 ADD SWAP2 PUSH2 0xC8C JUMP JUMPDEST DUP3 ADD SWAP2 SWAP1 PUSH1 0x0 MSTORE PUSH1 0x20 PUSH1 0x0 KECCAK256 SWAP1 JUMPDEST DUP2 SLOAD DUP2 MSTORE SWAP1 PUSH1 0x1 ADD SWAP1 PUSH1 0x20 ADD DUP1 DUP4 GT PUSH2 0xC6F JUMPI DUP3 SWAP1 SUB PUSH1 0x1F AND DUP3 ADD SWAP2 JUMPDEST POP POP POP POP POP SWAP1 DUP1 PUSH1 0x2 ADD SLOAD SWAP1 DUP1 PUSH1 0x3 ADD SLOAD SWAP1 DUP1 PUSH1 0x4 ADD SLOAD SWAP1 DUP1 PUSH1 0x5 ADD SLOAD SWAP1 DUP1 PUSH1 0x6 ADD SLOAD SWAP1 DUP1 PUSH1 0x7 ADD SLOAD SWAP1 POP DUP9 JUMP JUMPDEST PUSH1 0x0 PUSH1 0x6 DUP3 MLOAD PUSH2 0xCCA SWAP2 SWAP1 PUSH2 0x4165 JUMP JUMPDEST SWAP1 POP PUSH7 0x38D7EA4C68000 DUP2 PUSH2 0xCDF SWAP2 SWAP1 PUSH2 0x4196 JUMP JUMPDEST CALLVALUE GT PUSH2 0xCEA JUMPI PUSH1 0x0 DUP1 REVERT JUMPDEST PUSH1 0x0 JUMPDEST DUP2 DUP2 LT ISZERO PUSH2 0x1090 JUMPI PUSH1 0x0 PUSH1 0x6 DUP3 PUSH2 0xD04 SWAP2 SWAP1 PUSH2 0x4196 JUMP JUMPDEST SWAP1 POP PUSH1 0x0 PUSH2 0xD2B DUP6 DUP4 DUP2 MLOAD DUP2 LT PUSH2 0xD1E JUMPI PUSH2 0xD1D PUSH2 0x41D8 JUMP JUMPDEST JUMPDEST PUSH1 0x20 MUL PUSH1 0x20 ADD ADD MLOAD PUSH2 0x316C JUMP JUMPDEST SWAP1 POP PUSH1 0x0 PUSH2 0xD5E DUP7 PUSH1 0x1 DUP6 PUSH2 0xD40 SWAP2 SWAP1 PUSH2 0x40CE JUMP JUMPDEST DUP2 MLOAD DUP2 LT PUSH2 0xD51 JUMPI PUSH2 0xD50 PUSH2 0x41D8 JUMP JUMPDEST JUMPDEST PUSH1 0x20 MUL PUSH1 0x20 ADD ADD MLOAD PUSH2 0x316C JUMP JUMPDEST SWAP1 POP PUSH1 0x0 PUSH2 0xD91 DUP8 PUSH1 0x2 DUP7 PUSH2 0xD73 SWAP2 SWAP1 PUSH2 0x40CE JUMP JUMPDEST DUP2 MLOAD DUP2 LT PUSH2 0xD84 JUMPI PUSH2 0xD83 PUSH2 0x41D8 JUMP JUMPDEST JUMPDEST PUSH1 0x20 MUL PUSH1 0x20 ADD ADD MLOAD PUSH2 0x316C JUMP JUMPDEST SWAP1 POP PUSH1 0x0 PUSH2 0xDC4 DUP9 PUSH1 0x3 DUP8 PUSH2 0xDA6 SWAP2 SWAP1 PUSH2 0x40CE JUMP JUMPDEST DUP2 MLOAD DUP2 LT PUSH2 0xDB7 JUMPI PUSH2 0xDB6 PUSH2 0x41D8 JUMP JUMPDEST JUMPDEST PUSH1 0x20 MUL PUSH1 0x20 ADD ADD MLOAD PUSH2 0x316C JUMP JUMPDEST SWAP1 POP PUSH1 0x0 PUSH2 0xDF7 DUP10 PUSH1 0x4 DUP9 PUSH2 0xDD9 SWAP2 SWAP1 PUSH2 0x40CE JUMP JUMPDEST DUP2 MLOAD DUP2 LT PUSH2 0xDEA JUMPI PUSH2 0xDE9 PUSH2 0x41D8 JUMP JUMPDEST JUMPDEST PUSH1 0x20 MUL PUSH1 0x20 ADD ADD MLOAD PUSH2 0x316C JUMP JUMPDEST SWAP1 POP PUSH1 0x0 PUSH2 0xE2A DUP11 PUSH1 0x5 DUP10 PUSH2 0xE0C SWAP2 SWAP1 PUSH2 0x40CE JUMP JUMPDEST DUP2 MLOAD DUP2 LT PUSH2 0xE1D JUMPI PUSH2 0xE1C PUSH2 0x41D8 JUMP JUMPDEST JUMPDEST PUSH1 0x20 MUL PUSH1 0x20 ADD ADD MLOAD PUSH2 0x316C JUMP JUMPDEST SWAP1 POP PUSH2 0xE34 PUSH2 0x345E JUMP JUMPDEST CALLER DUP2 PUSH1 0x0 ADD SWAP1 PUSH20 0xFFFFFFFFFFFFFFFFFFFFFFFFFFFFFFFFFFFFFFFF AND SWAP1 DUP2 PUSH20 0xFFFFFFFFFFFFFFFFFFFFFFFFFFFFFFFFFFFFFFFF AND DUP2 MSTORE POP POP PUSH2 0xE7A DUP8 DUP8 DUP8 DUP8 DUP8 DUP8 PUSH2 0x32F4 JUMP JUMPDEST DUP2 PUSH1 0x20 ADD DUP2 SWAP1 MSTORE POP DUP11 DUP9 DUP2 MLOAD DUP2 LT PUSH2 0xE95 JUMPI PUSH2 0xE94 PUSH2 0x41D8 JUMP JUMPDEST JUMPDEST PUSH1 0x20 MUL PUSH1 0x20 ADD ADD MLOAD DUP2 PUSH1 0x40 ADD DUP2 DUP2 MSTORE POP POP DUP11 PUSH1 0x1 DUP10 PUSH2 0xEB4 SWAP2 SWAP1 PUSH2 0x40CE JUMP JUMPDEST DUP2 MLOAD DUP2 LT PUSH2 0xEC5 JUMPI PUSH2 0xEC4 PUSH2 0x41D8 JUMP JUMPDEST JUMPDEST PUSH1 0x20 MUL PUSH1 0x20 ADD ADD MLOAD DUP2 PUSH1 0x60 ADD DUP2 DUP2 MSTORE POP POP DUP11 PUSH1 0x2 DUP10 PUSH2 0xEE4 SWAP2 SWAP1 PUSH2 0x40CE JUMP JUMPDEST DUP2 MLOAD DUP2 LT PUSH2 0xEF5 JUMPI PUSH2 0xEF4 PUSH2 0x41D8 JUMP JUMPDEST JUMPDEST PUSH1 0x20 MUL PUSH1 0x20 ADD ADD MLOAD DUP2 PUSH1 0x80 ADD DUP2 DUP2 MSTORE POP POP DUP11 PUSH1 0x3 DUP10 PUSH2 0xF14 SWAP2 SWAP1 PUSH2 0x40CE JUMP JUMPDEST DUP2 MLOAD DUP2 LT PUSH2 0xF25 JUMPI PUSH2 0xF24 PUSH2 0x41D8 JUMP JUMPDEST JUMPDEST PUSH1 0x20 MUL PUSH1 0x20 ADD ADD MLOAD DUP2 PUSH1 0xA0 ADD DUP2 DUP2 MSTORE POP POP DUP11 PUSH1 0x4 DUP10 PUSH2 0xF44 SWAP2 SWAP1 PUSH2 0x40CE JUMP JUMPDEST DUP2 MLOAD DUP2 LT PUSH2 0xF55 JUMPI PUSH2 0xF54 PUSH2 0x41D8 JUMP JUMPDEST JUMPDEST PUSH1 0x20 MUL PUSH1 0x20 ADD ADD MLOAD DUP2 PUSH1 0xC0 ADD DUP2 DUP2 MSTORE POP POP DUP11 PUSH1 0x5 DUP10 PUSH2 0xF74 SWAP2 SWAP1 PUSH2 0x40CE JUMP JUMPDEST DUP2 MLOAD DUP2 LT PUSH2 0xF85 JUMPI PUSH2 0xF84 PUSH2 0x41D8 JUMP JUMPDEST JUMPDEST PUSH1 0x20 MUL PUSH1 0x20 ADD ADD MLOAD DUP2 PUSH1 0xE0 ADD DUP2 DUP2 MSTORE POP POP PUSH1 0x2 DUP2 SWAP1 DUP1 PUSH1 0x1 DUP2 SLOAD ADD DUP1 DUP3 SSTORE DUP1 SWAP2 POP POP PUSH1 0x1 SWAP1 SUB SWAP1 PUSH1 0x0 MSTORE PUSH1 0x20 PUSH1 0x0 KECCAK256 SWAP1 PUSH1 0x8 MUL ADD PUSH1 0x0 SWAP1 SWAP2 SWAP1 SWAP2 SWAP1 SWAP2 POP PUSH1 0x0 DUP3 ADD MLOAD DUP2 PUSH1 0x0 ADD PUSH1 0x0 PUSH2 0x100 EXP DUP2 SLOAD DUP2 PUSH20 0xFFFFFFFFFFFFFFFFFFFFFFFFFFFFFFFFFFFFFFFF MUL NOT AND SWAP1 DUP4 PUSH20 0xFFFFFFFFFFFFFFFFFFFFFFFFFFFFFFFFFFFFFFFF AND MUL OR SWAP1 SSTORE POP PUSH1 0x20 DUP3 ADD MLOAD DUP2 PUSH1 0x1 ADD SWAP1 DUP2 PUSH2 0x101E SWAP2 SWAP1 PUSH2 0x43B3 JUMP JUMPDEST POP PUSH1 0x40 DUP3 ADD MLOAD DUP2 PUSH1 0x2 ADD SSTORE PUSH1 0x60 DUP3 ADD MLOAD DUP2 PUSH1 0x3 ADD SSTORE PUSH1 0x80 DUP3 ADD MLOAD DUP2 PUSH1 0x4 ADD SSTORE PUSH1 0xA0 DUP3 ADD MLOAD DUP2 PUSH1 0x5 ADD SSTORE PUSH1 0xC0 DUP3 ADD MLOAD DUP2 PUSH1 0x6 ADD SSTORE PUSH1 0xE0 DUP3 ADD MLOAD DUP2 PUSH1 0x7 ADD SSTORE POP POP PUSH1 0x8 PUSH1 0x0 DUP2 SLOAD DUP1 SWAP3 SWAP2 SWAP1 PUSH2 0x1070 SWAP1 PUSH2 0x4485 JUMP JUMPDEST SWAP2 SWAP1 POP SSTORE POP POP POP POP POP POP POP POP POP DUP1 DUP1 PUSH2 0x1088 SWAP1 PUSH2 0x4485 JUMP JUMPDEST SWAP2 POP POP PUSH2 0xCED JUMP JUMPDEST POP SELFBALANCE PUSH1 0x6 DUP2 SWAP1 SSTORE POP POP POP JUMP JUMPDEST PUSH1 0x13 SLOAD DUP2 JUMP JUMPDEST PUSH1 0x19 SLOAD DUP2 JUMP JUMPDEST PUSH1 0x4 DUP1 SLOAD PUSH2 0x10B5 SWAP1 PUSH2 0x3F72 JUMP JUMPDEST DUP1 PUSH1 0x1F ADD PUSH1 0x20 DUP1 SWAP2 DIV MUL PUSH1 0x20 ADD PUSH1 0x40 MLOAD SWAP1 DUP2 ADD PUSH1 0x40 MSTORE DUP1 SWAP3 SWAP2 SWAP1 DUP2 DUP2 MSTORE PUSH1 0x20 ADD DUP3 DUP1 SLOAD PUSH2 0x10E1 SWAP1 PUSH2 0x3F72 JUMP JUMPDEST DUP1 ISZERO PUSH2 0x112E JUMPI DUP1 PUSH1 0x1F LT PUSH2 0x1103 JUMPI PUSH2 0x100 DUP1 DUP4 SLOAD DIV MUL DUP4 MSTORE SWAP2 PUSH1 0x20 ADD SWAP2 PUSH2 0x112E JUMP JUMPDEST DUP3 ADD SWAP2 SWAP1 PUSH1 0x0 MSTORE PUSH1 0x20 PUSH1 0x0 KECCAK256 SWAP1 JUMPDEST DUP2 SLOAD DUP2 MSTORE SWAP1 PUSH1 0x1 ADD SWAP1 PUSH1 0x20 ADD DUP1 DUP4 GT PUSH2 0x1111 JUMPI DUP3 SWAP1 SUB PUSH1 0x1F AND DUP3 ADD SWAP2 JUMPDEST POP POP POP POP POP DUP2 JUMP JUMPDEST PUSH1 0x60 PUSH1 0x5 DUP1 SLOAD DUP1 PUSH1 0x20 MUL PUSH1 0x20 ADD PUSH1 0x40 MLOAD SWAP1 DUP2 ADD PUSH1 0x40 MSTORE DUP1 SWAP3 SWAP2 SWAP1 DUP2 DUP2 MSTORE PUSH1 0x20 ADD DUP3 DUP1 SLOAD DUP1 ISZERO PUSH2 0x11BA JUMPI PUSH1 0x20 MUL DUP3 ADD SWAP2 SWAP1 PUSH1 0x0 MSTORE PUSH1 0x20 PUSH1 0x0 KECCAK256 SWAP1 JUMPDEST DUP2 PUSH1 0x0 SWAP1 SLOAD SWAP1 PUSH2 0x100 EXP SWAP1 DIV PUSH20 0xFFFFFFFFFFFFFFFFFFFFFFFFFFFFFFFFFFFFFFFF AND PUSH20 0xFFFFFFFFFFFFFFFFFFFFFFFFFFFFFFFFFFFFFFFF AND DUP2 MSTORE PUSH1 0x20 ADD SWAP1 PUSH1 0x1 ADD SWAP1 DUP1 DUP4 GT PUSH2 0x1170 JUMPI JUMPDEST POP POP POP POP POP SWAP1 POP SWAP1 JUMP JUMPDEST PUSH1 0x1D SLOAD DUP2 JUMP JUMPDEST PUSH1 0x8 SLOAD DUP2 JUMP JUMPDEST PUSH1 0x14 DUP2 DUP2 SLOAD DUP2 LT PUSH2 0x11E0 JUMPI PUSH1 0x0 DUP1 REVERT JUMPDEST SWAP1 PUSH1 0x0 MSTORE PUSH1 0x20 PUSH1 0x0 KECCAK256 ADD PUSH1 0x0 SWAP2 POP SWAP1 POP SLOAD DUP2 JUMP JUMPDEST PUSH1 0x5 DUP2 DUP2 SLOAD DUP2 LT PUSH2 0x1204 JUMPI PUSH1 0x0 DUP1 REVERT JUMPDEST SWAP1 PUSH1 0x0 MSTORE PUSH1 0x20 PUSH1 0x0 KECCAK256 ADD PUSH1 0x0 SWAP2 POP SLOAD SWAP1 PUSH2 0x100 EXP SWAP1 DIV PUSH20 0xFFFFFFFFFFFFFFFFFFFFFFFFFFFFFFFFFFFFFFFF AND DUP2 JUMP JUMPDEST PUSH1 0x1B PUSH1 0x0 SWAP1 SLOAD SWAP1 PUSH2 0x100 EXP SWAP1 DIV PUSH1 0xFF AND DUP2 JUMP JUMPDEST PUSH1 0x1C SLOAD DUP2 JUMP JUMPDEST PUSH1 0x2 DUP2 DUP2 SLOAD DUP2 LT PUSH2 0x125C JUMPI PUSH1 0x0 DUP1 REVERT JUMPDEST SWAP1 PUSH1 0x0 MSTORE PUSH1 0x20 PUSH1 0x0 KECCAK256 SWAP1 PUSH1 0x8 MUL ADD PUSH1 0x0 SWAP2 POP SWAP1 POP DUP1 PUSH1 0x0 ADD PUSH1 0x0 SWAP1 SLOAD SWAP1 PUSH2 0x100 EXP SWAP1 DIV PUSH20 0xFFFFFFFFFFFFFFFFFFFFFFFFFFFFFFFFFFFFFFFF AND SWAP1 DUP1 PUSH1 0x1 ADD DUP1 SLOAD PUSH2 0x12A5 SWAP1 PUSH2 0x3F72 JUMP JUMPDEST DUP1 PUSH1 0x1F ADD PUSH1 0x20 DUP1 SWAP2 DIV MUL PUSH1 0x20 ADD PUSH1 0x40 MLOAD SWAP1 DUP2 ADD PUSH1 0x40 MSTORE DUP1 SWAP3 SWAP2 SWAP1 DUP2 DUP2 MSTORE PUSH1 0x20 ADD DUP3 DUP1 SLOAD PUSH2 0x12D1 SWAP1 PUSH2 0x3F72 JUMP JUMPDEST DUP1 ISZERO PUSH2 0x131E JUMPI DUP1 PUSH1 0x1F LT PUSH2 0x12F3 JUMPI PUSH2 0x100 DUP1 DUP4 SLOAD DIV MUL DUP4 MSTORE SWAP2 PUSH1 0x20 ADD SWAP2 PUSH2 0x131E JUMP JUMPDEST DUP3 ADD SWAP2 SWAP1 PUSH1 0x0 MSTORE PUSH1 0x20 PUSH1 0x0 KECCAK256 SWAP1 JUMPDEST DUP2 SLOAD DUP2 MSTORE SWAP1 PUSH1 0x1 ADD SWAP1 PUSH1 0x20 ADD DUP1 DUP4 GT PUSH2 0x1301 JUMPI DUP3 SWAP1 SUB PUSH1 0x1F AND DUP3 ADD SWAP2 JUMPDEST POP POP POP POP POP SWAP1 DUP1 PUSH1 0x2 ADD SLOAD SWAP1 DUP1 PUSH1 0x3 ADD SLOAD SWAP1 DUP1 PUSH1 0x4 ADD SLOAD SWAP1 DUP1 PUSH1 0x5 ADD SLOAD SWAP1 DUP1 PUSH1 0x6 ADD SLOAD SWAP1 DUP1 PUSH1 0x7 ADD SLOAD SWAP1 POP DUP9 JUMP JUMPDEST PUSH1 0x16 SLOAD DUP2 JUMP JUMPDEST PUSH1 0x15 DUP2 DUP2 SLOAD DUP2 LT PUSH2 0x1362 JUMPI PUSH1 0x0 DUP1 REVERT JUMPDEST SWAP1 PUSH1 0x0 MSTORE PUSH1 0x20 PUSH1 0x0 KECCAK256 ADD PUSH1 0x0 SWAP2 POP SWAP1 POP SLOAD DUP2 JUMP JUMPDEST PUSH1 0x1 PUSH1 0x0 SWAP1 SLOAD SWAP1 PUSH2 0x100 EXP SWAP1 DIV PUSH20 0xFFFFFFFFFFFFFFFFFFFFFFFFFFFFFFFFFFFFFFFF AND DUP2 JUMP JUMPDEST PUSH1 0x0 PUSH1 0x1 PUSH1 0x3C DUP4 PUSH1 0x0 DUP2 MLOAD DUP2 LT PUSH2 0x13B6 JUMPI PUSH2 0x13B5 PUSH2 0x41D8 JUMP JUMPDEST JUMPDEST PUSH1 0x20 MUL PUSH1 0x20 ADD ADD MLOAD PUSH2 0x13C8 SWAP2 SWAP1 PUSH2 0x44CD JUMP JUMPDEST PUSH2 0x13D2 SWAP2 SWAP1 PUSH2 0x40CE JUMP JUMPDEST SWAP1 POP PUSH1 0x0 PUSH1 0x1 PUSH1 0x3C DUP5 PUSH1 0x1 DUP2 MLOAD DUP2 LT PUSH2 0x13EE JUMPI PUSH2 0x13ED PUSH2 0x41D8 JUMP JUMPDEST JUMPDEST PUSH1 0x20 MUL PUSH1 0x20 ADD ADD MLOAD PUSH2 0x1400 SWAP2 SWAP1 PUSH2 0x44CD JUMP JUMPDEST PUSH2 0x140A SWAP2 SWAP1 PUSH2 0x40CE JUMP JUMPDEST SWAP1 POP PUSH1 0x0 PUSH1 0x1 PUSH1 0x3C DUP6 PUSH1 0x2 DUP2 MLOAD DUP2 LT PUSH2 0x1426 JUMPI PUSH2 0x1425 PUSH2 0x41D8 JUMP JUMPDEST JUMPDEST PUSH1 0x20 MUL PUSH1 0x20 ADD ADD MLOAD PUSH2 0x1438 SWAP2 SWAP1 PUSH2 0x44CD JUMP JUMPDEST PUSH2 0x1442 SWAP2 SWAP1 PUSH2 0x40CE JUMP JUMPDEST SWAP1 POP PUSH1 0x0 PUSH1 0x1 PUSH1 0x3C DUP7 PUSH1 0x3 DUP2 MLOAD DUP2 LT PUSH2 0x145E JUMPI PUSH2 0x145D PUSH2 0x41D8 JUMP JUMPDEST JUMPDEST PUSH1 0x20 MUL PUSH1 0x20 ADD ADD MLOAD PUSH2 0x1470 SWAP2 SWAP1 PUSH2 0x44CD JUMP JUMPDEST PUSH2 0x147A SWAP2 SWAP1 PUSH2 0x40CE JUMP JUMPDEST SWAP1 POP PUSH1 0x0 PUSH1 0x1 PUSH1 0x3C DUP8 PUSH1 0x4 DUP2 MLOAD DUP2 LT PUSH2 0x1496 JUMPI PUSH2 0x1495 PUSH2 0x41D8 JUMP JUMPDEST JUMPDEST PUSH1 0x20 MUL PUSH1 0x20 ADD ADD MLOAD PUSH2 0x14A8 SWAP2 SWAP1 PUSH2 0x44CD JUMP JUMPDEST PUSH2 0x14B2 SWAP2 SWAP1 PUSH2 0x40CE JUMP JUMPDEST SWAP1 POP PUSH1 0x0 PUSH1 0x1 PUSH1 0x3C DUP9 PUSH1 0x5 DUP2 MLOAD DUP2 LT PUSH2 0x14CE JUMPI PUSH2 0x14CD PUSH2 0x41D8 JUMP JUMPDEST JUMPDEST PUSH1 0x20 MUL PUSH1 0x20 ADD ADD MLOAD PUSH2 0x14E0 SWAP2 SWAP1 PUSH2 0x44CD JUMP JUMPDEST PUSH2 0x14EA SWAP2 SWAP1 PUSH2 0x40CE JUMP JUMPDEST SWAP1 POP DUP5 DUP7 EQ DUP1 PUSH2 0x14F9 JUMPI POP DUP4 DUP7 EQ JUMPDEST DUP1 PUSH2 0x1503 JUMPI POP DUP3 DUP7 EQ JUMPDEST DUP1 PUSH2 0x150D JUMPI POP DUP2 DUP7 EQ JUMPDEST DUP1 PUSH2 0x1517 JUMPI POP DUP1 DUP7 EQ JUMPDEST DUP1 PUSH2 0x1521 JUMPI POP DUP4 DUP6 EQ JUMPDEST DUP1 PUSH2 0x152B JUMPI POP DUP3 DUP6 EQ JUMPDEST DUP1 PUSH2 0x1535 JUMPI POP DUP2 DUP6 EQ JUMPDEST DUP1 PUSH2 0x153F JUMPI POP DUP1 DUP6 EQ JUMPDEST DUP1 PUSH2 0x1549 JUMPI POP DUP3 DUP5 EQ JUMPDEST DUP1 PUSH2 0x1553 JUMPI POP DUP2 DUP5 EQ JUMPDEST DUP1 PUSH2 0x155D JUMPI POP DUP1 DUP5 EQ JUMPDEST DUP1 PUSH2 0x1567 JUMPI POP DUP2 DUP4 EQ JUMPDEST DUP1 PUSH2 0x1571 JUMPI POP DUP1 DUP4 EQ JUMPDEST DUP1 PUSH2 0x157B JUMPI POP DUP1 DUP3 EQ JUMPDEST ISZERO PUSH2 0x158D JUMPI PUSH2 0x1588 PUSH2 0x3074 JUMP JUMPDEST PUSH2 0x15C0 JUMP JUMPDEST DUP7 PUSH1 0x15 SWAP1 DUP1 MLOAD SWAP1 PUSH1 0x20 ADD SWAP1 PUSH2 0x15A3 SWAP3 SWAP2 SWAP1 PUSH2 0x34B9 JUMP JUMPDEST POP PUSH1 0x1 PUSH1 0x1B PUSH1 0x0 PUSH2 0x100 EXP DUP2 SLOAD DUP2 PUSH1 0xFF MUL NOT AND SWAP1 DUP4 ISZERO ISZERO MUL OR SWAP1 SSTORE POP JUMPDEST POP POP POP POP POP POP POP POP JUMP JUMPDEST PUSH2 0x15D2 PUSH2 0x345E JUMP JUMPDEST PUSH1 0x0 PUSH2 0x1614 PUSH1 0x1 PUSH1 0x3C PUSH1 0x15 PUSH1 0x0 DUP2 SLOAD DUP2 LT PUSH2 0x15F0 JUMPI PUSH2 0x15EF PUSH2 0x41D8 JUMP JUMPDEST JUMPDEST SWAP1 PUSH1 0x0 MSTORE PUSH1 0x20 PUSH1 0x0 KECCAK256 ADD SLOAD PUSH2 0x1605 SWAP2 SWAP1 PUSH2 0x44CD JUMP JUMPDEST PUSH2 0x160F SWAP2 SWAP1 PUSH2 0x40CE JUMP JUMPDEST PUSH2 0x316C JUMP JUMPDEST SWAP1 POP PUSH1 0x0 PUSH2 0x1658 PUSH1 0x1 PUSH1 0x3C PUSH1 0x15 PUSH1 0x1 DUP2 SLOAD DUP2 LT PUSH2 0x1634 JUMPI PUSH2 0x1633 PUSH2 0x41D8 JUMP JUMPDEST JUMPDEST SWAP1 PUSH1 0x0 MSTORE PUSH1 0x20 PUSH1 0x0 KECCAK256 ADD SLOAD PUSH2 0x1649 SWAP2 SWAP1 PUSH2 0x44CD JUMP JUMPDEST PUSH2 0x1653 SWAP2 SWAP1 PUSH2 0x40CE JUMP JUMPDEST PUSH2 0x316C JUMP JUMPDEST SWAP1 POP PUSH1 0x0 PUSH2 0x169C PUSH1 0x1 PUSH1 0x3C PUSH1 0x15 PUSH1 0x2 DUP2 SLOAD DUP2 LT PUSH2 0x1678 JUMPI PUSH2 0x1677 PUSH2 0x41D8 JUMP JUMPDEST JUMPDEST SWAP1 PUSH1 0x0 MSTORE PUSH1 0x20 PUSH1 0x0 KECCAK256 ADD SLOAD PUSH2 0x168D SWAP2 SWAP1 PUSH2 0x44CD JUMP JUMPDEST PUSH2 0x1697 SWAP2 SWAP1 PUSH2 0x40CE JUMP JUMPDEST PUSH2 0x316C JUMP JUMPDEST SWAP1 POP PUSH1 0x0 PUSH2 0x16E0 PUSH1 0x1 PUSH1 0x3C PUSH1 0x15 PUSH1 0x3 DUP2 SLOAD DUP2 LT PUSH2 0x16BC JUMPI PUSH2 0x16BB PUSH2 0x41D8 JUMP JUMPDEST JUMPDEST SWAP1 PUSH1 0x0 MSTORE PUSH1 0x20 PUSH1 0x0 KECCAK256 ADD SLOAD PUSH2 0x16D1 SWAP2 SWAP1 PUSH2 0x44CD JUMP JUMPDEST PUSH2 0x16DB SWAP2 SWAP1 PUSH2 0x40CE JUMP JUMPDEST PUSH2 0x316C JUMP JUMPDEST SWAP1 POP PUSH1 0x0 PUSH2 0x1724 PUSH1 0x1 PUSH1 0x3C PUSH1 0x15 PUSH1 0x4 DUP2 SLOAD DUP2 LT PUSH2 0x1700 JUMPI PUSH2 0x16FF PUSH2 0x41D8 JUMP JUMPDEST JUMPDEST SWAP1 PUSH1 0x0 MSTORE PUSH1 0x20 PUSH1 0x0 KECCAK256 ADD SLOAD PUSH2 0x1715 SWAP2 SWAP1 PUSH2 0x44CD JUMP JUMPDEST PUSH2 0x171F SWAP2 SWAP1 PUSH2 0x40CE JUMP JUMPDEST PUSH2 0x316C JUMP JUMPDEST SWAP1 POP PUSH1 0x0 PUSH2 0x1768 PUSH1 0x1 PUSH1 0x3C PUSH1 0x15 PUSH1 0x5 DUP2 SLOAD DUP2 LT PUSH2 0x1744 JUMPI PUSH2 0x1743 PUSH2 0x41D8 JUMP JUMPDEST JUMPDEST SWAP1 PUSH1 0x0 MSTORE PUSH1 0x20 PUSH1 0x0 KECCAK256 ADD SLOAD PUSH2 0x1759 SWAP2 SWAP1 PUSH2 0x44CD JUMP JUMPDEST PUSH2 0x1763 SWAP2 SWAP1 PUSH2 0x40CE JUMP JUMPDEST PUSH2 0x316C JUMP JUMPDEST SWAP1 POP PUSH2 0x1778 DUP7 DUP7 DUP7 DUP7 DUP7 DUP7 PUSH2 0x32F4 JUMP JUMPDEST DUP8 PUSH1 0x20 ADD DUP2 SWAP1 MSTORE POP PUSH1 0x1 PUSH1 0x3C PUSH1 0x15 PUSH1 0x0 DUP2 SLOAD DUP2 LT PUSH2 0x1799 JUMPI PUSH2 0x1798 PUSH2 0x41D8 JUMP JUMPDEST JUMPDEST SWAP1 PUSH1 0x0 MSTORE PUSH1 0x20 PUSH1 0x0 KECCAK256 ADD SLOAD PUSH2 0x17AE SWAP2 SWAP1 PUSH2 0x44CD JUMP JUMPDEST PUSH2 0x17B8 SWAP2 SWAP1 PUSH2 0x40CE JUMP JUMPDEST DUP8 PUSH1 0x40 ADD DUP2 DUP2 MSTORE POP POP PUSH1 0x1 PUSH1 0x3C PUSH1 0x15 PUSH1 0x1 DUP2 SLOAD DUP2 LT PUSH2 0x17DA JUMPI PUSH2 0x17D9 PUSH2 0x41D8 JUMP JUMPDEST JUMPDEST SWAP1 PUSH1 0x0 MSTORE PUSH1 0x20 PUSH1 0x0 KECCAK256 ADD SLOAD PUSH2 0x17EF SWAP2 SWAP1 PUSH2 0x44CD JUMP JUMPDEST PUSH2 0x17F9 SWAP2 SWAP1 PUSH2 0x40CE JUMP JUMPDEST DUP8 PUSH1 0x60 ADD DUP2 DUP2 MSTORE POP POP PUSH1 0x1 PUSH1 0x3C PUSH1 0x15 PUSH1 0x2 DUP2 SLOAD DUP2 LT PUSH2 0x181B JUMPI PUSH2 0x181A PUSH2 0x41D8 JUMP JUMPDEST JUMPDEST SWAP1 PUSH1 0x0 MSTORE PUSH1 0x20 PUSH1 0x0 KECCAK256 ADD SLOAD PUSH2 0x1830 SWAP2 SWAP1 PUSH2 0x44CD JUMP JUMPDEST PUSH2 0x183A SWAP2 SWAP1 PUSH2 0x40CE JUMP JUMPDEST DUP8 PUSH1 0x80 ADD DUP2 DUP2 MSTORE POP POP PUSH1 0x1 PUSH1 0x3C PUSH1 0x15 PUSH1 0x3 DUP2 SLOAD DUP2 LT PUSH2 0x185C JUMPI PUSH2 0x185B PUSH2 0x41D8 JUMP JUMPDEST JUMPDEST SWAP1 PUSH1 0x0 MSTORE PUSH1 0x20 PUSH1 0x0 KECCAK256 ADD SLOAD PUSH2 0x1871 SWAP2 SWAP1 PUSH2 0x44CD JUMP JUMPDEST PUSH2 0x187B SWAP2 SWAP1 PUSH2 0x40CE JUMP JUMPDEST DUP8 PUSH1 0xA0 ADD DUP2 DUP2 MSTORE POP POP PUSH1 0x1 PUSH1 0x3C PUSH1 0x15 PUSH1 0x4 DUP2 SLOAD DUP2 LT PUSH2 0x189D JUMPI PUSH2 0x189C PUSH2 0x41D8 JUMP JUMPDEST JUMPDEST SWAP1 PUSH1 0x0 MSTORE PUSH1 0x20 PUSH1 0x0 KECCAK256 ADD SLOAD PUSH2 0x18B2 SWAP2 SWAP1 PUSH2 0x44CD JUMP JUMPDEST PUSH2 0x18BC SWAP2 SWAP1 PUSH2 0x40CE JUMP JUMPDEST DUP8 PUSH1 0xC0 ADD DUP2 DUP2 MSTORE POP POP PUSH1 0x1 PUSH1 0x3C PUSH1 0x15 PUSH1 0x5 DUP2 SLOAD DUP2 LT PUSH2 0x18DE JUMPI PUSH2 0x18DD PUSH2 0x41D8 JUMP JUMPDEST JUMPDEST SWAP1 PUSH1 0x0 MSTORE PUSH1 0x20 PUSH1 0x0 KECCAK256 ADD SLOAD PUSH2 0x18F3 SWAP2 SWAP1 PUSH2 0x44CD JUMP JUMPDEST PUSH2 0x18FD SWAP2 SWAP1 PUSH2 0x40CE JUMP JUMPDEST DUP8 PUSH1 0xE0 ADD DUP2 DUP2 MSTORE POP POP PUSH1 0x0 PUSH1 0xA SWAP1 POP PUSH1 0x0 PUSH1 0xB SWAP1 POP PUSH1 0x0 PUSH1 0xC SWAP1 POP PUSH1 0x0 PUSH1 0xD SWAP1 POP PUSH1 0x0 PUSH1 0xE SWAP1 POP PUSH1 0x0 PUSH1 0xF SWAP1 POP PUSH1 0x0 SELFBALANCE SWAP1 POP PUSH1 0x0 JUMPDEST PUSH1 0x8 SLOAD DUP2 LT ISZERO PUSH2 0x264E JUMPI PUSH1 0x0 DUP16 PUSH1 0x40 ADD MLOAD PUSH1 0x2 DUP4 DUP2 SLOAD DUP2 LT PUSH2 0x1957 JUMPI PUSH2 0x1956 PUSH2 0x41D8 JUMP JUMPDEST JUMPDEST SWAP1 PUSH1 0x0 MSTORE PUSH1 0x20 PUSH1 0x0 KECCAK256 SWAP1 PUSH1 0x8 MUL ADD PUSH1 0x2 ADD SLOAD SUB PUSH2 0x197D JUMPI DUP1 DUP1 PUSH2 0x1979 SWAP1 PUSH2 0x4485 JUMP JUMPDEST SWAP2 POP POP JUMPDEST DUP16 PUSH1 0x60 ADD MLOAD PUSH1 0x2 DUP4 DUP2 SLOAD DUP2 LT PUSH2 0x1996 JUMPI PUSH2 0x1995 PUSH2 0x41D8 JUMP JUMPDEST JUMPDEST SWAP1 PUSH1 0x0 MSTORE PUSH1 0x20 PUSH1 0x0 KECCAK256 SWAP1 PUSH1 0x8 MUL ADD PUSH1 0x2 ADD SLOAD SUB PUSH2 0x19BC JUMPI DUP1 DUP1 PUSH2 0x19B8 SWAP1 PUSH2 0x4485 JUMP JUMPDEST SWAP2 POP POP JUMPDEST DUP16 PUSH1 0x80 ADD MLOAD PUSH1 0x2 DUP4 DUP2 SLOAD DUP2 LT PUSH2 0x19D5 JUMPI PUSH2 0x19D4 PUSH2 0x41D8 JUMP JUMPDEST JUMPDEST SWAP1 PUSH1 0x0 MSTORE PUSH1 0x20 PUSH1 0x0 KECCAK256 SWAP1 PUSH1 0x8 MUL ADD PUSH1 0x2 ADD SLOAD SUB PUSH2 0x19FB JUMPI DUP1 DUP1 PUSH2 0x19F7 SWAP1 PUSH2 0x4485 JUMP JUMPDEST SWAP2 POP POP JUMPDEST DUP16 PUSH1 0xA0 ADD MLOAD PUSH1 0x2 DUP4 DUP2 SLOAD DUP2 LT PUSH2 0x1A14 JUMPI PUSH2 0x1A13 PUSH2 0x41D8 JUMP JUMPDEST JUMPDEST SWAP1 PUSH1 0x0 MSTORE PUSH1 0x20 PUSH1 0x0 KECCAK256 SWAP1 PUSH1 0x8 MUL ADD PUSH1 0x2 ADD SLOAD SUB PUSH2 0x1A3A JUMPI DUP1 DUP1 PUSH2 0x1A36 SWAP1 PUSH2 0x4485 JUMP JUMPDEST SWAP2 POP POP JUMPDEST DUP16 PUSH1 0xC0 ADD MLOAD PUSH1 0x2 DUP4 DUP2 SLOAD DUP2 LT PUSH2 0x1A53 JUMPI PUSH2 0x1A52 PUSH2 0x41D8 JUMP JUMPDEST JUMPDEST SWAP1 PUSH1 0x0 MSTORE PUSH1 0x20 PUSH1 0x0 KECCAK256 SWAP1 PUSH1 0x8 MUL ADD PUSH1 0x2 ADD SLOAD SUB PUSH2 0x1A79 JUMPI DUP1 DUP1 PUSH2 0x1A75 SWAP1 PUSH2 0x4485 JUMP JUMPDEST SWAP2 POP POP JUMPDEST DUP16 PUSH1 0xE0 ADD MLOAD PUSH1 0x2 DUP4 DUP2 SLOAD DUP2 LT PUSH2 0x1A92 JUMPI PUSH2 0x1A91 PUSH2 0x41D8 JUMP JUMPDEST JUMPDEST SWAP1 PUSH1 0x0 MSTORE PUSH1 0x20 PUSH1 0x0 KECCAK256 SWAP1 PUSH1 0x8 MUL ADD PUSH1 0x2 ADD SLOAD SUB PUSH2 0x1AB8 JUMPI DUP1 DUP1 PUSH2 0x1AB4 SWAP1 PUSH2 0x4485 JUMP JUMPDEST SWAP2 POP POP JUMPDEST DUP16 PUSH1 0x40 ADD MLOAD PUSH1 0x2 DUP4 DUP2 SLOAD DUP2 LT PUSH2 0x1AD1 JUMPI PUSH2 0x1AD0 PUSH2 0x41D8 JUMP JUMPDEST JUMPDEST SWAP1 PUSH1 0x0 MSTORE PUSH1 0x20 PUSH1 0x0 KECCAK256 SWAP1 PUSH1 0x8 MUL ADD PUSH1 0x3 ADD SLOAD SUB PUSH2 0x1AF7 JUMPI DUP1 DUP1 PUSH2 0x1AF3 SWAP1 PUSH2 0x4485 JUMP JUMPDEST SWAP2 POP POP JUMPDEST DUP16 PUSH1 0x60 ADD MLOAD PUSH1 0x2 DUP4 DUP2 SLOAD DUP2 LT PUSH2 0x1B10 JUMPI PUSH2 0x1B0F PUSH2 0x41D8 JUMP JUMPDEST JUMPDEST SWAP1 PUSH1 0x0 MSTORE PUSH1 0x20 PUSH1 0x0 KECCAK256 SWAP1 PUSH1 0x8 MUL ADD PUSH1 0x3 ADD SLOAD SUB PUSH2 0x1B36 JUMPI DUP1 DUP1 PUSH2 0x1B32 SWAP1 PUSH2 0x4485 JUMP JUMPDEST SWAP2 POP POP JUMPDEST DUP16 PUSH1 0x80 ADD MLOAD PUSH1 0x2 DUP4 DUP2 SLOAD DUP2 LT PUSH2 0x1B4F JUMPI PUSH2 0x1B4E PUSH2 0x41D8 JUMP JUMPDEST JUMPDEST SWAP1 PUSH1 0x0 MSTORE PUSH1 0x20 PUSH1 0x0 KECCAK256 SWAP1 PUSH1 0x8 MUL ADD PUSH1 0x3 ADD SLOAD SUB PUSH2 0x1B75 JUMPI DUP1 DUP1 PUSH2 0x1B71 SWAP1 PUSH2 0x4485 JUMP JUMPDEST SWAP2 POP POP JUMPDEST DUP16 PUSH1 0xA0 ADD MLOAD PUSH1 0x2 DUP4 DUP2 SLOAD DUP2 LT PUSH2 0x1B8E JUMPI PUSH2 0x1B8D PUSH2 0x41D8 JUMP JUMPDEST JUMPDEST SWAP1 PUSH1 0x0 MSTORE PUSH1 0x20 PUSH1 0x0 KECCAK256 SWAP1 PUSH1 0x8 MUL ADD PUSH1 0x3 ADD SLOAD SUB PUSH2 0x1BB4 JUMPI DUP1 DUP1 PUSH2 0x1BB0 SWAP1 PUSH2 0x4485 JUMP JUMPDEST SWAP2 POP POP JUMPDEST DUP16 PUSH1 0xC0 ADD MLOAD PUSH1 0x2 DUP4 DUP2 SLOAD DUP2 LT PUSH2 0x1BCD JUMPI PUSH2 0x1BCC PUSH2 0x41D8 JUMP JUMPDEST JUMPDEST SWAP1 PUSH1 0x0 MSTORE PUSH1 0x20 PUSH1 0x0 KECCAK256 SWAP1 PUSH1 0x8 MUL ADD PUSH1 0x3 ADD SLOAD SUB PUSH2 0x1BF3 JUMPI DUP1 DUP1 PUSH2 0x1BEF SWAP1 PUSH2 0x4485 JUMP JUMPDEST SWAP2 POP POP JUMPDEST DUP16 PUSH1 0xE0 ADD MLOAD PUSH1 0x2 DUP4 DUP2 SLOAD DUP2 LT PUSH2 0x1C0C JUMPI PUSH2 0x1C0B PUSH2 0x41D8 JUMP JUMPDEST JUMPDEST SWAP1 PUSH1 0x0 MSTORE PUSH1 0x20 PUSH1 0x0 KECCAK256 SWAP1 PUSH1 0x8 MUL ADD PUSH1 0x3 ADD SLOAD SUB PUSH2 0x1C32 JUMPI DUP1 DUP1 PUSH2 0x1C2E SWAP1 PUSH2 0x4485 JUMP JUMPDEST SWAP2 POP POP JUMPDEST DUP16 PUSH1 0x40 ADD MLOAD PUSH1 0x2 DUP4 DUP2 SLOAD DUP2 LT PUSH2 0x1C4B JUMPI PUSH2 0x1C4A PUSH2 0x41D8 JUMP JUMPDEST JUMPDEST SWAP1 PUSH1 0x0 MSTORE PUSH1 0x20 PUSH1 0x0 KECCAK256 SWAP1 PUSH1 0x8 MUL ADD PUSH1 0x4 ADD SLOAD SUB PUSH2 0x1C71 JUMPI DUP1 DUP1 PUSH2 0x1C6D SWAP1 PUSH2 0x4485 JUMP JUMPDEST SWAP2 POP POP JUMPDEST DUP16 PUSH1 0x60 ADD MLOAD PUSH1 0x2 DUP4 DUP2 SLOAD DUP2 LT PUSH2 0x1C8A JUMPI PUSH2 0x1C89 PUSH2 0x41D8 JUMP JUMPDEST JUMPDEST SWAP1 PUSH1 0x0 MSTORE PUSH1 0x20 PUSH1 0x0 KECCAK256 SWAP1 PUSH1 0x8 MUL ADD PUSH1 0x4 ADD SLOAD SUB PUSH2 0x1CB0 JUMPI DUP1 DUP1 PUSH2 0x1CAC SWAP1 PUSH2 0x4485 JUMP JUMPDEST SWAP2 POP POP JUMPDEST DUP16 PUSH1 0x80 ADD MLOAD PUSH1 0x2 DUP4 DUP2 SLOAD DUP2 LT PUSH2 0x1CC9 JUMPI PUSH2 0x1CC8 PUSH2 0x41D8 JUMP JUMPDEST JUMPDEST SWAP1 PUSH1 0x0 MSTORE PUSH1 0x20 PUSH1 0x0 KECCAK256 SWAP1 PUSH1 0x8 MUL ADD PUSH1 0x4 ADD SLOAD SUB PUSH2 0x1CEF JUMPI DUP1 DUP1 PUSH2 0x1CEB SWAP1 PUSH2 0x4485 JUMP JUMPDEST SWAP2 POP POP JUMPDEST DUP16 PUSH1 0xA0 ADD MLOAD PUSH1 0x2 DUP4 DUP2 SLOAD DUP2 LT PUSH2 0x1D08 JUMPI PUSH2 0x1D07 PUSH2 0x41D8 JUMP JUMPDEST JUMPDEST SWAP1 PUSH1 0x0 MSTORE PUSH1 0x20 PUSH1 0x0 KECCAK256 SWAP1 PUSH1 0x8 MUL ADD PUSH1 0x4 ADD SLOAD SUB PUSH2 0x1D2E JUMPI DUP1 DUP1 PUSH2 0x1D2A SWAP1 PUSH2 0x4485 JUMP JUMPDEST SWAP2 POP POP JUMPDEST DUP16 PUSH1 0xC0 ADD MLOAD PUSH1 0x2 DUP4 DUP2 SLOAD DUP2 LT PUSH2 0x1D47 JUMPI PUSH2 0x1D46 PUSH2 0x41D8 JUMP JUMPDEST JUMPDEST SWAP1 PUSH1 0x0 MSTORE PUSH1 0x20 PUSH1 0x0 KECCAK256 SWAP1 PUSH1 0x8 MUL ADD PUSH1 0x4 ADD SLOAD SUB PUSH2 0x1D6D JUMPI DUP1 DUP1 PUSH2 0x1D69 SWAP1 PUSH2 0x4485 JUMP JUMPDEST SWAP2 POP POP JUMPDEST DUP16 PUSH1 0xE0 ADD MLOAD PUSH1 0x2 DUP4 DUP2 SLOAD DUP2 LT PUSH2 0x1D86 JUMPI PUSH2 0x1D85 PUSH2 0x41D8 JUMP JUMPDEST JUMPDEST SWAP1 PUSH1 0x0 MSTORE PUSH1 0x20 PUSH1 0x0 KECCAK256 SWAP1 PUSH1 0x8 MUL ADD PUSH1 0x4 ADD SLOAD SUB PUSH2 0x1DAC JUMPI DUP1 DUP1 PUSH2 0x1DA8 SWAP1 PUSH2 0x4485 JUMP JUMPDEST SWAP2 POP POP JUMPDEST DUP16 PUSH1 0x40 ADD MLOAD PUSH1 0x2 DUP4 DUP2 SLOAD DUP2 LT PUSH2 0x1DC5 JUMPI PUSH2 0x1DC4 PUSH2 0x41D8 JUMP JUMPDEST JUMPDEST SWAP1 PUSH1 0x0 MSTORE PUSH1 0x20 PUSH1 0x0 KECCAK256 SWAP1 PUSH1 0x8 MUL ADD PUSH1 0x5 ADD SLOAD SUB PUSH2 0x1DEB JUMPI DUP1 DUP1 PUSH2 0x1DE7 SWAP1 PUSH2 0x4485 JUMP JUMPDEST SWAP2 POP POP JUMPDEST DUP16 PUSH1 0x60 ADD MLOAD PUSH1 0x2 DUP4 DUP2 SLOAD DUP2 LT PUSH2 0x1E04 JUMPI PUSH2 0x1E03 PUSH2 0x41D8 JUMP JUMPDEST JUMPDEST SWAP1 PUSH1 0x0 MSTORE PUSH1 0x20 PUSH1 0x0 KECCAK256 SWAP1 PUSH1 0x8 MUL ADD PUSH1 0x5 ADD SLOAD SUB PUSH2 0x1E2A JUMPI DUP1 DUP1 PUSH2 0x1E26 SWAP1 PUSH2 0x4485 JUMP JUMPDEST SWAP2 POP POP JUMPDEST DUP16 PUSH1 0x80 ADD MLOAD PUSH1 0x2 DUP4 DUP2 SLOAD DUP2 LT PUSH2 0x1E43 JUMPI PUSH2 0x1E42 PUSH2 0x41D8 JUMP JUMPDEST JUMPDEST SWAP1 PUSH1 0x0 MSTORE PUSH1 0x20 PUSH1 0x0 KECCAK256 SWAP1 PUSH1 0x8 MUL ADD PUSH1 0x5 ADD SLOAD SUB PUSH2 0x1E69 JUMPI DUP1 DUP1 PUSH2 0x1E65 SWAP1 PUSH2 0x4485 JUMP JUMPDEST SWAP2 POP POP JUMPDEST DUP16 PUSH1 0xA0 ADD MLOAD PUSH1 0x2 DUP4 DUP2 SLOAD DUP2 LT PUSH2 0x1E82 JUMPI PUSH2 0x1E81 PUSH2 0x41D8 JUMP JUMPDEST JUMPDEST SWAP1 PUSH1 0x0 MSTORE PUSH1 0x20 PUSH1 0x0 KECCAK256 SWAP1 PUSH1 0x8 MUL ADD PUSH1 0x5 ADD SLOAD SUB PUSH2 0x1EA8 JUMPI DUP1 DUP1 PUSH2 0x1EA4 SWAP1 PUSH2 0x4485 JUMP JUMPDEST SWAP2 POP POP JUMPDEST DUP16 PUSH1 0xC0 ADD MLOAD PUSH1 0x2 DUP4 DUP2 SLOAD DUP2 LT PUSH2 0x1EC1 JUMPI PUSH2 0x1EC0 PUSH2 0x41D8 JUMP JUMPDEST JUMPDEST SWAP1 PUSH1 0x0 MSTORE PUSH1 0x20 PUSH1 0x0 KECCAK256 SWAP1 PUSH1 0x8 MUL ADD PUSH1 0x5 ADD SLOAD SUB PUSH2 0x1EE7 JUMPI DUP1 DUP1 PUSH2 0x1EE3 SWAP1 PUSH2 0x4485 JUMP JUMPDEST SWAP2 POP POP JUMPDEST DUP16 PUSH1 0xE0 ADD MLOAD PUSH1 0x2 DUP4 DUP2 SLOAD DUP2 LT PUSH2 0x1F00 JUMPI PUSH2 0x1EFF PUSH2 0x41D8 JUMP JUMPDEST JUMPDEST SWAP1 PUSH1 0x0 MSTORE PUSH1 0x20 PUSH1 0x0 KECCAK256 SWAP1 PUSH1 0x8 MUL ADD PUSH1 0x5 ADD SLOAD SUB PUSH2 0x1F26 JUMPI DUP1 DUP1 PUSH2 0x1F22 SWAP1 PUSH2 0x4485 JUMP JUMPDEST SWAP2 POP POP JUMPDEST DUP16 PUSH1 0x40 ADD MLOAD PUSH1 0x2 DUP4 DUP2 SLOAD DUP2 LT PUSH2 0x1F3F JUMPI PUSH2 0x1F3E PUSH2 0x41D8 JUMP JUMPDEST JUMPDEST SWAP1 PUSH1 0x0 MSTORE PUSH1 0x20 PUSH1 0x0 KECCAK256 SWAP1 PUSH1 0x8 MUL ADD PUSH1 0x6 ADD SLOAD SUB PUSH2 0x1F65 JUMPI DUP1 DUP1 PUSH2 0x1F61 SWAP1 PUSH2 0x4485 JUMP JUMPDEST SWAP2 POP POP JUMPDEST DUP16 PUSH1 0x60 ADD MLOAD PUSH1 0x2 DUP4 DUP2 SLOAD DUP2 LT PUSH2 0x1F7E JUMPI PUSH2 0x1F7D PUSH2 0x41D8 JUMP JUMPDEST JUMPDEST SWAP1 PUSH1 0x0 MSTORE PUSH1 0x20 PUSH1 0x0 KECCAK256 SWAP1 PUSH1 0x8 MUL ADD PUSH1 0x6 ADD SLOAD SUB PUSH2 0x1FA4 JUMPI DUP1 DUP1 PUSH2 0x1FA0 SWAP1 PUSH2 0x4485 JUMP JUMPDEST SWAP2 POP POP JUMPDEST DUP16 PUSH1 0x80 ADD MLOAD PUSH1 0x2 DUP4 DUP2 SLOAD DUP2 LT PUSH2 0x1FBD JUMPI PUSH2 0x1FBC PUSH2 0x41D8 JUMP JUMPDEST JUMPDEST SWAP1 PUSH1 0x0 MSTORE PUSH1 0x20 PUSH1 0x0 KECCAK256 SWAP1 PUSH1 0x8 MUL ADD PUSH1 0x6 ADD SLOAD SUB PUSH2 0x1FE3 JUMPI DUP1 DUP1 PUSH2 0x1FDF SWAP1 PUSH2 0x4485 JUMP JUMPDEST SWAP2 POP POP JUMPDEST DUP16 PUSH1 0xA0 ADD MLOAD PUSH1 0x2 DUP4 DUP2 SLOAD DUP2 LT PUSH2 0x1FFC JUMPI PUSH2 0x1FFB PUSH2 0x41D8 JUMP JUMPDEST JUMPDEST SWAP1 PUSH1 0x0 MSTORE PUSH1 0x20 PUSH1 0x0 KECCAK256 SWAP1 PUSH1 0x8 MUL ADD PUSH1 0x6 ADD SLOAD SUB PUSH2 0x2022 JUMPI DUP1 DUP1 PUSH2 0x201E SWAP1 PUSH2 0x4485 JUMP JUMPDEST SWAP2 POP POP JUMPDEST DUP16 PUSH1 0xC0 ADD MLOAD PUSH1 0x2 DUP4 DUP2 SLOAD DUP2 LT PUSH2 0x203B JUMPI PUSH2 0x203A PUSH2 0x41D8 JUMP JUMPDEST JUMPDEST SWAP1 PUSH1 0x0 MSTORE PUSH1 0x20 PUSH1 0x0 KECCAK256 SWAP1 PUSH1 0x8 MUL ADD PUSH1 0x6 ADD SLOAD SUB PUSH2 0x2061 JUMPI DUP1 DUP1 PUSH2 0x205D SWAP1 PUSH2 0x4485 JUMP JUMPDEST SWAP2 POP POP JUMPDEST DUP16 PUSH1 0xE0 ADD MLOAD PUSH1 0x2 DUP4 DUP2 SLOAD DUP2 LT PUSH2 0x207A JUMPI PUSH2 0x2079 PUSH2 0x41D8 JUMP JUMPDEST JUMPDEST SWAP1 PUSH1 0x0 MSTORE PUSH1 0x20 PUSH1 0x0 KECCAK256 SWAP1 PUSH1 0x8 MUL ADD PUSH1 0x6 ADD SLOAD SUB PUSH2 0x20A0 JUMPI DUP1 DUP1 PUSH2 0x209C SWAP1 PUSH2 0x4485 JUMP JUMPDEST SWAP2 POP POP JUMPDEST DUP16 PUSH1 0x40 ADD MLOAD PUSH1 0x2 DUP4 DUP2 SLOAD DUP2 LT PUSH2 0x20B9 JUMPI PUSH2 0x20B8 PUSH2 0x41D8 JUMP JUMPDEST JUMPDEST SWAP1 PUSH1 0x0 MSTORE PUSH1 0x20 PUSH1 0x0 KECCAK256 SWAP1 PUSH1 0x8 MUL ADD PUSH1 0x7 ADD SLOAD SUB PUSH2 0x20DF JUMPI DUP1 DUP1 PUSH2 0x20DB SWAP1 PUSH2 0x4485 JUMP JUMPDEST SWAP2 POP POP JUMPDEST DUP16 PUSH1 0x60 ADD MLOAD PUSH1 0x2 DUP4 DUP2 SLOAD DUP2 LT PUSH2 0x20F8 JUMPI PUSH2 0x20F7 PUSH2 0x41D8 JUMP JUMPDEST JUMPDEST SWAP1 PUSH1 0x0 MSTORE PUSH1 0x20 PUSH1 0x0 KECCAK256 SWAP1 PUSH1 0x8 MUL ADD PUSH1 0x7 ADD SLOAD SUB PUSH2 0x211E JUMPI DUP1 DUP1 PUSH2 0x211A SWAP1 PUSH2 0x4485 JUMP JUMPDEST SWAP2 POP POP JUMPDEST DUP16 PUSH1 0x80 ADD MLOAD PUSH1 0x2 DUP4 DUP2 SLOAD DUP2 LT PUSH2 0x2137 JUMPI PUSH2 0x2136 PUSH2 0x41D8 JUMP JUMPDEST JUMPDEST SWAP1 PUSH1 0x0 MSTORE PUSH1 0x20 PUSH1 0x0 KECCAK256 SWAP1 PUSH1 0x8 MUL ADD PUSH1 0x7 ADD SLOAD SUB PUSH2 0x215D JUMPI DUP1 DUP1 PUSH2 0x2159 SWAP1 PUSH2 0x4485 JUMP JUMPDEST SWAP2 POP POP JUMPDEST DUP16 PUSH1 0xA0 ADD MLOAD PUSH1 0x2 DUP4 DUP2 SLOAD DUP2 LT PUSH2 0x2176 JUMPI PUSH2 0x2175 PUSH2 0x41D8 JUMP JUMPDEST JUMPDEST SWAP1 PUSH1 0x0 MSTORE PUSH1 0x20 PUSH1 0x0 KECCAK256 SWAP1 PUSH1 0x8 MUL ADD PUSH1 0x7 ADD SLOAD SUB PUSH2 0x219C JUMPI DUP1 DUP1 PUSH2 0x2198 SWAP1 PUSH2 0x4485 JUMP JUMPDEST SWAP2 POP POP JUMPDEST DUP16 PUSH1 0xC0 ADD MLOAD PUSH1 0x2 DUP4 DUP2 SLOAD DUP2 LT PUSH2 0x21B5 JUMPI PUSH2 0x21B4 PUSH2 0x41D8 JUMP JUMPDEST JUMPDEST SWAP1 PUSH1 0x0 MSTORE PUSH1 0x20 PUSH1 0x0 KECCAK256 SWAP1 PUSH1 0x8 MUL ADD PUSH1 0x7 ADD SLOAD SUB PUSH2 0x21DB JUMPI DUP1 DUP1 PUSH2 0x21D7 SWAP1 PUSH2 0x4485 JUMP JUMPDEST SWAP2 POP POP JUMPDEST DUP16 PUSH1 0xE0 ADD MLOAD PUSH1 0x2 DUP4 DUP2 SLOAD DUP2 LT PUSH2 0x21F4 JUMPI PUSH2 0x21F3 PUSH2 0x41D8 JUMP JUMPDEST JUMPDEST SWAP1 PUSH1 0x0 MSTORE PUSH1 0x20 PUSH1 0x0 KECCAK256 SWAP1 PUSH1 0x8 MUL ADD PUSH1 0x7 ADD SLOAD SUB PUSH2 0x221A JUMPI DUP1 DUP1 PUSH2 0x2216 SWAP1 PUSH2 0x4485 JUMP JUMPDEST SWAP2 POP POP JUMPDEST PUSH1 0x1 DUP2 SUB PUSH2 0x22CA JUMPI DUP9 PUSH1 0x2 DUP4 DUP2 SLOAD DUP2 LT PUSH2 0x2237 JUMPI PUSH2 0x2236 PUSH2 0x41D8 JUMP JUMPDEST JUMPDEST SWAP1 PUSH1 0x0 MSTORE PUSH1 0x20 PUSH1 0x0 KECCAK256 SWAP1 PUSH1 0x8 MUL ADD PUSH1 0x0 ADD PUSH1 0x0 SWAP1 SLOAD SWAP1 PUSH2 0x100 EXP SWAP1 DIV PUSH20 0xFFFFFFFFFFFFFFFFFFFFFFFFFFFFFFFFFFFFFFFF AND SWAP1 DUP1 PUSH1 0x1 DUP2 SLOAD ADD DUP1 DUP3 SSTORE DUP1 SWAP2 POP POP PUSH1 0x1 SWAP1 SUB SWAP1 PUSH1 0x0 MSTORE PUSH1 0x20 PUSH1 0x0 KECCAK256 ADD PUSH1 0x0 SWAP1 SWAP2 SWAP1 SWAP2 SWAP1 SWAP2 PUSH2 0x100 EXP DUP2 SLOAD DUP2 PUSH20 0xFFFFFFFFFFFFFFFFFFFFFFFFFFFFFFFFFFFFFFFF MUL NOT AND SWAP1 DUP4 PUSH20 0xFFFFFFFFFFFFFFFFFFFFFFFFFFFFFFFFFFFFFFFF AND MUL OR SWAP1 SSTORE POP JUMPDEST PUSH1 0x2 DUP2 SUB PUSH2 0x237A JUMPI DUP8 PUSH1 0x2 DUP4 DUP2 SLOAD DUP2 LT PUSH2 0x22E7 JUMPI PUSH2 0x22E6 PUSH2 0x41D8 JUMP JUMPDEST JUMPDEST SWAP1 PUSH1 0x0 MSTORE PUSH1 0x20 PUSH1 0x0 KECCAK256 SWAP1 PUSH1 0x8 MUL ADD PUSH1 0x0 ADD PUSH1 0x0 SWAP1 SLOAD SWAP1 PUSH2 0x100 EXP SWAP1 DIV PUSH20 0xFFFFFFFFFFFFFFFFFFFFFFFFFFFFFFFFFFFFFFFF AND SWAP1 DUP1 PUSH1 0x1 DUP2 SLOAD ADD DUP1 DUP3 SSTORE DUP1 SWAP2 POP POP PUSH1 0x1 SWAP1 SUB SWAP1 PUSH1 0x0 MSTORE PUSH1 0x20 PUSH1 0x0 KECCAK256 ADD PUSH1 0x0 SWAP1 SWAP2 SWAP1 SWAP2 SWAP1 SWAP2 PUSH2 0x100 EXP DUP2 SLOAD DUP2 PUSH20 0xFFFFFFFFFFFFFFFFFFFFFFFFFFFFFFFFFFFFFFFF MUL NOT AND SWAP1 DUP4 PUSH20 0xFFFFFFFFFFFFFFFFFFFFFFFFFFFFFFFFFFFFFFFF AND MUL OR SWAP1 SSTORE POP JUMPDEST PUSH1 0x3 DUP2 SUB PUSH2 0x242A JUMPI DUP7 PUSH1 0x2 DUP4 DUP2 SLOAD DUP2 LT PUSH2 0x2397 JUMPI PUSH2 0x2396 PUSH2 0x41D8 JUMP JUMPDEST JUMPDEST SWAP1 PUSH1 0x0 MSTORE PUSH1 0x20 PUSH1 0x0 KECCAK256 SWAP1 PUSH1 0x8 MUL ADD PUSH1 0x0 ADD PUSH1 0x0 SWAP1 SLOAD SWAP1 PUSH2 0x100 EXP SWAP1 DIV PUSH20 0xFFFFFFFFFFFFFFFFFFFFFFFFFFFFFFFFFFFFFFFF AND SWAP1 DUP1 PUSH1 0x1 DUP2 SLOAD ADD DUP1 DUP3 SSTORE DUP1 SWAP2 POP POP PUSH1 0x1 SWAP1 SUB SWAP1 PUSH1 0x0 MSTORE PUSH1 0x20 PUSH1 0x0 KECCAK256 ADD PUSH1 0x0 SWAP1 SWAP2 SWAP1 SWAP2 SWAP1 SWAP2 PUSH2 0x100 EXP DUP2 SLOAD DUP2 PUSH20 0xFFFFFFFFFFFFFFFFFFFFFFFFFFFFFFFFFFFFFFFF MUL NOT AND SWAP1 DUP4 PUSH20 0xFFFFFFFFFFFFFFFFFFFFFFFFFFFFFFFFFFFFFFFF AND MUL OR SWAP1 SSTORE POP JUMPDEST PUSH1 0x4 DUP2 SUB PUSH2 0x24DA JUMPI DUP6 PUSH1 0x2 DUP4 DUP2 SLOAD DUP2 LT PUSH2 0x2447 JUMPI PUSH2 0x2446 PUSH2 0x41D8 JUMP JUMPDEST JUMPDEST SWAP1 PUSH1 0x0 MSTORE PUSH1 0x20 PUSH1 0x0 KECCAK256 SWAP1 PUSH1 0x8 MUL ADD PUSH1 0x0 ADD PUSH1 0x0 SWAP1 SLOAD SWAP1 PUSH2 0x100 EXP SWAP1 DIV PUSH20 0xFFFFFFFFFFFFFFFFFFFFFFFFFFFFFFFFFFFFFFFF AND SWAP1 DUP1 PUSH1 0x1 DUP2 SLOAD ADD DUP1 DUP3 SSTORE DUP1 SWAP2 POP POP PUSH1 0x1 SWAP1 SUB SWAP1 PUSH1 0x0 MSTORE PUSH1 0x20 PUSH1 0x0 KECCAK256 ADD PUSH1 0x0 SWAP1 SWAP2 SWAP1 SWAP2 SWAP1 SWAP2 PUSH2 0x100 EXP DUP2 SLOAD DUP2 PUSH20 0xFFFFFFFFFFFFFFFFFFFFFFFFFFFFFFFFFFFFFFFF MUL NOT AND SWAP1 DUP4 PUSH20 0xFFFFFFFFFFFFFFFFFFFFFFFFFFFFFFFFFFFFFFFF AND MUL OR SWAP1 SSTORE POP JUMPDEST PUSH1 0x5 DUP2 SUB PUSH2 0x258A JUMPI DUP5 PUSH1 0x2 DUP4 DUP2 SLOAD DUP2 LT PUSH2 0x24F7 JUMPI PUSH2 0x24F6 PUSH2 0x41D8 JUMP JUMPDEST JUMPDEST SWAP1 PUSH1 0x0 MSTORE PUSH1 0x20 PUSH1 0x0 KECCAK256 SWAP1 PUSH1 0x8 MUL ADD PUSH1 0x0 ADD PUSH1 0x0 SWAP1 SLOAD SWAP1 PUSH2 0x100 EXP SWAP1 DIV PUSH20 0xFFFFFFFFFFFFFFFFFFFFFFFFFFFFFFFFFFFFFFFF AND SWAP1 DUP1 PUSH1 0x1 DUP2 SLOAD ADD DUP1 DUP3 SSTORE DUP1 SWAP2 POP POP PUSH1 0x1 SWAP1 SUB SWAP1 PUSH1 0x0 MSTORE PUSH1 0x20 PUSH1 0x0 KECCAK256 ADD PUSH1 0x0 SWAP1 SWAP2 SWAP1 SWAP2 SWAP1 SWAP2 PUSH2 0x100 EXP DUP2 SLOAD DUP2 PUSH20 0xFFFFFFFFFFFFFFFFFFFFFFFFFFFFFFFFFFFFFFFF MUL NOT AND SWAP1 DUP4 PUSH20 0xFFFFFFFFFFFFFFFFFFFFFFFFFFFFFFFFFFFFFFFF AND MUL OR SWAP1 SSTORE POP JUMPDEST PUSH1 0x6 DUP2 SUB PUSH2 0x263A JUMPI DUP4 PUSH1 0x2 DUP4 DUP2 SLOAD DUP2 LT PUSH2 0x25A7 JUMPI PUSH2 0x25A6 PUSH2 0x41D8 JUMP JUMPDEST JUMPDEST SWAP1 PUSH1 0x0 MSTORE PUSH1 0x20 PUSH1 0x0 KECCAK256 SWAP1 PUSH1 0x8 MUL ADD PUSH1 0x0 ADD PUSH1 0x0 SWAP1 SLOAD SWAP1 PUSH2 0x100 EXP SWAP1 DIV PUSH20 0xFFFFFFFFFFFFFFFFFFFFFFFFFFFFFFFFFFFFFFFF AND SWAP1 DUP1 PUSH1 0x1 DUP2 SLOAD ADD DUP1 DUP3 SSTORE DUP1 SWAP2 POP POP PUSH1 0x1 SWAP1 SUB SWAP1 PUSH1 0x0 MSTORE PUSH1 0x20 PUSH1 0x0 KECCAK256 ADD PUSH1 0x0 SWAP1 SWAP2 SWAP1 SWAP2 SWAP1 SWAP2 PUSH2 0x100 EXP DUP2 SLOAD DUP2 PUSH20 0xFFFFFFFFFFFFFFFFFFFFFFFFFFFFFFFFFFFFFFFF MUL NOT AND SWAP1 DUP4 PUSH20 0xFFFFFFFFFFFFFFFFFFFFFFFFFFFFFFFFFFFFFFFF AND MUL OR SWAP1 SSTORE POP JUMPDEST POP DUP1 DUP1 PUSH2 0x2646 SWAP1 PUSH2 0x4485 JUMP JUMPDEST SWAP2 POP POP PUSH2 0x1932 JUMP JUMPDEST POP PUSH1 0x1 PUSH1 0x0 SWAP1 SLOAD SWAP1 PUSH2 0x100 EXP SWAP1 DIV PUSH20 0xFFFFFFFFFFFFFFFFFFFFFFFFFFFFFFFFFFFFFFFF AND PUSH20 0xFFFFFFFFFFFFFFFFFFFFFFFFFFFFFFFFFFFFFFFF AND PUSH2 0x8FC PUSH1 0x1D SLOAD DUP4 PUSH2 0x2699 SWAP2 SWAP1 PUSH2 0x4165 JUMP JUMPDEST SWAP1 DUP2 ISZERO MUL SWAP1 PUSH1 0x40 MLOAD PUSH1 0x0 PUSH1 0x40 MLOAD DUP1 DUP4 SUB DUP2 DUP6 DUP9 DUP9 CALL SWAP4 POP POP POP POP ISZERO DUP1 ISZERO PUSH2 0x26C4 JUMPI RETURNDATASIZE PUSH1 0x0 DUP1 RETURNDATACOPY RETURNDATASIZE PUSH1 0x0 REVERT JUMPDEST POP PUSH1 0x0 DUP3 DUP1 SLOAD SWAP1 POP GT ISZERO PUSH2 0x2846 JUMPI PUSH1 0x0 JUMPDEST DUP3 DUP1 SLOAD SWAP1 POP DUP2 LT ISZERO PUSH2 0x27AD JUMPI DUP3 DUP2 DUP2 SLOAD DUP2 LT PUSH2 0x26F4 JUMPI PUSH2 0x26F3 PUSH2 0x41D8 JUMP JUMPDEST JUMPDEST SWAP1 PUSH1 0x0 MSTORE PUSH1 0x20 PUSH1 0x0 KECCAK256 ADD PUSH1 0x0 SWAP1 SLOAD SWAP1 PUSH2 0x100 EXP SWAP1 DIV PUSH20 0xFFFFFFFFFFFFFFFFFFFFFFFFFFFFFFFFFFFFFFFF AND PUSH20 0xFFFFFFFFFFFFFFFFFFFFFFFFFFFFFFFFFFFFFFFF AND PUSH2 0x8FC PUSH1 0x1D SLOAD DUP6 DUP1 SLOAD SWAP1 POP PUSH2 0x274A SWAP2 SWAP1 PUSH2 0x4196 JUMP JUMPDEST PUSH1 0x1 PUSH1 0x1D SLOAD PUSH2 0x2759 SWAP2 SWAP1 PUSH2 0x4102 JUMP JUMPDEST DUP6 PUSH2 0x2764 SWAP2 SWAP1 PUSH2 0x4196 JUMP JUMPDEST PUSH2 0x276E SWAP2 SWAP1 PUSH2 0x4165 JUMP JUMPDEST SWAP1 DUP2 ISZERO MUL SWAP1 PUSH1 0x40 MLOAD PUSH1 0x0 PUSH1 0x40 MLOAD DUP1 DUP4 SUB DUP2 DUP6 DUP9 DUP9 CALL SWAP4 POP POP POP POP ISZERO DUP1 ISZERO PUSH2 0x2799 JUMPI RETURNDATASIZE PUSH1 0x0 DUP1 RETURNDATACOPY RETURNDATASIZE PUSH1 0x0 REVERT JUMPDEST POP DUP1 DUP1 PUSH2 0x27A5 SWAP1 PUSH2 0x4485 JUMP JUMPDEST SWAP2 POP POP PUSH2 0x26D5 JUMP JUMPDEST POP PUSH2 0x2841 DUP15 PUSH1 0x20 ADD MLOAD DUP4 DUP1 SLOAD DUP1 PUSH1 0x20 MUL PUSH1 0x20 ADD PUSH1 0x40 MLOAD SWAP1 DUP2 ADD PUSH1 0x40 MSTORE DUP1 SWAP3 SWAP2 SWAP1 DUP2 DUP2 MSTORE PUSH1 0x20 ADD DUP3 DUP1 SLOAD DUP1 ISZERO PUSH2 0x2837 JUMPI PUSH1 0x20 MUL DUP3 ADD SWAP2 SWAP1 PUSH1 0x0 MSTORE PUSH1 0x20 PUSH1 0x0 KECCAK256 SWAP1 JUMPDEST DUP2 PUSH1 0x0 SWAP1 SLOAD SWAP1 PUSH2 0x100 EXP SWAP1 DIV PUSH20 0xFFFFFFFFFFFFFFFFFFFFFFFFFFFFFFFFFFFFFFFF AND PUSH20 0xFFFFFFFFFFFFFFFFFFFFFFFFFFFFFFFFFFFFFFFF AND DUP2 MSTORE PUSH1 0x20 ADD SWAP1 PUSH1 0x1 ADD SWAP1 DUP1 DUP4 GT PUSH2 0x27ED JUMPI JUMPDEST POP POP POP POP POP PUSH2 0x3371 JUMP JUMPDEST PUSH2 0x3064 JUMP JUMPDEST PUSH1 0x0 DUP4 DUP1 SLOAD SWAP1 POP GT ISZERO PUSH2 0x29C7 JUMPI PUSH1 0x0 JUMPDEST DUP4 DUP1 SLOAD SWAP1 POP DUP2 LT ISZERO PUSH2 0x292E JUMPI DUP4 DUP2 DUP2 SLOAD DUP2 LT PUSH2 0x2875 JUMPI PUSH2 0x2874 PUSH2 0x41D8 JUMP JUMPDEST JUMPDEST SWAP1 PUSH1 0x0 MSTORE PUSH1 0x20 PUSH1 0x0 KECCAK256 ADD PUSH1 0x0 SWAP1 SLOAD SWAP1 PUSH2 0x100 EXP SWAP1 DIV PUSH20 0xFFFFFFFFFFFFFFFFFFFFFFFFFFFFFFFFFFFFFFFF AND PUSH20 0xFFFFFFFFFFFFFFFFFFFFFFFFFFFFFFFFFFFFFFFF AND PUSH2 0x8FC PUSH1 0x1D SLOAD DUP7 DUP1 SLOAD SWAP1 POP PUSH2 0x28CB SWAP2 SWAP1 PUSH2 0x4196 JUMP JUMPDEST PUSH1 0x1 PUSH1 0x1D SLOAD PUSH2 0x28DA SWAP2 SWAP1 PUSH2 0x4102 JUMP JUMPDEST DUP6 PUSH2 0x28E5 SWAP2 SWAP1 PUSH2 0x4196 JUMP JUMPDEST PUSH2 0x28EF SWAP2 SWAP1 PUSH2 0x4165 JUMP JUMPDEST SWAP1 DUP2 ISZERO MUL SWAP1 PUSH1 0x40 MLOAD PUSH1 0x0 PUSH1 0x40 MLOAD DUP1 DUP4 SUB DUP2 DUP6 DUP9 DUP9 CALL SWAP4 POP POP POP POP ISZERO DUP1 ISZERO PUSH2 0x291A JUMPI RETURNDATASIZE PUSH1 0x0 DUP1 RETURNDATACOPY RETURNDATASIZE PUSH1 0x0 REVERT JUMPDEST POP DUP1 DUP1 PUSH2 0x2926 SWAP1 PUSH2 0x4485 JUMP JUMPDEST SWAP2 POP POP PUSH2 0x2856 JUMP JUMPDEST POP PUSH2 0x29C2 DUP15 PUSH1 0x20 ADD MLOAD DUP5 DUP1 SLOAD DUP1 PUSH1 0x20 MUL PUSH1 0x20 ADD PUSH1 0x40 MLOAD SWAP1 DUP2 ADD PUSH1 0x40 MSTORE DUP1 SWAP3 SWAP2 SWAP1 DUP2 DUP2 MSTORE PUSH1 0x20 ADD DUP3 DUP1 SLOAD DUP1 ISZERO PUSH2 0x29B8 JUMPI PUSH1 0x20 MUL DUP3 ADD SWAP2 SWAP1 PUSH1 0x0 MSTORE PUSH1 0x20 PUSH1 0x0 KECCAK256 SWAP1 JUMPDEST DUP2 PUSH1 0x0 SWAP1 SLOAD SWAP1 PUSH2 0x100 EXP SWAP1 DIV PUSH20 0xFFFFFFFFFFFFFFFFFFFFFFFFFFFFFFFFFFFFFFFF AND PUSH20 0xFFFFFFFFFFFFFFFFFFFFFFFFFFFFFFFFFFFFFFFF AND DUP2 MSTORE PUSH1 0x20 ADD SWAP1 PUSH1 0x1 ADD SWAP1 DUP1 DUP4 GT PUSH2 0x296E JUMPI JUMPDEST POP POP POP POP POP PUSH2 0x3371 JUMP JUMPDEST PUSH2 0x3063 JUMP JUMPDEST PUSH1 0x0 DUP5 DUP1 SLOAD SWAP1 POP GT ISZERO PUSH2 0x2B48 JUMPI PUSH1 0x0 JUMPDEST DUP5 DUP1 SLOAD SWAP1 POP DUP2 LT ISZERO PUSH2 0x2AAF JUMPI DUP5 DUP2 DUP2 SLOAD DUP2 LT PUSH2 0x29F6 JUMPI PUSH2 0x29F5 PUSH2 0x41D8 JUMP JUMPDEST JUMPDEST SWAP1 PUSH1 0x0 MSTORE PUSH1 0x20 PUSH1 0x0 KECCAK256 ADD PUSH1 0x0 SWAP1 SLOAD SWAP1 PUSH2 0x100 EXP SWAP1 DIV PUSH20 0xFFFFFFFFFFFFFFFFFFFFFFFFFFFFFFFFFFFFFFFF AND PUSH20 0xFFFFFFFFFFFFFFFFFFFFFFFFFFFFFFFFFFFFFFFF AND PUSH2 0x8FC PUSH1 0x1D SLOAD DUP8 DUP1 SLOAD SWAP1 POP PUSH2 0x2A4C SWAP2 SWAP1 PUSH2 0x4196 JUMP JUMPDEST PUSH1 0x1 PUSH1 0x1D SLOAD PUSH2 0x2A5B SWAP2 SWAP1 PUSH2 0x4102 JUMP JUMPDEST DUP6 PUSH2 0x2A66 SWAP2 SWAP1 PUSH2 0x4196 JUMP JUMPDEST PUSH2 0x2A70 SWAP2 SWAP1 PUSH2 0x4165 JUMP JUMPDEST SWAP1 DUP2 ISZERO MUL SWAP1 PUSH1 0x40 MLOAD PUSH1 0x0 PUSH1 0x40 MLOAD DUP1 DUP4 SUB DUP2 DUP6 DUP9 DUP9 CALL SWAP4 POP POP POP POP ISZERO DUP1 ISZERO PUSH2 0x2A9B JUMPI RETURNDATASIZE PUSH1 0x0 DUP1 RETURNDATACOPY RETURNDATASIZE PUSH1 0x0 REVERT JUMPDEST POP DUP1 DUP1 PUSH2 0x2AA7 SWAP1 PUSH2 0x4485 JUMP JUMPDEST SWAP2 POP POP PUSH2 0x29D7 JUMP JUMPDEST POP PUSH2 0x2B43 DUP15 PUSH1 0x20 ADD MLOAD DUP6 DUP1 SLOAD DUP1 PUSH1 0x20 MUL PUSH1 0x20 ADD PUSH1 0x40 MLOAD SWAP1 DUP2 ADD PUSH1 0x40 MSTORE DUP1 SWAP3 SWAP2 SWAP1 DUP2 DUP2 MSTORE PUSH1 0x20 ADD DUP3 DUP1 SLOAD DUP1 ISZERO PUSH2 0x2B39 JUMPI PUSH1 0x20 MUL DUP3 ADD SWAP2 SWAP1 PUSH1 0x0 MSTORE PUSH1 0x20 PUSH1 0x0 KECCAK256 SWAP1 JUMPDEST DUP2 PUSH1 0x0 SWAP1 SLOAD SWAP1 PUSH2 0x100 EXP SWAP1 DIV PUSH20 0xFFFFFFFFFFFFFFFFFFFFFFFFFFFFFFFFFFFFFFFF AND PUSH20 0xFFFFFFFFFFFFFFFFFFFFFFFFFFFFFFFFFFFFFFFF AND DUP2 MSTORE PUSH1 0x20 ADD SWAP1 PUSH1 0x1 ADD SWAP1 DUP1 DUP4 GT PUSH2 0x2AEF JUMPI JUMPDEST POP POP POP POP POP PUSH2 0x3371 JUMP JUMPDEST PUSH2 0x3062 JUMP JUMPDEST PUSH1 0x0 DUP6 DUP1 SLOAD SWAP1 POP GT ISZERO PUSH2 0x2CC9 JUMPI PUSH1 0x0 JUMPDEST DUP6 DUP1 SLOAD SWAP1 POP DUP2 LT ISZERO PUSH2 0x2C30 JUMPI DUP6 DUP2 DUP2 SLOAD DUP2 LT PUSH2 0x2B77 JUMPI PUSH2 0x2B76 PUSH2 0x41D8 JUMP JUMPDEST JUMPDEST SWAP1 PUSH1 0x0 MSTORE PUSH1 0x20 PUSH1 0x0 KECCAK256 ADD PUSH1 0x0 SWAP1 SLOAD SWAP1 PUSH2 0x100 EXP SWAP1 DIV PUSH20 0xFFFFFFFFFFFFFFFFFFFFFFFFFFFFFFFFFFFFFFFF AND PUSH20 0xFFFFFFFFFFFFFFFFFFFFFFFFFFFFFFFFFFFFFFFF AND PUSH2 0x8FC PUSH1 0x1D SLOAD DUP9 DUP1 SLOAD SWAP1 POP PUSH2 0x2BCD SWAP2 SWAP1 PUSH2 0x4196 JUMP JUMPDEST PUSH1 0x1 PUSH1 0x1D SLOAD PUSH2 0x2BDC SWAP2 SWAP1 PUSH2 0x4102 JUMP JUMPDEST DUP6 PUSH2 0x2BE7 SWAP2 SWAP1 PUSH2 0x4196 JUMP JUMPDEST PUSH2 0x2BF1 SWAP2 SWAP1 PUSH2 0x4165 JUMP JUMPDEST SWAP1 DUP2 ISZERO MUL SWAP1 PUSH1 0x40 MLOAD PUSH1 0x0 PUSH1 0x40 MLOAD DUP1 DUP4 SUB DUP2 DUP6 DUP9 DUP9 CALL SWAP4 POP POP POP POP ISZERO DUP1 ISZERO PUSH2 0x2C1C JUMPI RETURNDATASIZE PUSH1 0x0 DUP1 RETURNDATACOPY RETURNDATASIZE PUSH1 0x0 REVERT JUMPDEST POP DUP1 DUP1 PUSH2 0x2C28 SWAP1 PUSH2 0x4485 JUMP JUMPDEST SWAP2 POP POP PUSH2 0x2B58 JUMP JUMPDEST POP PUSH2 0x2CC4 DUP15 PUSH1 0x20 ADD MLOAD DUP7 DUP1 SLOAD DUP1 PUSH1 0x20 MUL PUSH1 0x20 ADD PUSH1 0x40 MLOAD SWAP1 DUP2 ADD PUSH1 0x40 MSTORE DUP1 SWAP3 SWAP2 SWAP1 DUP2 DUP2 MSTORE PUSH1 0x20 ADD DUP3 DUP1 SLOAD DUP1 ISZERO PUSH2 0x2CBA JUMPI PUSH1 0x20 MUL DUP3 ADD SWAP2 SWAP1 PUSH1 0x0 MSTORE PUSH1 0x20 PUSH1 0x0 KECCAK256 SWAP1 JUMPDEST DUP2 PUSH1 0x0 SWAP1 SLOAD SWAP1 PUSH2 0x100 EXP SWAP1 DIV PUSH20 0xFFFFFFFFFFFFFFFFFFFFFFFFFFFFFFFFFFFFFFFF AND PUSH20 0xFFFFFFFFFFFFFFFFFFFFFFFFFFFFFFFFFFFFFFFF AND DUP2 MSTORE PUSH1 0x20 ADD SWAP1 PUSH1 0x1 ADD SWAP1 DUP1 DUP4 GT PUSH2 0x2C70 JUMPI JUMPDEST POP POP POP POP POP PUSH2 0x3371 JUMP JUMPDEST PUSH2 0x3061 JUMP JUMPDEST PUSH1 0x0 DUP7 DUP1 SLOAD SWAP1 POP GT ISZERO PUSH2 0x2E4A JUMPI PUSH1 0x0 JUMPDEST DUP7 DUP1 SLOAD SWAP1 POP DUP2 LT ISZERO PUSH2 0x2DB1 JUMPI DUP7 DUP2 DUP2 SLOAD DUP2 LT PUSH2 0x2CF8 JUMPI PUSH2 0x2CF7 PUSH2 0x41D8 JUMP JUMPDEST JUMPDEST SWAP1 PUSH1 0x0 MSTORE PUSH1 0x20 PUSH1 0x0 KECCAK256 ADD PUSH1 0x0 SWAP1 SLOAD SWAP1 PUSH2 0x100 EXP SWAP1 DIV PUSH20 0xFFFFFFFFFFFFFFFFFFFFFFFFFFFFFFFFFFFFFFFF AND PUSH20 0xFFFFFFFFFFFFFFFFFFFFFFFFFFFFFFFFFFFFFFFF AND PUSH2 0x8FC PUSH1 0x1D SLOAD DUP10 DUP1 SLOAD SWAP1 POP PUSH2 0x2D4E SWAP2 SWAP1 PUSH2 0x4196 JUMP JUMPDEST PUSH1 0x1 PUSH1 0x1D SLOAD PUSH2 0x2D5D SWAP2 SWAP1 PUSH2 0x4102 JUMP JUMPDEST DUP6 PUSH2 0x2D68 SWAP2 SWAP1 PUSH2 0x4196 JUMP JUMPDEST PUSH2 0x2D72 SWAP2 SWAP1 PUSH2 0x4165 JUMP JUMPDEST SWAP1 DUP2 ISZERO MUL SWAP1 PUSH1 0x40 MLOAD PUSH1 0x0 PUSH1 0x40 MLOAD DUP1 DUP4 SUB DUP2 DUP6 DUP9 DUP9 CALL SWAP4 POP POP POP POP ISZERO DUP1 ISZERO PUSH2 0x2D9D JUMPI RETURNDATASIZE PUSH1 0x0 DUP1 RETURNDATACOPY RETURNDATASIZE PUSH1 0x0 REVERT JUMPDEST POP DUP1 DUP1 PUSH2 0x2DA9 SWAP1 PUSH2 0x4485 JUMP JUMPDEST SWAP2 POP POP PUSH2 0x2CD9 JUMP JUMPDEST POP PUSH2 0x2E45 DUP15 PUSH1 0x20 ADD MLOAD DUP8 DUP1 SLOAD DUP1 PUSH1 0x20 MUL PUSH1 0x20 ADD PUSH1 0x40 MLOAD SWAP1 DUP2 ADD PUSH1 0x40 MSTORE DUP1 SWAP3 SWAP2 SWAP1 DUP2 DUP2 MSTORE PUSH1 0x20 ADD DUP3 DUP1 SLOAD DUP1 ISZERO PUSH2 0x2E3B JUMPI PUSH1 0x20 MUL DUP3 ADD SWAP2 SWAP1 PUSH1 0x0 MSTORE PUSH1 0x20 PUSH1 0x0 KECCAK256 SWAP1 JUMPDEST DUP2 PUSH1 0x0 SWAP1 SLOAD SWAP1 PUSH2 0x100 EXP SWAP1 DIV PUSH20 0xFFFFFFFFFFFFFFFFFFFFFFFFFFFFFFFFFFFFFFFF AND PUSH20 0xFFFFFFFFFFFFFFFFFFFFFFFFFFFFFFFFFFFFFFFF AND DUP2 MSTORE PUSH1 0x20 ADD SWAP1 PUSH1 0x1 ADD SWAP1 DUP1 DUP4 GT PUSH2 0x2DF1 JUMPI JUMPDEST POP POP POP POP POP PUSH2 0x3371 JUMP JUMPDEST PUSH2 0x3060 JUMP JUMPDEST PUSH1 0x0 DUP8 DUP1 SLOAD SWAP1 POP GT ISZERO PUSH2 0x2FCB JUMPI PUSH1 0x0 JUMPDEST DUP8 DUP1 SLOAD SWAP1 POP DUP2 LT ISZERO PUSH2 0x2F32 JUMPI DUP8 DUP2 DUP2 SLOAD DUP2 LT PUSH2 0x2E79 JUMPI PUSH2 0x2E78 PUSH2 0x41D8 JUMP JUMPDEST JUMPDEST SWAP1 PUSH1 0x0 MSTORE PUSH1 0x20 PUSH1 0x0 KECCAK256 ADD PUSH1 0x0 SWAP1 SLOAD SWAP1 PUSH2 0x100 EXP SWAP1 DIV PUSH20 0xFFFFFFFFFFFFFFFFFFFFFFFFFFFFFFFFFFFFFFFF AND PUSH20 0xFFFFFFFFFFFFFFFFFFFFFFFFFFFFFFFFFFFFFFFF AND PUSH2 0x8FC PUSH1 0x1D SLOAD DUP11 DUP1 SLOAD SWAP1 POP PUSH2 0x2ECF SWAP2 SWAP1 PUSH2 0x4196 JUMP JUMPDEST PUSH1 0x1 PUSH1 0x1D SLOAD PUSH2 0x2EDE SWAP2 SWAP1 PUSH2 0x4102 JUMP JUMPDEST DUP6 PUSH2 0x2EE9 SWAP2 SWAP1 PUSH2 0x4196 JUMP JUMPDEST PUSH2 0x2EF3 SWAP2 SWAP1 PUSH2 0x4165 JUMP JUMPDEST SWAP1 DUP2 ISZERO MUL SWAP1 PUSH1 0x40 MLOAD PUSH1 0x0 PUSH1 0x40 MLOAD DUP1 DUP4 SUB DUP2 DUP6 DUP9 DUP9 CALL SWAP4 POP POP POP POP ISZERO DUP1 ISZERO PUSH2 0x2F1E JUMPI RETURNDATASIZE PUSH1 0x0 DUP1 RETURNDATACOPY RETURNDATASIZE PUSH1 0x0 REVERT JUMPDEST POP DUP1 DUP1 PUSH2 0x2F2A SWAP1 PUSH2 0x4485 JUMP JUMPDEST SWAP2 POP POP PUSH2 0x2E5A JUMP JUMPDEST POP PUSH2 0x2FC6 DUP15 PUSH1 0x20 ADD MLOAD DUP9 DUP1 SLOAD DUP1 PUSH1 0x20 MUL PUSH1 0x20 ADD PUSH1 0x40 MLOAD SWAP1 DUP2 ADD PUSH1 0x40 MSTORE DUP1 SWAP3 SWAP2 SWAP1 DUP2 DUP2 MSTORE PUSH1 0x20 ADD DUP3 DUP1 SLOAD DUP1 ISZERO PUSH2 0x2FBC JUMPI PUSH1 0x20 MUL DUP3 ADD SWAP2 SWAP1 PUSH1 0x0 MSTORE PUSH1 0x20 PUSH1 0x0 KECCAK256 SWAP1 JUMPDEST DUP2 PUSH1 0x0 SWAP1 SLOAD SWAP1 PUSH2 0x100 EXP SWAP1 DIV PUSH20 0xFFFFFFFFFFFFFFFFFFFFFFFFFFFFFFFFFFFFFFFF AND PUSH20 0xFFFFFFFFFFFFFFFFFFFFFFFFFFFFFFFFFFFFFFFF AND DUP2 MSTORE PUSH1 0x20 ADD SWAP1 PUSH1 0x1 ADD SWAP1 DUP1 DUP4 GT PUSH2 0x2F72 JUMPI JUMPDEST POP POP POP POP POP PUSH2 0x3371 JUMP JUMPDEST PUSH2 0x305F JUMP JUMPDEST PUSH2 0x305E DUP15 PUSH1 0x20 ADD MLOAD DUP9 DUP1 SLOAD DUP1 PUSH1 0x20 MUL PUSH1 0x20 ADD PUSH1 0x40 MLOAD SWAP1 DUP2 ADD PUSH1 0x40 MSTORE DUP1 SWAP3 SWAP2 SWAP1 DUP2 DUP2 MSTORE PUSH1 0x20 ADD DUP3 DUP1 SLOAD DUP1 ISZERO PUSH2 0x3054 JUMPI PUSH1 0x20 MUL DUP3 ADD SWAP2 SWAP1 PUSH1 0x0 MSTORE PUSH1 0x20 PUSH1 0x0 KECCAK256 SWAP1 JUMPDEST DUP2 PUSH1 0x0 SWAP1 SLOAD SWAP1 PUSH2 0x100 EXP SWAP1 DIV PUSH20 0xFFFFFFFFFFFFFFFFFFFFFFFFFFFFFFFFFFFFFFFF AND PUSH20 0xFFFFFFFFFFFFFFFFFFFFFFFFFFFFFFFFFFFFFFFF AND DUP2 MSTORE PUSH1 0x20 ADD SWAP1 PUSH1 0x1 ADD SWAP1 DUP1 DUP4 GT PUSH2 0x300A JUMPI JUMPDEST POP POP POP POP POP PUSH2 0x3371 JUMP JUMPDEST JUMPDEST JUMPDEST JUMPDEST JUMPDEST JUMPDEST JUMPDEST POP POP POP POP POP POP POP POP POP POP POP POP POP POP JUMP JUMPDEST PUSH1 0x0 DUP1 SLOAD SWAP1 PUSH2 0x100 EXP SWAP1 DIV PUSH20 0xFFFFFFFFFFFFFFFFFFFFFFFFFFFFFFFFFFFFFFFF AND PUSH20 0xFFFFFFFFFFFFFFFFFFFFFFFFFFFFFFFFFFFFFFFF AND PUSH4 0x5D3B1D30 PUSH1 0x11 SLOAD PUSH1 0x10 PUSH1 0x0 SWAP1 SLOAD SWAP1 PUSH2 0x100 EXP SWAP1 DIV PUSH8 0xFFFFFFFFFFFFFFFF AND PUSH1 0x12 PUSH1 0x4 SWAP1 SLOAD SWAP1 PUSH2 0x100 EXP SWAP1 DIV PUSH2 0xFFFF AND PUSH1 0x12 PUSH1 0x0 SWAP1 SLOAD SWAP1 PUSH2 0x100 EXP SWAP1 DIV PUSH4 0xFFFFFFFF AND PUSH1 0x12 PUSH1 0x6 SWAP1 SLOAD SWAP1 PUSH2 0x100 EXP SWAP1 DIV PUSH4 0xFFFFFFFF AND PUSH1 0x40 MLOAD DUP7 PUSH4 0xFFFFFFFF AND PUSH1 0xE0 SHL DUP2 MSTORE PUSH1 0x4 ADD PUSH2 0x3121 SWAP6 SWAP5 SWAP4 SWAP3 SWAP2 SWAP1 PUSH2 0x4576 JUMP JUMPDEST PUSH1 0x20 PUSH1 0x40 MLOAD DUP1 DUP4 SUB DUP2 PUSH1 0x0 DUP8 GAS CALL ISZERO DUP1 ISZERO PUSH2 0x3140 JUMPI RETURNDATASIZE PUSH1 0x0 DUP1 RETURNDATACOPY RETURNDATASIZE PUSH1 0x0 REVERT JUMPDEST POP POP POP POP PUSH1 0x40 MLOAD RETURNDATASIZE PUSH1 0x1F NOT PUSH1 0x1F DUP3 ADD AND DUP3 ADD DUP1 PUSH1 0x40 MSTORE POP DUP2 ADD SWAP1 PUSH2 0x3164 SWAP2 SWAP1 PUSH2 0x45DE JUMP JUMPDEST PUSH1 0x16 DUP2 SWAP1 SSTORE POP JUMP JUMPDEST PUSH1 0x60 PUSH1 0x0 DUP3 SUB PUSH2 0x31B3 JUMPI PUSH1 0x40 MLOAD DUP1 PUSH1 0x40 ADD PUSH1 0x40 MSTORE DUP1 PUSH1 0x1 DUP2 MSTORE PUSH1 0x20 ADD PUSH32 0x3000000000000000000000000000000000000000000000000000000000000000 DUP2 MSTORE POP SWAP1 POP PUSH2 0x32EF JUMP JUMPDEST PUSH1 0x0 DUP3 SWAP1 POP PUSH1 0x0 JUMPDEST PUSH1 0x0 DUP3 EQ PUSH2 0x31E5 JUMPI DUP1 DUP1 PUSH2 0x31CE SWAP1 PUSH2 0x4485 JUMP JUMPDEST SWAP2 POP POP PUSH1 0xA DUP3 PUSH2 0x31DE SWAP2 SWAP1 PUSH2 0x4165 JUMP JUMPDEST SWAP2 POP PUSH2 0x31BB JUMP JUMPDEST PUSH1 0x0 DUP2 PUSH8 0xFFFFFFFFFFFFFFFF DUP2 GT ISZERO PUSH2 0x3201 JUMPI PUSH2 0x3200 PUSH2 0x3AE2 JUMP JUMPDEST JUMPDEST PUSH1 0x40 MLOAD SWAP1 DUP1 DUP3 MSTORE DUP1 PUSH1 0x1F ADD PUSH1 0x1F NOT AND PUSH1 0x20 ADD DUP3 ADD PUSH1 0x40 MSTORE DUP1 ISZERO PUSH2 0x3233 JUMPI DUP2 PUSH1 0x20 ADD PUSH1 0x1 DUP3 MUL DUP1 CALLDATASIZE DUP4 CALLDATACOPY DUP1 DUP3 ADD SWAP2 POP POP SWAP1 POP JUMPDEST POP SWAP1 POP PUSH1 0x0 DUP3 SWAP1 POP JUMPDEST PUSH1 0x0 DUP7 EQ PUSH2 0x32E7 JUMPI PUSH1 0x1 DUP2 PUSH2 0x3251 SWAP2 SWAP1 PUSH2 0x4102 JUMP JUMPDEST SWAP1 POP PUSH1 0x0 PUSH1 0xA DUP1 DUP9 PUSH2 0x3263 SWAP2 SWAP1 PUSH2 0x4165 JUMP JUMPDEST PUSH2 0x326D SWAP2 SWAP1 PUSH2 0x4196 JUMP JUMPDEST DUP8 PUSH2 0x3278 SWAP2 SWAP1 PUSH2 0x4102 JUMP JUMPDEST PUSH1 0x30 PUSH2 0x3284 SWAP2 SWAP1 PUSH2 0x4618 JUMP JUMPDEST SWAP1 POP PUSH1 0x0 DUP2 PUSH1 0xF8 SHL SWAP1 POP DUP1 DUP5 DUP5 DUP2 MLOAD DUP2 LT PUSH2 0x32A2 JUMPI PUSH2 0x32A1 PUSH2 0x41D8 JUMP JUMPDEST JUMPDEST PUSH1 0x20 ADD ADD SWAP1 PUSH31 0xFFFFFFFFFFFFFFFFFFFFFFFFFFFFFFFFFFFFFFFFFFFFFFFFFFFFFFFFFFFFFF NOT AND SWAP1 DUP2 PUSH1 0x0 BYTE SWAP1 MSTORE8 POP PUSH1 0xA DUP9 PUSH2 0x32DE SWAP2 SWAP1 PUSH2 0x4165 JUMP JUMPDEST SWAP8 POP POP POP PUSH2 0x323C JUMP JUMPDEST DUP2 SWAP5 POP POP POP POP POP JUMPDEST SWAP2 SWAP1 POP JUMP JUMPDEST PUSH1 0x60 PUSH1 0x0 PUSH1 0x40 MLOAD DUP1 PUSH1 0x40 ADD PUSH1 0x40 MSTORE DUP1 PUSH1 0x1 DUP2 MSTORE PUSH1 0x20 ADD PUSH32 0x2C00000000000000000000000000000000000000000000000000000000000000 DUP2 MSTORE POP SWAP1 POP DUP8 DUP2 DUP9 DUP4 DUP10 DUP6 DUP11 DUP8 DUP12 DUP10 DUP13 PUSH1 0x40 MLOAD PUSH1 0x20 ADD PUSH2 0x3355 SWAP12 SWAP11 SWAP10 SWAP9 SWAP8 SWAP7 SWAP6 SWAP5 SWAP4 SWAP3 SWAP2 SWAP1 PUSH2 0x4689 JUMP JUMPDEST PUSH1 0x40 MLOAD PUSH1 0x20 DUP2 DUP4 SUB SUB DUP2 MSTORE SWAP1 PUSH1 0x40 MSTORE SWAP2 POP POP SWAP7 SWAP6 POP POP POP POP POP POP JUMP JUMPDEST DUP1 PUSH1 0x5 SWAP1 DUP1 MLOAD SWAP1 PUSH1 0x20 ADD SWAP1 PUSH2 0x3387 SWAP3 SWAP2 SWAP1 PUSH2 0x3506 JUMP JUMPDEST POP DUP2 PUSH1 0x4 SWAP1 DUP2 PUSH2 0x3397 SWAP2 SWAP1 PUSH2 0x43B3 JUMP JUMPDEST POP SELFBALANCE PUSH1 0x6 DUP2 SWAP1 SSTORE POP PUSH1 0x3 PUSH1 0x2 SWAP1 DUP1 SLOAD PUSH2 0x33B1 SWAP3 SWAP2 SWAP1 PUSH2 0x3590 JUMP JUMPDEST POP PUSH1 0x0 PUSH1 0x8 DUP2 SWAP1 SSTORE POP PUSH1 0x0 PUSH1 0x1C SLOAD SWAP1 POP PUSH1 0x1 DUP2 PUSH2 0x33CE SWAP2 SWAP1 PUSH2 0x40CE JUMP JUMPDEST PUSH1 0x1C DUP2 SWAP1 SSTORE POP PUSH1 0x9 PUSH1 0xA SWAP1 DUP1 SLOAD PUSH2 0x33E6 SWAP3 SWAP2 SWAP1 PUSH2 0x36A0 JUMP JUMPDEST POP PUSH1 0x9 PUSH1 0xB SWAP1 DUP1 SLOAD PUSH2 0x33F9 SWAP3 SWAP2 SWAP1 PUSH2 0x36A0 JUMP JUMPDEST POP PUSH1 0x9 PUSH1 0xC SWAP1 DUP1 SLOAD PUSH2 0x340C SWAP3 SWAP2 SWAP1 PUSH2 0x36A0 JUMP JUMPDEST POP PUSH1 0x9 PUSH1 0xD SWAP1 DUP1 SLOAD PUSH2 0x341F SWAP3 SWAP2 SWAP1 PUSH2 0x36A0 JUMP JUMPDEST POP PUSH1 0x9 PUSH1 0xE SWAP1 DUP1 SLOAD PUSH2 0x3432 SWAP3 SWAP2 SWAP1 PUSH2 0x36A0 JUMP JUMPDEST POP PUSH1 0x9 PUSH1 0xF SWAP1 DUP1 SLOAD PUSH2 0x3445 SWAP3 SWAP2 SWAP1 PUSH2 0x36A0 JUMP JUMPDEST POP PUSH1 0x14 PUSH1 0x15 SWAP1 DUP1 SLOAD PUSH2 0x3458 SWAP3 SWAP2 SWAP1 PUSH2 0x36F2 JUMP JUMPDEST POP POP POP POP JUMP JUMPDEST PUSH1 0x40 MLOAD DUP1 PUSH2 0x100 ADD PUSH1 0x40 MSTORE DUP1 PUSH1 0x0 PUSH20 0xFFFFFFFFFFFFFFFFFFFFFFFFFFFFFFFFFFFFFFFF AND DUP2 MSTORE PUSH1 0x20 ADD PUSH1 0x60 DUP2 MSTORE PUSH1 0x20 ADD PUSH1 0x0 DUP2 MSTORE PUSH1 0x20 ADD PUSH1 0x0 DUP2 MSTORE PUSH1 0x20 ADD PUSH1 0x0 DUP2 MSTORE PUSH1 0x20 ADD PUSH1 0x0 DUP2 MSTORE PUSH1 0x20 ADD PUSH1 0x0 DUP2 MSTORE PUSH1 0x20 ADD PUSH1 0x0 DUP2 MSTORE POP SWAP1 JUMP JUMPDEST DUP3 DUP1 SLOAD DUP3 DUP3 SSTORE SWAP1 PUSH1 0x0 MSTORE PUSH1 0x20 PUSH1 0x0 KECCAK256 SWAP1 DUP2 ADD SWAP3 DUP3 ISZERO PUSH2 0x34F5 JUMPI SWAP2 PUSH1 0x20 MUL DUP3 ADD JUMPDEST DUP3 DUP2 GT ISZERO PUSH2 0x34F4 JUMPI DUP3 MLOAD DUP3 SSTORE SWAP2 PUSH1 0x20 ADD SWAP2 SWAP1 PUSH1 0x1 ADD SWAP1 PUSH2 0x34D9 JUMP JUMPDEST JUMPDEST POP SWAP1 POP PUSH2 0x3502 SWAP2 SWAP1 PUSH2 0x3744 JUMP JUMPDEST POP SWAP1 JUMP JUMPDEST DUP3 DUP1 SLOAD DUP3 DUP3 SSTORE SWAP1 PUSH1 0x0 MSTORE PUSH1 0x20 PUSH1 0x0 KECCAK256 SWAP1 DUP2 ADD SWAP3 DUP3 ISZERO PUSH2 0x357F JUMPI SWAP2 PUSH1 0x20 MUL DUP3 ADD JUMPDEST DUP3 DUP2 GT ISZERO PUSH2 0x357E JUMPI DUP3 MLOAD DUP3 PUSH1 0x0 PUSH2 0x100 EXP DUP2 SLOAD DUP2 PUSH20 0xFFFFFFFFFFFFFFFFFFFFFFFFFFFFFFFFFFFFFFFF MUL NOT AND SWAP1 DUP4 PUSH20 0xFFFFFFFFFFFFFFFFFFFFFFFFFFFFFFFFFFFFFFFF AND MUL OR SWAP1 SSTORE POP SWAP2 PUSH1 0x20 ADD SWAP2 SWAP1 PUSH1 0x1 ADD SWAP1 PUSH2 0x3526 JUMP JUMPDEST JUMPDEST POP SWAP1 POP PUSH2 0x358C SWAP2 SWAP1 PUSH2 0x3744 JUMP JUMPDEST POP SWAP1 JUMP JUMPDEST DUP3 DUP1 SLOAD DUP3 DUP3 SSTORE SWAP1 PUSH1 0x0 MSTORE PUSH1 0x20 PUSH1 0x0 KECCAK256 SWAP1 PUSH1 0x8 MUL DUP2 ADD SWAP3 DUP3 ISZERO PUSH2 0x368F JUMPI PUSH1 0x0 MSTORE PUSH1 0x20 PUSH1 0x0 KECCAK256 SWAP2 PUSH1 0x8 MUL DUP3 ADD JUMPDEST DUP3 DUP2 GT ISZERO PUSH2 0x368E JUMPI DUP3 DUP3 PUSH1 0x0 DUP3 ADD PUSH1 0x0 SWAP1 SLOAD SWAP1 PUSH2 0x100 EXP SWAP1 DIV PUSH20 0xFFFFFFFFFFFFFFFFFFFFFFFFFFFFFFFFFFFFFFFF AND DUP2 PUSH1 0x0 ADD PUSH1 0x0 PUSH2 0x100 EXP DUP2 SLOAD DUP2 PUSH20 0xFFFFFFFFFFFFFFFFFFFFFFFFFFFFFFFFFFFFFFFF MUL NOT AND SWAP1 DUP4 PUSH20 0xFFFFFFFFFFFFFFFFFFFFFFFFFFFFFFFFFFFFFFFF AND MUL OR SWAP1 SSTORE POP PUSH1 0x1 DUP3 ADD DUP2 PUSH1 0x1 ADD SWAP1 DUP2 PUSH2 0x3640 SWAP2 SWAP1 PUSH2 0x4738 JUMP JUMPDEST POP PUSH1 0x2 DUP3 ADD SLOAD DUP2 PUSH1 0x2 ADD SSTORE PUSH1 0x3 DUP3 ADD SLOAD DUP2 PUSH1 0x3 ADD SSTORE PUSH1 0x4 DUP3 ADD SLOAD DUP2 PUSH1 0x4 ADD SSTORE PUSH1 0x5 DUP3 ADD SLOAD DUP2 PUSH1 0x5 ADD SSTORE PUSH1 0x6 DUP3 ADD SLOAD DUP2 PUSH1 0x6 ADD SSTORE PUSH1 0x7 DUP3 ADD SLOAD DUP2 PUSH1 0x7 ADD SSTORE POP POP SWAP2 PUSH1 0x8 ADD SWAP2 SWAP1 PUSH1 0x8 ADD SWAP1 PUSH2 0x35BB JUMP JUMPDEST JUMPDEST POP SWAP1 POP PUSH2 0x369C SWAP2 SWAP1 PUSH2 0x3761 JUMP JUMPDEST POP SWAP1 JUMP JUMPDEST DUP3 DUP1 SLOAD DUP3 DUP3 SSTORE SWAP1 PUSH1 0x0 MSTORE PUSH1 0x20 PUSH1 0x0 KECCAK256 SWAP1 DUP2 ADD SWAP3 DUP3 ISZERO PUSH2 0x36E1 JUMPI PUSH1 0x0 MSTORE PUSH1 0x20 PUSH1 0x0 KECCAK256 SWAP2 DUP3 ADD JUMPDEST DUP3 DUP2 GT ISZERO PUSH2 0x36E0 JUMPI DUP3 SLOAD DUP3 SSTORE SWAP2 PUSH1 0x1 ADD SWAP2 SWAP1 PUSH1 0x1 ADD SWAP1 PUSH2 0x36C5 JUMP JUMPDEST JUMPDEST POP SWAP1 POP PUSH2 0x36EE SWAP2 SWAP1 PUSH2 0x3744 JUMP JUMPDEST POP SWAP1 JUMP JUMPDEST DUP3 DUP1 SLOAD DUP3 DUP3 SSTORE SWAP1 PUSH1 0x0 MSTORE PUSH1 0x20 PUSH1 0x0 KECCAK256 SWAP1 DUP2 ADD SWAP3 DUP3 ISZERO PUSH2 0x3733 JUMPI PUSH1 0x0 MSTORE PUSH1 0x20 PUSH1 0x0 KECCAK256 SWAP2 DUP3 ADD JUMPDEST DUP3 DUP2 GT ISZERO PUSH2 0x3732 JUMPI DUP3 SLOAD DUP3 SSTORE SWAP2 PUSH1 0x1 ADD SWAP2 SWAP1 PUSH1 0x1 ADD SWAP1 PUSH2 0x3717 JUMP JUMPDEST JUMPDEST POP SWAP1 POP PUSH2 0x3740 SWAP2 SWAP1 PUSH2 0x3744 JUMP JUMPDEST POP SWAP1 JUMP JUMPDEST JUMPDEST DUP1 DUP3 GT ISZERO PUSH2 0x375D JUMPI PUSH1 0x0 DUP2 PUSH1 0x0 SWAP1 SSTORE POP PUSH1 0x1 ADD PUSH2 0x3745 JUMP JUMPDEST POP SWAP1 JUMP JUMPDEST JUMPDEST DUP1 DUP3 GT ISZERO PUSH2 0x37DB JUMPI PUSH1 0x0 DUP1 DUP3 ADD PUSH1 0x0 PUSH2 0x100 EXP DUP2 SLOAD SWAP1 PUSH20 0xFFFFFFFFFFFFFFFFFFFFFFFFFFFFFFFFFFFFFFFF MUL NOT AND SWAP1 SSTORE PUSH1 0x1 DUP3 ADD PUSH1 0x0 PUSH2 0x37A2 SWAP2 SWAP1 PUSH2 0x37DF JUMP JUMPDEST PUSH1 0x2 DUP3 ADD PUSH1 0x0 SWAP1 SSTORE PUSH1 0x3 DUP3 ADD PUSH1 0x0 SWAP1 SSTORE PUSH1 0x4 DUP3 ADD PUSH1 0x0 SWAP1 SSTORE PUSH1 0x5 DUP3 ADD PUSH1 0x0 SWAP1 SSTORE PUSH1 0x6 DUP3 ADD PUSH1 0x0 SWAP1 SSTORE PUSH1 0x7 DUP3 ADD PUSH1 0x0 SWAP1 SSTORE POP PUSH1 0x8 ADD PUSH2 0x3762 JUMP JUMPDEST POP SWAP1 JUMP JUMPDEST POP DUP1 SLOAD PUSH2 0x37EB SWAP1 PUSH2 0x3F72 JUMP JUMPDEST PUSH1 0x0 DUP3 SSTORE DUP1 PUSH1 0x1F LT PUSH2 0x37FD JUMPI POP PUSH2 0x381C JUMP JUMPDEST PUSH1 0x1F ADD PUSH1 0x20 SWAP1 DIV SWAP1 PUSH1 0x0 MSTORE PUSH1 0x20 PUSH1 0x0 KECCAK256 SWAP1 DUP2 ADD SWAP1 PUSH2 0x381B SWAP2 SWAP1 PUSH2 0x3744 JUMP JUMPDEST JUMPDEST POP JUMP JUMPDEST PUSH1 0x0 DUP2 MLOAD SWAP1 POP SWAP2 SWAP1 POP JUMP JUMPDEST PUSH1 0x0 DUP3 DUP3 MSTORE PUSH1 0x20 DUP3 ADD SWAP1 POP SWAP3 SWAP2 POP POP JUMP JUMPDEST PUSH1 0x0 DUP2 SWAP1 POP PUSH1 0x20 DUP3 ADD SWAP1 POP SWAP2 SWAP1 POP JUMP JUMPDEST PUSH1 0x0 PUSH20 0xFFFFFFFFFFFFFFFFFFFFFFFFFFFFFFFFFFFFFFFF DUP3 AND SWAP1 POP SWAP2 SWAP1 POP JUMP JUMPDEST PUSH1 0x0 PUSH2 0x3876 DUP3 PUSH2 0x384B JUMP JUMPDEST SWAP1 POP SWAP2 SWAP1 POP JUMP JUMPDEST PUSH2 0x3886 DUP2 PUSH2 0x386B JUMP JUMPDEST DUP3 MSTORE POP POP JUMP JUMPDEST PUSH1 0x0 DUP2 MLOAD SWAP1 POP SWAP2 SWAP1 POP JUMP JUMPDEST PUSH1 0x0 DUP3 DUP3 MSTORE PUSH1 0x20 DUP3 ADD SWAP1 POP SWAP3 SWAP2 POP POP JUMP JUMPDEST PUSH1 0x0 JUMPDEST DUP4 DUP2 LT ISZERO PUSH2 0x38C6 JUMPI DUP1 DUP3 ADD MLOAD DUP2 DUP5 ADD MSTORE PUSH1 0x20 DUP2 ADD SWAP1 POP PUSH2 0x38AB JUMP JUMPDEST PUSH1 0x0 DUP5 DUP5 ADD MSTORE POP POP POP POP JUMP JUMPDEST PUSH1 0x0 PUSH1 0x1F NOT PUSH1 0x1F DUP4 ADD AND SWAP1 POP SWAP2 SWAP1 POP JUMP JUMPDEST PUSH1 0x0 PUSH2 0x38EE DUP3 PUSH2 0x388C JUMP JUMPDEST PUSH2 0x38F8 DUP2 DUP6 PUSH2 0x3897 JUMP JUMPDEST SWAP4 POP PUSH2 0x3908 DUP2 DUP6 PUSH1 0x20 DUP7 ADD PUSH2 0x38A8 JUMP JUMPDEST PUSH2 0x3911 DUP2 PUSH2 0x38D2 JUMP JUMPDEST DUP5 ADD SWAP2 POP POP SWAP3 SWAP2 POP POP JUMP JUMPDEST PUSH1 0x0 DUP2 SWAP1 POP SWAP2 SWAP1 POP JUMP JUMPDEST PUSH2 0x392F DUP2 PUSH2 0x391C JUMP JUMPDEST DUP3 MSTORE POP POP JUMP JUMPDEST PUSH1 0x0 PUSH2 0x100 DUP4 ADD PUSH1 0x0 DUP4 ADD MLOAD PUSH2 0x394E PUSH1 0x0 DUP7 ADD DUP3 PUSH2 0x387D JUMP JUMPDEST POP PUSH1 0x20 DUP4 ADD MLOAD DUP5 DUP3 SUB PUSH1 0x20 DUP7 ADD MSTORE PUSH2 0x3966 DUP3 DUP3 PUSH2 0x38E3 JUMP JUMPDEST SWAP2 POP POP PUSH1 0x40 DUP4 ADD MLOAD PUSH2 0x397B PUSH1 0x40 DUP7 ADD DUP3 PUSH2 0x3926 JUMP JUMPDEST POP PUSH1 0x60 DUP4 ADD MLOAD PUSH2 0x398E PUSH1 0x60 DUP7 ADD DUP3 PUSH2 0x3926 JUMP JUMPDEST POP PUSH1 0x80 DUP4 ADD MLOAD PUSH2 0x39A1 PUSH1 0x80 DUP7 ADD DUP3 PUSH2 0x3926 JUMP JUMPDEST POP PUSH1 0xA0 DUP4 ADD MLOAD PUSH2 0x39B4 PUSH1 0xA0 DUP7 ADD DUP3 PUSH2 0x3926 JUMP JUMPDEST POP PUSH1 0xC0 DUP4 ADD MLOAD PUSH2 0x39C7 PUSH1 0xC0 DUP7 ADD DUP3 PUSH2 0x3926 JUMP JUMPDEST POP PUSH1 0xE0 DUP4 ADD MLOAD PUSH2 0x39DA PUSH1 0xE0 DUP7 ADD DUP3 PUSH2 0x3926 JUMP JUMPDEST POP DUP1 SWAP2 POP POP SWAP3 SWAP2 POP POP JUMP JUMPDEST PUSH1 0x0 PUSH2 0x39F1 DUP4 DUP4 PUSH2 0x3935 JUMP JUMPDEST SWAP1 POP SWAP3 SWAP2 POP POP JUMP JUMPDEST PUSH1 0x0 PUSH1 0x20 DUP3 ADD SWAP1 POP SWAP2 SWAP1 POP JUMP JUMPDEST PUSH1 0x0 PUSH2 0x3A11 DUP3 PUSH2 0x381F JUMP JUMPDEST PUSH2 0x3A1B DUP2 DUP6 PUSH2 0x382A JUMP JUMPDEST SWAP4 POP DUP4 PUSH1 0x20 DUP3 MUL DUP6 ADD PUSH2 0x3A2D DUP6 PUSH2 0x383B JUMP JUMPDEST DUP1 PUSH1 0x0 JUMPDEST DUP6 DUP2 LT ISZERO PUSH2 0x3A69 JUMPI DUP5 DUP5 SUB DUP10 MSTORE DUP2 MLOAD PUSH2 0x3A4A DUP6 DUP3 PUSH2 0x39E5 JUMP JUMPDEST SWAP5 POP PUSH2 0x3A55 DUP4 PUSH2 0x39F9 JUMP JUMPDEST SWAP3 POP PUSH1 0x20 DUP11 ADD SWAP10 POP POP PUSH1 0x1 DUP2 ADD SWAP1 POP PUSH2 0x3A31 JUMP JUMPDEST POP DUP3 SWAP8 POP DUP8 SWAP6 POP POP POP POP POP POP SWAP3 SWAP2 POP POP JUMP JUMPDEST PUSH1 0x0 PUSH1 0x20 DUP3 ADD SWAP1 POP DUP2 DUP2 SUB PUSH1 0x0 DUP4 ADD MSTORE PUSH2 0x3A95 DUP2 DUP5 PUSH2 0x3A06 JUMP JUMPDEST SWAP1 POP SWAP3 SWAP2 POP POP JUMP JUMPDEST PUSH1 0x0 PUSH1 0x40 MLOAD SWAP1 POP SWAP1 JUMP JUMPDEST PUSH1 0x0 DUP1 REVERT JUMPDEST PUSH1 0x0 DUP1 REVERT JUMPDEST PUSH2 0x3ABA DUP2 PUSH2 0x391C JUMP JUMPDEST DUP2 EQ PUSH2 0x3AC5 JUMPI PUSH1 0x0 DUP1 REVERT JUMPDEST POP JUMP JUMPDEST PUSH1 0x0 DUP2 CALLDATALOAD SWAP1 POP PUSH2 0x3AD7 DUP2 PUSH2 0x3AB1 JUMP JUMPDEST SWAP3 SWAP2 POP POP JUMP JUMPDEST PUSH1 0x0 DUP1 REVERT JUMPDEST PUSH32 0x4E487B7100000000000000000000000000000000000000000000000000000000 PUSH1 0x0 MSTORE PUSH1 0x41 PUSH1 0x4 MSTORE PUSH1 0x24 PUSH1 0x0 REVERT JUMPDEST PUSH2 0x3B1A DUP3 PUSH2 0x38D2 JUMP JUMPDEST DUP2 ADD DUP2 DUP2 LT PUSH8 0xFFFFFFFFFFFFFFFF DUP3 GT OR ISZERO PUSH2 0x3B39 JUMPI PUSH2 0x3B38 PUSH2 0x3AE2 JUMP JUMPDEST JUMPDEST DUP1 PUSH1 0x40 MSTORE POP POP POP JUMP JUMPDEST PUSH1 0x0 PUSH2 0x3B4C PUSH2 0x3A9D JUMP JUMPDEST SWAP1 POP PUSH2 0x3B58 DUP3 DUP3 PUSH2 0x3B11 JUMP JUMPDEST SWAP2 SWAP1 POP JUMP JUMPDEST PUSH1 0x0 PUSH8 0xFFFFFFFFFFFFFFFF DUP3 GT ISZERO PUSH2 0x3B78 JUMPI PUSH2 0x3B77 PUSH2 0x3AE2 JUMP JUMPDEST JUMPDEST PUSH1 0x20 DUP3 MUL SWAP1 POP PUSH1 0x20 DUP2 ADD SWAP1 POP SWAP2 SWAP1 POP JUMP JUMPDEST PUSH1 0x0 DUP1 REVERT JUMPDEST PUSH1 0x0 PUSH2 0x3BA1 PUSH2 0x3B9C DUP5 PUSH2 0x3B5D JUMP JUMPDEST PUSH2 0x3B42 JUMP JUMPDEST SWAP1 POP DUP1 DUP4 DUP3 MSTORE PUSH1 0x20 DUP3 ADD SWAP1 POP PUSH1 0x20 DUP5 MUL DUP4 ADD DUP6 DUP2 GT ISZERO PUSH2 0x3BC4 JUMPI PUSH2 0x3BC3 PUSH2 0x3B89 JUMP JUMPDEST JUMPDEST DUP4 JUMPDEST DUP2 DUP2 LT ISZERO PUSH2 0x3BED JUMPI DUP1 PUSH2 0x3BD9 DUP9 DUP3 PUSH2 0x3AC8 JUMP JUMPDEST DUP5 MSTORE PUSH1 0x20 DUP5 ADD SWAP4 POP POP PUSH1 0x20 DUP2 ADD SWAP1 POP PUSH2 0x3BC6 JUMP JUMPDEST POP POP POP SWAP4 SWAP3 POP POP POP JUMP JUMPDEST PUSH1 0x0 DUP3 PUSH1 0x1F DUP4 ADD SLT PUSH2 0x3C0C JUMPI PUSH2 0x3C0B PUSH2 0x3ADD JUMP JUMPDEST JUMPDEST DUP2 CALLDATALOAD PUSH2 0x3C1C DUP5 DUP3 PUSH1 0x20 DUP7 ADD PUSH2 0x3B8E JUMP JUMPDEST SWAP2 POP POP SWAP3 SWAP2 POP POP JUMP JUMPDEST PUSH1 0x0 DUP1 PUSH1 0x40 DUP4 DUP6 SUB SLT ISZERO PUSH2 0x3C3C JUMPI PUSH2 0x3C3B PUSH2 0x3AA7 JUMP JUMPDEST JUMPDEST PUSH1 0x0 PUSH2 0x3C4A DUP6 DUP3 DUP7 ADD PUSH2 0x3AC8 JUMP JUMPDEST SWAP3 POP POP PUSH1 0x20 DUP4 ADD CALLDATALOAD PUSH8 0xFFFFFFFFFFFFFFFF DUP2 GT ISZERO PUSH2 0x3C6B JUMPI PUSH2 0x3C6A PUSH2 0x3AAC JUMP JUMPDEST JUMPDEST PUSH2 0x3C77 DUP6 DUP3 DUP7 ADD PUSH2 0x3BF7 JUMP JUMPDEST SWAP2 POP POP SWAP3 POP SWAP3 SWAP1 POP JUMP JUMPDEST PUSH1 0x0 PUSH1 0x20 DUP3 DUP5 SUB SLT ISZERO PUSH2 0x3C97 JUMPI PUSH2 0x3C96 PUSH2 0x3AA7 JUMP JUMPDEST JUMPDEST PUSH1 0x0 PUSH2 0x3CA5 DUP5 DUP3 DUP6 ADD PUSH2 0x3AC8 JUMP JUMPDEST SWAP2 POP POP SWAP3 SWAP2 POP POP JUMP JUMPDEST PUSH2 0x3CB7 DUP2 PUSH2 0x391C JUMP JUMPDEST DUP3 MSTORE POP POP JUMP JUMPDEST PUSH1 0x0 PUSH1 0x20 DUP3 ADD SWAP1 POP PUSH2 0x3CD2 PUSH1 0x0 DUP4 ADD DUP5 PUSH2 0x3CAE JUMP JUMPDEST SWAP3 SWAP2 POP POP JUMP JUMPDEST PUSH1 0x0 DUP2 ISZERO ISZERO SWAP1 POP SWAP2 SWAP1 POP JUMP JUMPDEST PUSH2 0x3CED DUP2 PUSH2 0x3CD8 JUMP JUMPDEST DUP3 MSTORE POP POP JUMP JUMPDEST PUSH1 0x0 PUSH1 0x20 DUP3 ADD SWAP1 POP PUSH2 0x3D08 PUSH1 0x0 DUP4 ADD DUP5 PUSH2 0x3CE4 JUMP JUMPDEST SWAP3 SWAP2 POP POP JUMP JUMPDEST PUSH2 0x3D17 DUP2 PUSH2 0x386B JUMP JUMPDEST DUP3 MSTORE POP POP JUMP JUMPDEST PUSH1 0x0 DUP3 DUP3 MSTORE PUSH1 0x20 DUP3 ADD SWAP1 POP SWAP3 SWAP2 POP POP JUMP JUMPDEST PUSH1 0x0 PUSH2 0x3D39 DUP3 PUSH2 0x388C JUMP JUMPDEST PUSH2 0x3D43 DUP2 DUP6 PUSH2 0x3D1D JUMP JUMPDEST SWAP4 POP PUSH2 0x3D53 DUP2 DUP6 PUSH1 0x20 DUP7 ADD PUSH2 0x38A8 JUMP JUMPDEST PUSH2 0x3D5C DUP2 PUSH2 0x38D2 JUMP JUMPDEST DUP5 ADD SWAP2 POP POP SWAP3 SWAP2 POP POP JUMP JUMPDEST PUSH1 0x0 PUSH2 0x100 DUP3 ADD SWAP1 POP PUSH2 0x3D7D PUSH1 0x0 DUP4 ADD DUP12 PUSH2 0x3D0E JUMP JUMPDEST DUP2 DUP2 SUB PUSH1 0x20 DUP4 ADD MSTORE PUSH2 0x3D8F DUP2 DUP11 PUSH2 0x3D2E JUMP JUMPDEST SWAP1 POP PUSH2 0x3D9E PUSH1 0x40 DUP4 ADD DUP10 PUSH2 0x3CAE JUMP JUMPDEST PUSH2 0x3DAB PUSH1 0x60 DUP4 ADD DUP9 PUSH2 0x3CAE JUMP JUMPDEST PUSH2 0x3DB8 PUSH1 0x80 DUP4 ADD DUP8 PUSH2 0x3CAE JUMP JUMPDEST PUSH2 0x3DC5 PUSH1 0xA0 DUP4 ADD DUP7 PUSH2 0x3CAE JUMP JUMPDEST PUSH2 0x3DD2 PUSH1 0xC0 DUP4 ADD DUP6 PUSH2 0x3CAE JUMP JUMPDEST PUSH2 0x3DDF PUSH1 0xE0 DUP4 ADD DUP5 PUSH2 0x3CAE JUMP JUMPDEST SWAP10 SWAP9 POP POP POP POP POP POP POP POP POP JUMP JUMPDEST PUSH1 0x0 PUSH1 0x20 DUP3 DUP5 SUB SLT ISZERO PUSH2 0x3E02 JUMPI PUSH2 0x3E01 PUSH2 0x3AA7 JUMP JUMPDEST JUMPDEST PUSH1 0x0 DUP3 ADD CALLDATALOAD PUSH8 0xFFFFFFFFFFFFFFFF DUP2 GT ISZERO PUSH2 0x3E20 JUMPI PUSH2 0x3E1F PUSH2 0x3AAC JUMP JUMPDEST JUMPDEST PUSH2 0x3E2C DUP5 DUP3 DUP6 ADD PUSH2 0x3BF7 JUMP JUMPDEST SWAP2 POP POP SWAP3 SWAP2 POP POP JUMP JUMPDEST PUSH1 0x0 PUSH1 0x20 DUP3 ADD SWAP1 POP DUP2 DUP2 SUB PUSH1 0x0 DUP4 ADD MSTORE PUSH2 0x3E4F DUP2 DUP5 PUSH2 0x3D2E JUMP JUMPDEST SWAP1 POP SWAP3 SWAP2 POP POP JUMP JUMPDEST PUSH1 0x0 DUP2 MLOAD SWAP1 POP SWAP2 SWAP1 POP JUMP JUMPDEST PUSH1 0x0 DUP3 DUP3 MSTORE PUSH1 0x20 DUP3 ADD SWAP1 POP SWAP3 SWAP2 POP POP JUMP JUMPDEST PUSH1 0x0 DUP2 SWAP1 POP PUSH1 0x20 DUP3 ADD SWAP1 POP SWAP2 SWAP1 POP JUMP JUMPDEST PUSH1 0x0 PUSH2 0x3E8F DUP4 DUP4 PUSH2 0x387D JUMP JUMPDEST PUSH1 0x20 DUP4 ADD SWAP1 POP SWAP3 SWAP2 POP POP JUMP JUMPDEST PUSH1 0x0 PUSH1 0x20 DUP3 ADD SWAP1 POP SWAP2 SWAP1 POP JUMP JUMPDEST PUSH1 0x0 PUSH2 0x3EB3 DUP3 PUSH2 0x3E57 JUMP JUMPDEST PUSH2 0x3EBD DUP2 DUP6 PUSH2 0x3E62 JUMP JUMPDEST SWAP4 POP PUSH2 0x3EC8 DUP4 PUSH2 0x3E73 JUMP JUMPDEST DUP1 PUSH1 0x0 JUMPDEST DUP4 DUP2 LT ISZERO PUSH2 0x3EF9 JUMPI DUP2 MLOAD PUSH2 0x3EE0 DUP9 DUP3 PUSH2 0x3E83 JUMP JUMPDEST SWAP8 POP PUSH2 0x3EEB DUP4 PUSH2 0x3E9B JUMP JUMPDEST SWAP3 POP POP PUSH1 0x1 DUP2 ADD SWAP1 POP PUSH2 0x3ECC JUMP JUMPDEST POP DUP6 SWAP4 POP POP POP POP SWAP3 SWAP2 POP POP JUMP JUMPDEST PUSH1 0x0 PUSH1 0x20 DUP3 ADD SWAP1 POP DUP2 DUP2 SUB PUSH1 0x0 DUP4 ADD MSTORE PUSH2 0x3F20 DUP2 DUP5 PUSH2 0x3EA8 JUMP JUMPDEST SWAP1 POP SWAP3 SWAP2 POP POP JUMP JUMPDEST PUSH1 0x0 PUSH1 0x20 DUP3 ADD SWAP1 POP PUSH2 0x3F3D PUSH1 0x0 DUP4 ADD DUP5 PUSH2 0x3D0E JUMP JUMPDEST SWAP3 SWAP2 POP POP JUMP JUMPDEST PUSH32 0x4E487B7100000000000000000000000000000000000000000000000000000000 PUSH1 0x0 MSTORE PUSH1 0x22 PUSH1 0x4 MSTORE PUSH1 0x24 PUSH1 0x0 REVERT JUMPDEST PUSH1 0x0 PUSH1 0x2 DUP3 DIV SWAP1 POP PUSH1 0x1 DUP3 AND DUP1 PUSH2 0x3F8A JUMPI PUSH1 0x7F DUP3 AND SWAP2 POP JUMPDEST PUSH1 0x20 DUP3 LT DUP2 SUB PUSH2 0x3F9D JUMPI PUSH2 0x3F9C PUSH2 0x3F43 JUMP JUMPDEST JUMPDEST POP SWAP2 SWAP1 POP JUMP JUMPDEST PUSH1 0x0 PUSH2 0x3FAE DUP3 PUSH2 0x384B JUMP JUMPDEST SWAP1 POP SWAP2 SWAP1 POP JUMP JUMPDEST PUSH2 0x3FBE DUP2 PUSH2 0x3FA3 JUMP JUMPDEST DUP3 MSTORE POP POP JUMP JUMPDEST PUSH1 0x0 PUSH1 0x40 DUP3 ADD SWAP1 POP PUSH2 0x3FD9 PUSH1 0x0 DUP4 ADD DUP6 PUSH2 0x3FB5 JUMP JUMPDEST PUSH2 0x3FE6 PUSH1 0x20 DUP4 ADD DUP5 PUSH2 0x3FB5 JUMP JUMPDEST SWAP4 SWAP3 POP POP POP JUMP JUMPDEST PUSH1 0x0 DUP2 SWAP1 POP SWAP3 SWAP2 POP POP JUMP JUMPDEST POP JUMP JUMPDEST PUSH1 0x0 PUSH2 0x4008 PUSH1 0x0 DUP4 PUSH2 0x3FED JUMP JUMPDEST SWAP2 POP PUSH2 0x4013 DUP3 PUSH2 0x3FF8 JUMP JUMPDEST PUSH1 0x0 DUP3 ADD SWAP1 POP SWAP2 SWAP1 POP JUMP JUMPDEST PUSH1 0x0 PUSH2 0x4029 DUP3 PUSH2 0x3FFB JUMP JUMPDEST SWAP2 POP DUP2 SWAP1 POP SWAP2 SWAP1 POP JUMP JUMPDEST PUSH32 0x4661696C656420746F2073656E64204574686572000000000000000000000000 PUSH1 0x0 DUP3 ADD MSTORE POP JUMP JUMPDEST PUSH1 0x0 PUSH2 0x4069 PUSH1 0x14 DUP4 PUSH2 0x3D1D JUMP JUMPDEST SWAP2 POP PUSH2 0x4074 DUP3 PUSH2 0x4033 JUMP JUMPDEST PUSH1 0x20 DUP3 ADD SWAP1 POP SWAP2 SWAP1 POP JUMP JUMPDEST PUSH1 0x0 PUSH1 0x20 DUP3 ADD SWAP1 POP DUP2 DUP2 SUB PUSH1 0x0 DUP4 ADD MSTORE PUSH2 0x4098 DUP2 PUSH2 0x405C JUMP JUMPDEST SWAP1 POP SWAP2 SWAP1 POP JUMP JUMPDEST PUSH32 0x4E487B7100000000000000000000000000000000000000000000000000000000 PUSH1 0x0 MSTORE PUSH1 0x11 PUSH1 0x4 MSTORE PUSH1 0x24 PUSH1 0x0 REVERT JUMPDEST PUSH1 0x0 PUSH2 0x40D9 DUP3 PUSH2 0x391C JUMP JUMPDEST SWAP2 POP PUSH2 0x40E4 DUP4 PUSH2 0x391C JUMP JUMPDEST SWAP3 POP DUP3 DUP3 ADD SWAP1 POP DUP1 DUP3 GT ISZERO PUSH2 0x40FC JUMPI PUSH2 0x40FB PUSH2 0x409F JUMP JUMPDEST JUMPDEST SWAP3 SWAP2 POP POP JUMP JUMPDEST PUSH1 0x0 PUSH2 0x410D DUP3 PUSH2 0x391C JUMP JUMPDEST SWAP2 POP PUSH2 0x4118 DUP4 PUSH2 0x391C JUMP JUMPDEST SWAP3 POP DUP3 DUP3 SUB SWAP1 POP DUP2 DUP2 GT ISZERO PUSH2 0x4130 JUMPI PUSH2 0x412F PUSH2 0x409F JUMP JUMPDEST JUMPDEST SWAP3 SWAP2 POP POP JUMP JUMPDEST PUSH32 0x4E487B7100000000000000000000000000000000000000000000000000000000 PUSH1 0x0 MSTORE PUSH1 0x12 PUSH1 0x4 MSTORE PUSH1 0x24 PUSH1 0x0 REVERT JUMPDEST PUSH1 0x0 PUSH2 0x4170 DUP3 PUSH2 0x391C JUMP JUMPDEST SWAP2 POP PUSH2 0x417B DUP4 PUSH2 0x391C JUMP JUMPDEST SWAP3 POP DUP3 PUSH2 0x418B JUMPI PUSH2 0x418A PUSH2 0x4136 JUMP JUMPDEST JUMPDEST DUP3 DUP3 DIV SWAP1 POP SWAP3 SWAP2 POP POP JUMP JUMPDEST PUSH1 0x0 PUSH2 0x41A1 DUP3 PUSH2 0x391C JUMP JUMPDEST SWAP2 POP PUSH2 0x41AC DUP4 PUSH2 0x391C JUMP JUMPDEST SWAP3 POP DUP3 DUP3 MUL PUSH2 0x41BA DUP2 PUSH2 0x391C JUMP JUMPDEST SWAP2 POP DUP3 DUP3 DIV DUP5 EQ DUP4 ISZERO OR PUSH2 0x41D1 JUMPI PUSH2 0x41D0 PUSH2 0x409F JUMP JUMPDEST JUMPDEST POP SWAP3 SWAP2 POP POP JUMP JUMPDEST PUSH32 0x4E487B7100000000000000000000000000000000000000000000000000000000 PUSH1 0x0 MSTORE PUSH1 0x32 PUSH1 0x4 MSTORE PUSH1 0x24 PUSH1 0x0 REVERT JUMPDEST PUSH1 0x0 DUP2 SWAP1 POP DUP2 PUSH1 0x0 MSTORE PUSH1 0x20 PUSH1 0x0 KECCAK256 SWAP1 POP SWAP2 SWAP1 POP JUMP JUMPDEST PUSH1 0x0 PUSH1 0x20 PUSH1 0x1F DUP4 ADD DIV SWAP1 POP SWAP2 SWAP1 POP JUMP JUMPDEST PUSH1 0x0 DUP3 DUP3 SHL SWAP1 POP SWAP3 SWAP2 POP POP JUMP JUMPDEST PUSH1 0x0 PUSH1 0x8 DUP4 MUL PUSH2 0x4269 PUSH32 0xFFFFFFFFFFFFFFFFFFFFFFFFFFFFFFFFFFFFFFFFFFFFFFFFFFFFFFFFFFFFFFFF DUP3 PUSH2 0x422C JUMP JUMPDEST PUSH2 0x4273 DUP7 DUP4 PUSH2 0x422C JUMP JUMPDEST SWAP6 POP DUP1 NOT DUP5 AND SWAP4 POP DUP1 DUP7 AND DUP5 OR SWAP3 POP POP POP SWAP4 SWAP3 POP POP POP JUMP JUMPDEST PUSH1 0x0 DUP2 SWAP1 POP SWAP2 SWAP1 POP JUMP JUMPDEST PUSH1 0x0 PUSH2 0x42B0 PUSH2 0x42AB PUSH2 0x42A6 DUP5 PUSH2 0x391C JUMP JUMPDEST PUSH2 0x428B JUMP JUMPDEST PUSH2 0x391C JUMP JUMPDEST SWAP1 POP SWAP2 SWAP1 POP JUMP JUMPDEST PUSH1 0x0 DUP2 SWAP1 POP SWAP2 SWAP1 POP JUMP JUMPDEST PUSH2 0x42CA DUP4 PUSH2 0x4295 JUMP JUMPDEST PUSH2 0x42DE PUSH2 0x42D6 DUP3 PUSH2 0x42B7 JUMP JUMPDEST DUP5 DUP5 SLOAD PUSH2 0x4239 JUMP JUMPDEST DUP3 SSTORE POP POP POP POP JUMP JUMPDEST PUSH1 0x0 SWAP1 JUMP JUMPDEST PUSH2 0x42F3 PUSH2 0x42E6 JUMP JUMPDEST PUSH2 0x42FE DUP2 DUP5 DUP5 PUSH2 0x42C1 JUMP JUMPDEST POP POP POP JUMP JUMPDEST JUMPDEST DUP2 DUP2 LT ISZERO PUSH2 0x4322 JUMPI PUSH2 0x4317 PUSH1 0x0 DUP3 PUSH2 0x42EB JUMP JUMPDEST PUSH1 0x1 DUP2 ADD SWAP1 POP PUSH2 0x4304 JUMP JUMPDEST POP POP JUMP JUMPDEST PUSH1 0x1F DUP3 GT ISZERO PUSH2 0x4367 JUMPI PUSH2 0x4338 DUP2 PUSH2 0x4207 JUMP JUMPDEST PUSH2 0x4341 DUP5 PUSH2 0x421C JUMP JUMPDEST DUP2 ADD PUSH1 0x20 DUP6 LT ISZERO PUSH2 0x4350 JUMPI DUP2 SWAP1 POP JUMPDEST PUSH2 0x4364 PUSH2 0x435C DUP6 PUSH2 0x421C JUMP JUMPDEST DUP4 ADD DUP3 PUSH2 0x4303 JUMP JUMPDEST POP POP JUMPDEST POP POP POP JUMP JUMPDEST PUSH1 0x0 DUP3 DUP3 SHR SWAP1 POP SWAP3 SWAP2 POP POP JUMP JUMPDEST PUSH1 0x0 PUSH2 0x438A PUSH1 0x0 NOT DUP5 PUSH1 0x8 MUL PUSH2 0x436C JUMP JUMPDEST NOT DUP1 DUP4 AND SWAP2 POP POP SWAP3 SWAP2 POP POP JUMP JUMPDEST PUSH1 0x0 PUSH2 0x43A3 DUP4 DUP4 PUSH2 0x4379 JUMP JUMPDEST SWAP2 POP DUP3 PUSH1 0x2 MUL DUP3 OR SWAP1 POP SWAP3 SWAP2 POP POP JUMP JUMPDEST PUSH2 0x43BC DUP3 PUSH2 0x388C JUMP JUMPDEST PUSH8 0xFFFFFFFFFFFFFFFF DUP2 GT ISZERO PUSH2 0x43D5 JUMPI PUSH2 0x43D4 PUSH2 0x3AE2 JUMP JUMPDEST JUMPDEST PUSH2 0x43DF DUP3 SLOAD PUSH2 0x3F72 JUMP JUMPDEST PUSH2 0x43EA DUP3 DUP3 DUP6 PUSH2 0x4326 JUMP JUMPDEST PUSH1 0x0 PUSH1 0x20 SWAP1 POP PUSH1 0x1F DUP4 GT PUSH1 0x1 DUP2 EQ PUSH2 0x441D JUMPI PUSH1 0x0 DUP5 ISZERO PUSH2 0x440B JUMPI DUP3 DUP8 ADD MLOAD SWAP1 POP JUMPDEST PUSH2 0x4415 DUP6 DUP3 PUSH2 0x4397 JUMP JUMPDEST DUP7 SSTORE POP PUSH2 0x447D JUMP JUMPDEST PUSH1 0x1F NOT DUP5 AND PUSH2 0x442B DUP7 PUSH2 0x4207 JUMP JUMPDEST PUSH1 0x0 JUMPDEST DUP3 DUP2 LT ISZERO PUSH2 0x4453 JUMPI DUP5 DUP10 ADD MLOAD DUP3 SSTORE PUSH1 0x1 DUP3 ADD SWAP2 POP PUSH1 0x20 DUP6 ADD SWAP5 POP PUSH1 0x20 DUP2 ADD SWAP1 POP PUSH2 0x442E JUMP JUMPDEST DUP7 DUP4 LT ISZERO PUSH2 0x4470 JUMPI DUP5 DUP10 ADD MLOAD PUSH2 0x446C PUSH1 0x1F DUP10 AND DUP3 PUSH2 0x4379 JUMP JUMPDEST DUP4 SSTORE POP JUMPDEST PUSH1 0x1 PUSH1 0x2 DUP9 MUL ADD DUP9 SSTORE POP POP POP JUMPDEST POP POP POP POP POP POP JUMP JUMPDEST PUSH1 0x0 PUSH2 0x4490 DUP3 PUSH2 0x391C JUMP JUMPDEST SWAP2 POP PUSH32 0xFFFFFFFFFFFFFFFFFFFFFFFFFFFFFFFFFFFFFFFFFFFFFFFFFFFFFFFFFFFFFFFF DUP3 SUB PUSH2 0x44C2 JUMPI PUSH2 0x44C1 PUSH2 0x409F JUMP JUMPDEST JUMPDEST PUSH1 0x1 DUP3 ADD SWAP1 POP SWAP2 SWAP1 POP JUMP JUMPDEST PUSH1 0x0 PUSH2 0x44D8 DUP3 PUSH2 0x391C JUMP JUMPDEST SWAP2 POP PUSH2 0x44E3 DUP4 PUSH2 0x391C JUMP JUMPDEST SWAP3 POP DUP3 PUSH2 0x44F3 JUMPI PUSH2 0x44F2 PUSH2 0x4136 JUMP JUMPDEST JUMPDEST DUP3 DUP3 MOD SWAP1 POP SWAP3 SWAP2 POP POP JUMP JUMPDEST PUSH1 0x0 DUP2 SWAP1 POP SWAP2 SWAP1 POP JUMP JUMPDEST PUSH2 0x4511 DUP2 PUSH2 0x44FE JUMP JUMPDEST DUP3 MSTORE POP POP JUMP JUMPDEST PUSH1 0x0 PUSH8 0xFFFFFFFFFFFFFFFF DUP3 AND SWAP1 POP SWAP2 SWAP1 POP JUMP JUMPDEST PUSH2 0x4534 DUP2 PUSH2 0x4517 JUMP JUMPDEST DUP3 MSTORE POP POP JUMP JUMPDEST PUSH1 0x0 PUSH2 0xFFFF DUP3 AND SWAP1 POP SWAP2 SWAP1 POP JUMP JUMPDEST PUSH2 0x4551 DUP2 PUSH2 0x453A JUMP JUMPDEST DUP3 MSTORE POP POP JUMP JUMPDEST PUSH1 0x0 PUSH4 0xFFFFFFFF DUP3 AND SWAP1 POP SWAP2 SWAP1 POP JUMP JUMPDEST PUSH2 0x4570 DUP2 PUSH2 0x4557 JUMP JUMPDEST DUP3 MSTORE POP POP JUMP JUMPDEST PUSH1 0x0 PUSH1 0xA0 DUP3 ADD SWAP1 POP PUSH2 0x458B PUSH1 0x0 DUP4 ADD DUP9 PUSH2 0x4508 JUMP JUMPDEST PUSH2 0x4598 PUSH1 0x20 DUP4 ADD DUP8 PUSH2 0x452B JUMP JUMPDEST PUSH2 0x45A5 PUSH1 0x40 DUP4 ADD DUP7 PUSH2 0x4548 JUMP JUMPDEST PUSH2 0x45B2 PUSH1 0x60 DUP4 ADD DUP6 PUSH2 0x4567 JUMP JUMPDEST PUSH2 0x45BF PUSH1 0x80 DUP4 ADD DUP5 PUSH2 0x4567 JUMP JUMPDEST SWAP7 SWAP6 POP POP POP POP POP POP JUMP JUMPDEST PUSH1 0x0 DUP2 MLOAD SWAP1 POP PUSH2 0x45D8 DUP2 PUSH2 0x3AB1 JUMP JUMPDEST SWAP3 SWAP2 POP POP JUMP JUMPDEST PUSH1 0x0 PUSH1 0x20 DUP3 DUP5 SUB SLT ISZERO PUSH2 0x45F4 JUMPI PUSH2 0x45F3 PUSH2 0x3AA7 JUMP JUMPDEST JUMPDEST PUSH1 0x0 PUSH2 0x4602 DUP5 DUP3 DUP6 ADD PUSH2 0x45C9 JUMP JUMPDEST SWAP2 POP POP SWAP3 SWAP2 POP POP JUMP JUMPDEST PUSH1 0x0 PUSH1 0xFF DUP3 AND SWAP1 POP SWAP2 SWAP1 POP JUMP JUMPDEST PUSH1 0x0 PUSH2 0x4623 DUP3 PUSH2 0x460B JUMP JUMPDEST SWAP2 POP PUSH2 0x462E DUP4 PUSH2 0x460B JUMP JUMPDEST SWAP3 POP DUP3 DUP3 ADD SWAP1 POP PUSH1 0xFF DUP2 GT ISZERO PUSH2 0x4647 JUMPI PUSH2 0x4646 PUSH2 0x409F JUMP JUMPDEST JUMPDEST SWAP3 SWAP2 POP POP JUMP JUMPDEST PUSH1 0x0 DUP2 SWAP1 POP SWAP3 SWAP2 POP POP JUMP JUMPDEST PUSH1 0x0 PUSH2 0x4663 DUP3 PUSH2 0x388C JUMP JUMPDEST PUSH2 0x466D DUP2 DUP6 PUSH2 0x464D JUMP JUMPDEST SWAP4 POP PUSH2 0x467D DUP2 DUP6 PUSH1 0x20 DUP7 ADD PUSH2 0x38A8 JUMP JUMPDEST DUP1 DUP5 ADD SWAP2 POP POP SWAP3 SWAP2 POP POP JUMP JUMPDEST PUSH1 0x0 PUSH2 0x4695 DUP3 DUP15 PUSH2 0x4658 JUMP JUMPDEST SWAP2 POP PUSH2 0x46A1 DUP3 DUP14 PUSH2 0x4658 JUMP JUMPDEST SWAP2 POP PUSH2 0x46AD DUP3 DUP13 PUSH2 0x4658 JUMP JUMPDEST SWAP2 POP PUSH2 0x46B9 DUP3 DUP12 PUSH2 0x4658 JUMP JUMPDEST SWAP2 POP PUSH2 0x46C5 DUP3 DUP11 PUSH2 0x4658 JUMP JUMPDEST SWAP2 POP PUSH2 0x46D1 DUP3 DUP10 PUSH2 0x4658 JUMP JUMPDEST SWAP2 POP PUSH2 0x46DD DUP3 DUP9 PUSH2 0x4658 JUMP JUMPDEST SWAP2 POP PUSH2 0x46E9 DUP3 DUP8 PUSH2 0x4658 JUMP JUMPDEST SWAP2 POP PUSH2 0x46F5 DUP3 DUP7 PUSH2 0x4658 JUMP JUMPDEST SWAP2 POP PUSH2 0x4701 DUP3 DUP6 PUSH2 0x4658 JUMP JUMPDEST SWAP2 POP PUSH2 0x470D DUP3 DUP5 PUSH2 0x4658 JUMP JUMPDEST SWAP2 POP DUP2 SWAP1 POP SWAP13 SWAP12 POP POP POP POP POP POP POP POP POP POP POP POP JUMP JUMPDEST PUSH1 0x0 DUP2 SLOAD SWAP1 POP PUSH2 0x4731 DUP2 PUSH2 0x3F72 JUMP JUMPDEST SWAP1 POP SWAP2 SWAP1 POP JUMP JUMPDEST DUP2 DUP2 SUB PUSH2 0x4746 JUMPI POP POP PUSH2 0x481E JUMP JUMPDEST PUSH2 0x474F DUP3 PUSH2 0x4722 JUMP JUMPDEST PUSH8 0xFFFFFFFFFFFFFFFF DUP2 GT ISZERO PUSH2 0x4768 JUMPI PUSH2 0x4767 PUSH2 0x3AE2 JUMP JUMPDEST JUMPDEST PUSH2 0x4772 DUP3 SLOAD PUSH2 0x3F72 JUMP JUMPDEST PUSH2 0x477D DUP3 DUP3 DUP6 PUSH2 0x4326 JUMP JUMPDEST PUSH1 0x0 PUSH1 0x1F DUP4 GT PUSH1 0x1 DUP2 EQ PUSH2 0x47AC JUMPI PUSH1 0x0 DUP5 ISZERO PUSH2 0x479A JUMPI DUP3 DUP8 ADD SLOAD SWAP1 POP JUMPDEST PUSH2 0x47A4 DUP6 DUP3 PUSH2 0x4397 JUMP JUMPDEST DUP7 SSTORE POP PUSH2 0x4817 JUMP JUMPDEST PUSH1 0x1F NOT DUP5 AND PUSH2 0x47BA DUP8 PUSH2 0x4207 JUMP JUMPDEST SWAP7 POP PUSH2 0x47C5 DUP7 PUSH2 0x4207 JUMP JUMPDEST PUSH1 0x0 JUMPDEST DUP3 DUP2 LT ISZERO PUSH2 0x47ED JUMPI DUP5 DUP10 ADD SLOAD DUP3 SSTORE PUSH1 0x1 DUP3 ADD SWAP2 POP PUSH1 0x1 DUP6 ADD SWAP5 POP PUSH1 0x20 DUP2 ADD SWAP1 POP PUSH2 0x47C8 JUMP JUMPDEST DUP7 DUP4 LT ISZERO PUSH2 0x480A JUMPI DUP5 DUP10 ADD SLOAD PUSH2 0x4806 PUSH1 0x1F DUP10 AND DUP3 PUSH2 0x4379 JUMP JUMPDEST DUP4 SSTORE POP JUMPDEST PUSH1 0x1 PUSH1 0x2 DUP9 MUL ADD DUP9 SSTORE POP POP POP JUMPDEST POP POP POP POP POP POP JUMPDEST JUMP INVALID LOG2 PUSH5 0x6970667358 0x22 SLT KECCAK256 CALLVALUE OR PUSH12 0xA44D6B0DDB31C18B6832D09C SGT LOG0 SWAP9 SWAP12 0xE0 PUSH29 0x38935DFAB0B02B8E7DA1CA64736F6C6343000811003300000000000000 "},"methodIdentifiers":{"adminAddress()":"fc6f9468","changeStatus()":"085634ec","changeTax(uint256)":"3e45c8af","clearContract()":"4b307f80","counter()":"61bc221a","drawNumber()":"d80ffb20","drawOn()":"4a731122","emptyBets(uint256)":"72a38d2d","enterLottery(uint256[])":"7fed27d5","getLastWinners()":"95690936","getloterryBets()":"1a5d4cf6","hasNumbers()":"cb7a31a7","inRange()":"5159dcf3","interval()":"947a36fb","lastNumbers()":"94a4d074","lastTimeStamp()":"3f3b3b27","lastWinner(uint256)":"bf9985c8","lotteryBets(uint256)":"e7e9f056","lotteryBetsLen()":"b28aaaa4","performUpkeep()":"6e4d243a","rawFulfillRandomWords(uint256,uint256[])":"1fe543e3","s_empty(uint256)":"bc2837fe","s_empty_one()":"831a0384","s_randomWords(uint256)":"f6eaffc8","s_requestId()":"e89e106a","tax()":"99c8d556","totalInContract()":"58b95769"}}}}}